{
	"data": {
		"bytecode": {
			"linkReferences": {},
			"object": "6101606040526064600660146101000a81548163ffffffff021916908363ffffffff160217905550348015610032575f80fd5b5060405161651138038061651183398181016040528101906100549190610326565b6040518060400160405280601381526020017f417574686f72697a6174696f6e20746f6b656e000000000000000000000000008152506040518060400160405280600181526020017f310000000000000000000000000000000000000000000000000000000000000081525081816100d55f836101b360201b90919060201c565b61012081815250506100f16001826101b360201b90919060201c565b6101408181525050818051906020012060e08181525050808051906020012061010081815250504660a0818152505061012e61020060201b60201c565b608081815250503073ffffffffffffffffffffffffffffffffffffffff1660c08173ffffffffffffffffffffffffffffffffffffffff1681525050505050508060065f6101000a81548173ffffffffffffffffffffffffffffffffffffffff021916908373ffffffffffffffffffffffffffffffffffffffff160217905550506107fa565b5f6020835110156101d4576101cd8361025a60201b60201c565b90506101fa565b826101e4836102bf60201b60201c565b5f0190816101f2919061058b565b5060ff5f1b90505b92915050565b5f7f8b73c3c69bb8fe3d512ecc4cf759cc79239f7b179b0ffacaa9a75d522b39400f60e05161010051463060405160200161023f959493929190610690565b60405160208183030381529060405280519060200120905090565b5f80829050601f815111156102a657826040517f305a27a900000000000000000000000000000000000000000000000000000000815260040161029d9190610747565b60405180910390fd5b8051816102b290610794565b5f1c175f1b915050919050565b5f819050919050565b5f80fd5b5f73ffffffffffffffffffffffffffffffffffffffff82169050919050565b5f6102f5826102cc565b9050919050565b610305816102eb565b811461030f575f80fd5b50565b5f81519050610320816102fc565b92915050565b5f6020828403121561033b5761033a6102c8565b5b5f61034884828501610312565b91505092915050565b5f81519050919050565b7f4e487b71000000000000000000000000000000000000000000000000000000005f52604160045260245ffd5b7f4e487b71000000000000000000000000000000000000000000000000000000005f52602260045260245ffd5b5f60028204905060018216806103cc57607f821691505b6020821081036103df576103de610388565b5b50919050565b5f819050815f5260205f209050919050565b5f6020601f8301049050919050565b5f82821b905092915050565b5f600883026104417fffffffffffffffffffffffffffffffffffffffffffffffffffffffffffffffff82610406565b61044b8683610406565b95508019841693508086168417925050509392505050565b5f819050919050565b5f819050919050565b5f61048f61048a61048584610463565b61046c565b610463565b9050919050565b5f819050919050565b6104a883610475565b6104bc6104b482610496565b848454610412565b825550505050565b5f90565b6104d06104c4565b6104db81848461049f565b505050565b5b818110156104fe576104f35f826104c8565b6001810190506104e1565b5050565b601f82111561054357610514816103e5565b61051d846103f7565b8101602085101561052c578190505b610540610538856103f7565b8301826104e0565b50505b505050565b5f82821c905092915050565b5f6105635f1984600802610548565b1980831691505092915050565b5f61057b8383610554565b9150826002028217905092915050565b61059482610351565b67ffffffffffffffff8111156105ad576105ac61035b565b5b6105b782546103b5565b6105c2828285610502565b5f60209050601f8311600181146105f3575f84156105e1578287015190505b6105eb8582610570565b865550610652565b601f198416610601866103e5565b5f5b8281101561062857848901518255600182019150602085019450602081019050610603565b868310156106455784890151610641601f891682610554565b8355505b6001600288020188555050505b505050505050565b5f819050919050565b61066c8161065a565b82525050565b61067b81610463565b82525050565b61068a816102eb565b82525050565b5f60a0820190506106a35f830188610663565b6106b06020830187610663565b6106bd6040830186610663565b6106ca6060830185610672565b6106d76080830184610681565b9695505050505050565b5f82825260208201905092915050565b8281835e5f83830152505050565b5f601f19601f8301169050919050565b5f61071982610351565b61072381856106e1565b93506107338185602086016106f1565b61073c816106ff565b840191505092915050565b5f6020820190508181035f83015261075f818461070f565b905092915050565b5f81519050919050565b5f819050602082019050919050565b5f61078b825161065a565b80915050919050565b5f61079e82610767565b826107a884610771565b90506107b381610780565b925060208210156107f3576107ee7fffffffffffffffffffffffffffffffffffffffffffffffffffffffffffffffff83602003600802610406565b831692505b5050919050565b60805160a05160c05160e051610100516101205161014051615cd561083c5f395f61219e01525f61216301525f50505f50505f50505f50505f5050615cd55ff3fe608060405234801561000f575f80fd5b5060043610610114575f3560e01c80637e51bf4b116100a0578063a27e53df1161006f578063a27e53df1461033b578063c036596a1461036b578063c705ab181461039b578063e93a5b98146103cb578063f057a5d11461040057610114565b80637e51bf4b1461029957806384b0196e146102b7578063937f0860146102db578063978dc9fd1461030b57610114565b8063283f03f0116100e7578063283f03f0146101cb5780633dee0c50146101e7578063548eac041461021757806359c87d701461024d578063670d14b21461026957610114565b80630164d6c4146101185780630280ffb6146101485780631c08248f1461016457806322e1f50e1461019b575b5f80fd5b610132600480360381019061012d9190612983565b61041c565b60405161013f9190612b5c565b60405180910390f35b610162600480360381019061015d9190612bdd565b6105bf565b005b61017e60048036038101906101799190612c3a565b610b1d565b604051610192989796959493929190612cfc565b60405180910390f35b6101b560048036038101906101b09190612d7f565b610c20565b6040516101c29190612db9565b60405180910390f35b6101e560048036038101906101e09190612f29565b610c66565b005b61020160048036038101906101fc9190613018565b610cc3565b60405161020e919061308c565b60405180910390f35b610231600480360381019061022c91906130a5565b610ef3565b60405161024497969594939291906130d0565b60405180910390f35b610267600480360381019061026291906130a5565b610f31565b005b610283600480360381019061027e9190612d7f565b61142a565b6040516102909190612db9565b60405180910390f35b6102a161143f565b6040516102ae919061313d565b60405180910390f35b6102bf611464565b6040516102d29796959493929190613256565b60405180910390f35b6102f560048036038101906102f091906130a5565b611509565b6040516103029190613351565b60405180910390f35b61032560048036038101906103209190613394565b611605565b6040516103329190612db9565b60405180910390f35b61035560048036038101906103509190612c3a565b611904565b604051610362919061308c565b60405180910390f35b610385600480360381019061038091906133ee565b61192e565b604051610392919061313d565b60405180910390f35b6103b560048036038101906103b091906133ee565b611976565b6040516103c2919061313d565b60405180910390f35b6103e560048036038101906103e091906130a5565b6119ca565b6040516103f79695949392919061342c565b60405180910390f35b61041a6004803603810190610415919061348b565b611a40565b005b610424612822565b60045f8381526020019081526020015f205f8473ffffffffffffffffffffffffffffffffffffffff1673ffffffffffffffffffffffffffffffffffffffff1681526020019081526020015f20604051806101000160405290815f8201805461048b90613524565b80601f01602080910402602001604051908101604052809291908181526020018280546104b790613524565b80156105025780601f106104d957610100808354040283529160200191610502565b820191905f5260205f20905b8154815290600101906020018083116104e557829003601f168201915b50505050508152602001600182015f9054906101000a900473ffffffffffffffffffffffffffffffffffffffff1673ffffffffffffffffffffffffffffffffffffffff1673ffffffffffffffffffffffffffffffffffffffff16815260200160028201548152602001600382015481526020016004820154815260200160058201548152602001600682015f9054906101000a900463ffffffff1663ffffffff1663ffffffff168152602001600782015481525050905092915050565b5f61060c84848080601f0160208091040260200160405190810160405280939291908181526020018383808284375f81840152601f19601f82011690508083019250505050505050612039565b90505f60045f8481526020019081526020015f205f3373ffffffffffffffffffffffffffffffffffffffff1673ffffffffffffffffffffffffffffffffffffffff1681526020019081526020015f20604051806101000160405290815f8201805461067690613524565b80601f01602080910402602001604051908101604052809291908181526020018280546106a290613524565b80156106ed5780601f106106c4576101008083540402835291602001916106ed565b820191905f5260205f20905b8154815290600101906020018083116106d057829003601f168201915b50505050508152602001600182015f9054906101000a900473ffffffffffffffffffffffffffffffffffffffff1673ffffffffffffffffffffffffffffffffffffffff1673ffffffffffffffffffffffffffffffffffffffff16815260200160028201548152602001600382015481526020016004820154815260200160058201548152602001600682015f9054906101000a900463ffffffff1663ffffffff1663ffffffff16815260200160078201548152505090505f816060015190505f60025f8681526020019081526020015f206040518060c00160405290815f8201548152602001600182015f9054906101000a900473ffffffffffffffffffffffffffffffffffffffff1673ffffffffffffffffffffffffffffffffffffffff1673ffffffffffffffffffffffffffffffffffffffff168152602001600282015481526020016003820154815260200160048201548152602001600582015f9054906101000a900473ffffffffffffffffffffffffffffffffffffffff1673ffffffffffffffffffffffffffffffffffffffff1673ffffffffffffffffffffffffffffffffffffffff168152505090506108aa83608001518561204c565b8360800181815250506108c56108c08386612092565b6120e1565b6108df6108da84604001518560800151612092565b6120e1565b8060a0015173ffffffffffffffffffffffffffffffffffffffff16637ba0e2e788886040518363ffffffff1660e01b815260040161091e929190613590565b5f604051808303815f87803b158015610935575f80fd5b505af1158015610947573d5f803e3d5ffd5b505050508260045f8781526020019081526020015f205f3373ffffffffffffffffffffffffffffffffffffffff1673ffffffffffffffffffffffffffffffffffffffff1681526020019081526020015f205f820151815f0190816109ab9190613725565b506020820151816001015f6101000a81548173ffffffffffffffffffffffffffffffffffffffff021916908373ffffffffffffffffffffffffffffffffffffffff16021790555060408201518160020155606082015181600301556080820151816004015560a0820151816005015560c0820151816006015f6101000a81548163ffffffff021916908363ffffffff16021790555060e082015181600701559050508060025f8781526020019081526020015f205f820151815f01556020820151816001015f6101000a81548173ffffffffffffffffffffffffffffffffffffffff021916908373ffffffffffffffffffffffffffffffffffffffff16021790555060408201518160020155606082015181600301556080820151816004015560a0820151816005015f6101000a81548173ffffffffffffffffffffffffffffffffffffffff021916908373ffffffffffffffffffffffffffffffffffffffff16021790555090505050505050505050565b6004602052815f5260405f20602052805f5260405f205f9150915050805f018054610b4790613524565b80601f0160208091040260200160405190810160405280929190818152602001828054610b7390613524565b8015610bbe5780601f10610b9557610100808354040283529160200191610bbe565b820191905f5260205f20905b815481529060010190602001808311610ba157829003601f168201915b505050505090806001015f9054906101000a900473ffffffffffffffffffffffffffffffffffffffff1690806002015490806003015490806004015490806005015490806006015f9054906101000a900463ffffffff16908060070154905088565b5f60075f8373ffffffffffffffffffffffffffffffffffffffff1673ffffffffffffffffffffffffffffffffffffffff1681526020019081526020015f20549050919050565b8160055f8381526020019081526020015f205f820151815f01556020820151816001015560408201518160020155606082015181600301556080820151816004015560a0820151816005015560c082015181600601559050505050565b5f8083604051610cd29061287c565b610cdc91906137f4565b604051809103905ff080158015610cf5573d5f803e3d5ffd5b5090505f60025f8581526020019081526020015f206040518060c00160405290815f8201548152602001600182015f9054906101000a900473ffffffffffffffffffffffffffffffffffffffff1673ffffffffffffffffffffffffffffffffffffffff1673ffffffffffffffffffffffffffffffffffffffff168152602001600282015481526020016003820154815260200160048201548152602001600582015f9054906101000a900473ffffffffffffffffffffffffffffffffffffffff1673ffffffffffffffffffffffffffffffffffffffff1673ffffffffffffffffffffffffffffffffffffffff16815250509050818160a0019073ffffffffffffffffffffffffffffffffffffffff16908173ffffffffffffffffffffffffffffffffffffffff16815250508060025f8681526020019081526020015f205f820151815f01556020820151816001015f6101000a81548173ffffffffffffffffffffffffffffffffffffffff021916908373ffffffffffffffffffffffffffffffffffffffff16021790555060408201518160020155606082015181600301556080820151816004015560a0820151816005015f6101000a81548173ffffffffffffffffffffffffffffffffffffffff021916908373ffffffffffffffffffffffffffffffffffffffff16021790555090505060019250505092915050565b6005602052805f5260405f205f91509050805f0154908060010154908060020154908060030154908060040154908060050154908060060154905087565b5f60055f8381526020019081526020015f206040518060e00160405290815f8201548152602001600182015481526020016002820154815260200160038201548152602001600482015481526020016005820154815260200160068201548152505090505f60045f8481526020019081526020015f205f3373ffffffffffffffffffffffffffffffffffffffff1673ffffffffffffffffffffffffffffffffffffffff1681526020019081526020015f20604051806101000160405290815f82018054610ffd90613524565b80601f016020809104026020016040519081016040528092919081815260200182805461102990613524565b80156110745780601f1061104b57610100808354040283529160200191611074565b820191905f5260205f20905b81548152906001019060200180831161105757829003601f168201915b50505050508152602001600182015f9054906101000a900473ffffffffffffffffffffffffffffffffffffffff1673ffffffffffffffffffffffffffffffffffffffff1673ffffffffffffffffffffffffffffffffffffffff16815260200160028201548152602001600382015481526020016004820154815260200160058201548152602001600682015f9054906101000a900463ffffffff1663ffffffff1663ffffffff16815260200160078201548152505090505f60025f8581526020019081526020015f206040518060c00160405290815f8201548152602001600182015f9054906101000a900473ffffffffffffffffffffffffffffffffffffffff1673ffffffffffffffffffffffffffffffffffffffff1673ffffffffffffffffffffffffffffffffffffffff168152602001600282015481526020016003820154815260200160048201548152602001600582015f9054906101000a900473ffffffffffffffffffffffffffffffffffffffff1673ffffffffffffffffffffffffffffffffffffffff1673ffffffffffffffffffffffffffffffffffffffff1681525050905060035f8581526020019081526020015f205f3373ffffffffffffffffffffffffffffffffffffffff1673ffffffffffffffffffffffffffffffffffffffff1681526020019081526020015f205f9054906101000a900460ff166112b3576040517f08c379a00000000000000000000000000000000000000000000000000000000081526004016112aa9061385e565b60405180910390fd5b5f4290505f6112c78263ffffffff166120ed565b90505f6112db865f0151876020015161204c565b90505f6113096112ee84895f0151612092565b6112fb858a5f0151612100565b6113045f6120ed565b612146565b905061131560646120ed565b8660600181815250508560045f8a81526020019081526020015f205f3373ffffffffffffffffffffffffffffffffffffffff1673ffffffffffffffffffffffffffffffffffffffff1681526020019081526020015f205f820151815f01908161137e9190613725565b506020820151816001015f6101000a81548173ffffffffffffffffffffffffffffffffffffffff021916908373ffffffffffffffffffffffffffffffffffffffff16021790555060408201518160020155606082015181600301556080820151816004015560a0820151816005015560c0820151816006015f6101000a81548163ffffffff021916908363ffffffff16021790555060e082015181600701559050505050505050505050565b6007602052805f5260405f205f915090505481565b60065f9054906101000a900473ffffffffffffffffffffffffffffffffffffffff1681565b5f6060805f805f606061147561215b565b61147d612195565b46305f801b5f67ffffffffffffffff81111561149c5761149b612dd6565b5b6040519080825280602002602001820160405280156114ca5781602001602082028036833780820191505090505b507f0f00000000000000000000000000000000000000000000000000000000000000959493929190965096509650965096509650965090919293949596565b611511612889565b60025f8381526020019081526020015f206040518060c00160405290815f8201548152602001600182015f9054906101000a900473ffffffffffffffffffffffffffffffffffffffff1673ffffffffffffffffffffffffffffffffffffffff1673ffffffffffffffffffffffffffffffffffffffff168152602001600282015481526020016003820154815260200160048201548152602001600582015f9054906101000a900473ffffffffffffffffffffffffffffffffffffffff1673ffffffffffffffffffffffffffffffffffffffff1673ffffffffffffffffffffffffffffffffffffffff16815250509050919050565b5f80836040516020016116189190613900565b60405160208183030381529060405290505f848460405160200161163d929190613941565b6040516020818303038152906040528051906020012090505f60025f8381526020019081526020015f206040518060c00160405290815f8201548152602001600182015f9054906101000a900473ffffffffffffffffffffffffffffffffffffffff1673ffffffffffffffffffffffffffffffffffffffff1673ffffffffffffffffffffffffffffffffffffffff168152602001600282015481526020016003820154815260200160048201548152602001600582015f9054906101000a900473ffffffffffffffffffffffffffffffffffffffff1673ffffffffffffffffffffffffffffffffffffffff1673ffffffffffffffffffffffffffffffffffffffff168152505090505f73ffffffffffffffffffffffffffffffffffffffff16816020015173ffffffffffffffffffffffffffffffffffffffff16146117b7576040517f08c379a00000000000000000000000000000000000000000000000000000000081526004016117ae906139b2565b60405180910390fd5b33816020019073ffffffffffffffffffffffffffffffffffffffff16908173ffffffffffffffffffffffffffffffffffffffff16815250508060025f8481526020019081526020015f205f820151815f01556020820151816001015f6101000a81548173ffffffffffffffffffffffffffffffffffffffff021916908373ffffffffffffffffffffffffffffffffffffffff16021790555060408201518160020155606082015181600301556080820151816004015560a0820151816005015f6101000a81548173ffffffffffffffffffffffffffffffffffffffff021916908373ffffffffffffffffffffffffffffffffffffffff1602179055509050508160075f3373ffffffffffffffffffffffffffffffffffffffff1673ffffffffffffffffffffffffffffffffffffffff1681526020019081526020015f208190555081935050505092915050565b6003602052815f5260405f20602052805f5260405f205f915091509054906101000a900460ff1681565b6008602052815f5260405f208181548110611947575f80fd5b905f5260205f20015f915091509054906101000a900473ffffffffffffffffffffffffffffffffffffffff1681565b5f60085f8481526020019081526020015f20828154811061199a576119996139d0565b5b905f5260205f20015f9054906101000a900473ffffffffffffffffffffffffffffffffffffffff16905092915050565b6002602052805f5260405f205f91509050805f015490806001015f9054906101000a900473ffffffffffffffffffffffffffffffffffffffff1690806002015490806003015490806004015490806005015f9054906101000a900473ffffffffffffffffffffffffffffffffffffffff16905086565b5f60025f8381526020019081526020015f206040518060c00160405290815f8201548152602001600182015f9054906101000a900473ffffffffffffffffffffffffffffffffffffffff1673ffffffffffffffffffffffffffffffffffffffff1673ffffffffffffffffffffffffffffffffffffffff168152602001600282015481526020016003820154815260200160048201548152602001600582015f9054906101000a900473ffffffffffffffffffffffffffffffffffffffff1673ffffffffffffffffffffffffffffffffffffffff1673ffffffffffffffffffffffffffffffffffffffff16815250509050806020015173ffffffffffffffffffffffffffffffffffffffff163373ffffffffffffffffffffffffffffffffffffffff1614611ba2576040517f08c379a0000000000000000000000000000000000000000000000000000000008152600401611b9990613a47565b60405180910390fd5b600160035f8481526020019081526020015f205f8573ffffffffffffffffffffffffffffffffffffffff1673ffffffffffffffffffffffffffffffffffffffff1681526020019081526020015f205f6101000a81548160ff021916908315150217905550611c1c815f0151611c1760016120ed565b61204c565b815f0181815250508060025f8481526020019081526020015f205f820151815f01556020820151816001015f6101000a81548173ffffffffffffffffffffffffffffffffffffffff021916908373ffffffffffffffffffffffffffffffffffffffff16021790555060408201518160020155606082015181600301556080820151816004015560a0820151816005015f6101000a81548173ffffffffffffffffffffffffffffffffffffffff021916908373ffffffffffffffffffffffffffffffffffffffff1602179055509050505f60045f8481526020019081526020015f205f8573ffffffffffffffffffffffffffffffffffffffff1673ffffffffffffffffffffffffffffffffffffffff1681526020019081526020015f20604051806101000160405290815f82018054611d5390613524565b80601f0160208091040260200160405190810160405280929190818152602001828054611d7f90613524565b8015611dca5780601f10611da157610100808354040283529160200191611dca565b820191905f5260205f20905b815481529060010190602001808311611dad57829003601f168201915b50505050508152602001600182015f9054906101000a900473ffffffffffffffffffffffffffffffffffffffff1673ffffffffffffffffffffffffffffffffffffffff1673ffffffffffffffffffffffffffffffffffffffff16815260200160028201548152602001600382015481526020016004820154815260200160058201548152602001600682015f9054906101000a900463ffffffff1663ffffffff1663ffffffff168152602001600782015481525050905083816020019073ffffffffffffffffffffffffffffffffffffffff16908173ffffffffffffffffffffffffffffffffffffffff168152505084815f018190525060085f8481526020019081526020015f2084908060018154018082558091505060019003905f5260205f20015f9091909190916101000a81548173ffffffffffffffffffffffffffffffffffffffff021916908373ffffffffffffffffffffffffffffffffffffffff1602179055508060045f8581526020019081526020015f205f8673ffffffffffffffffffffffffffffffffffffffff1673ffffffffffffffffffffffffffffffffffffffff1681526020019081526020015f205f820151815f019081611f909190613725565b506020820151816001015f6101000a81548173ffffffffffffffffffffffffffffffffffffffff021916908373ffffffffffffffffffffffffffffffffffffffff16021790555060408201518160020155606082015181600301556080820151816004015560a0820151816005015560c0820151816006015f6101000a81548163ffffffff021916908363ffffffff16021790555060e082015181600701559050505050505050565b5f6120458260026121d0565b9050919050565b5f6120568361227b565b612066576120635f6120ed565b92505b61206f8261227b565b61207f5761207c5f6120ed565b91505b61208a83835f612287565b905092915050565b5f61209c8361227b565b6120ac576120a95f6120ed565b92505b6120b58261227b565b6120c5576120c25f6120ed565b91505b6120d96120d384845f612329565b5f6123cb565b905092915050565b6120ea81612452565b50565b5f6120f9826002612505565b9050919050565b5f61210a8361227b565b61211a576121175f6120ed565b92505b6121238261227b565b612133576121305f6120ed565b91505b61213e83835f61258c565b905092915050565b5f61215284848461262e565b90509392505050565b60606121905f7f00000000000000000000000000000000000000000000000000000000000000006126b590919063ffffffff16565b905090565b60606121cb60017f00000000000000000000000000000000000000000000000000000000000000006126b590919063ffffffff16565b905090565b5f80838360f81b6040516020016121e8929190613ac9565b6040516020818303038152906040529050605d73ffffffffffffffffffffffffffffffffffffffff16634b252ec8826040518263ffffffff1660e01b81526004016122339190613b28565b602060405180830381865afa15801561224e573d5f803e3d5ffd5b505050506040513d601f19601f820116820180604052508101906122729190613b5c565b91505092915050565b5f808214159050919050565b5f80821561229b57600160f81b90506122a2565b5f60f81b90505b605d73ffffffffffffffffffffffffffffffffffffffff1663f953e4278686846040518463ffffffff1660e01b81526004016122e093929190613b87565b602060405180830381865afa1580156122fb573d5f803e3d5ffd5b505050506040513d601f19601f8201168201806040525081019061231f9190613b5c565b9150509392505050565b5f80821561233d57600160f81b9050612344565b5f60f81b90505b605d73ffffffffffffffffffffffffffffffffffffffff1663052896f18686846040518463ffffffff1660e01b815260040161238293929190613b87565b602060405180830381865afa15801561239d573d5f803e3d5ffd5b505050506040513d601f19601f820116820180604052508101906123c19190613b5c565b9150509392505050565b5f605d73ffffffffffffffffffffffffffffffffffffffff16634be68d20848460f81b6040518363ffffffff1660e01b815260040161240b929190613bbc565b602060405180830381865afa158015612426573d5f803e3d5ffd5b505050506040513d601f19601f8201168201806040525081019061244a9190613b5c565b905092915050565b5f816040516024016124649190613be3565b6040516020818303038152906040527f4ee071a1000000000000000000000000000000000000000000000000000000007bffffffffffffffffffffffffffffffffffffffffffffffffffffffff19166020820180517bffffffffffffffffffffffffffffffffffffffffffffffffffffffff838183161783525050505090505f815190505f605d90505f808360208601845afa6124ff575f80fd5b50505050565b5f605d73ffffffffffffffffffffffffffffffffffffffff1663e71746b8848460f81b6040518363ffffffff1660e01b8152600401612545929190613bbc565b602060405180830381865afa158015612560573d5f803e3d5ffd5b505050506040513d601f19601f820116820180604052508101906125849190613b5c565b905092915050565b5f8082156125a057600160f81b90506125a7565b5f60f81b90505b605d73ffffffffffffffffffffffffffffffffffffffff16638c14cc218686846040518463ffffffff1660e01b81526004016125e593929190613b87565b602060405180830381865afa158015612600573d5f803e3d5ffd5b505050506040513d601f19601f820116820180604052508101906126249190613b5c565b9150509392505050565b5f605d73ffffffffffffffffffffffffffffffffffffffff1663cb3b94078585856040518463ffffffff1660e01b815260040161266d93929190613bfc565b602060405180830381865afa158015612688573d5f803e3d5ffd5b505050506040513d601f19601f820116820180604052508101906126ac9190613b5c565b90509392505050565b606060ff5f1b83146126d1576126ca83612762565b905061275c565b8180546126dd90613524565b80601f016020809104026020016040519081016040528092919081815260200182805461270990613524565b80156127545780601f1061272b57610100808354040283529160200191612754565b820191905f5260205f20905b81548152906001019060200180831161273757829003601f168201915b505050505090505b92915050565b60605f61276e836127d4565b90505f602067ffffffffffffffff81111561278c5761278b612dd6565b5b6040519080825280601f01601f1916602001820160405280156127be5781602001600182028036833780820191505090505b5090508181528360208201528092505050919050565b5f8060ff835f1c169050601f811115612819576040517fb3512b0c00000000000000000000000000000000000000000000000000000000815260040160405180910390fd5b80915050919050565b604051806101000160405280606081526020015f73ffffffffffffffffffffffffffffffffffffffff1681526020015f81526020015f81526020015f81526020015f81526020015f63ffffffff1681526020015f81525090565b61206e80613c3283390190565b6040518060c001604052805f81526020015f73ffffffffffffffffffffffffffffffffffffffff1681526020015f81526020015f81526020015f81526020015f73ffffffffffffffffffffffffffffffffffffffff1681525090565b5f604051905090565b5f80fd5b5f80fd5b5f73ffffffffffffffffffffffffffffffffffffffff82169050919050565b5f61291f826128f6565b9050919050565b61292f81612915565b8114612939575f80fd5b50565b5f8135905061294a81612926565b92915050565b5f819050919050565b61296281612950565b811461296c575f80fd5b50565b5f8135905061297d81612959565b92915050565b5f8060408385031215612999576129986128ee565b5b5f6129a68582860161293c565b92505060206129b78582860161296f565b9150509250929050565b5f81519050919050565b5f82825260208201905092915050565b8281835e5f83830152505050565b5f601f19601f8301169050919050565b5f612a03826129c1565b612a0d81856129cb565b9350612a1d8185602086016129db565b612a26816129e9565b840191505092915050565b612a3a81612915565b82525050565b5f819050919050565b5f819050919050565b5f612a6c612a67612a6284612a40565b612a49565b612a40565b9050919050565b612a7c81612a52565b82525050565b612a8b81612a52565b82525050565b5f63ffffffff82169050919050565b612aa981612a91565b82525050565b5f61010083015f8301518482035f860152612aca82826129f9565b9150506020830151612adf6020860182612a31565b506040830151612af26040860182612a73565b506060830151612b056060860182612a73565b506080830151612b186080860182612a73565b5060a0830151612b2b60a0860182612a82565b5060c0830151612b3e60c0860182612aa0565b5060e0830151612b5160e0860182612a73565b508091505092915050565b5f6020820190508181035f830152612b748184612aaf565b905092915050565b5f80fd5b5f80fd5b5f80fd5b5f8083601f840112612b9d57612b9c612b7c565b5b8235905067ffffffffffffffff811115612bba57612bb9612b80565b5b602083019150836001820283011115612bd657612bd5612b84565b5b9250929050565b5f805f60408486031215612bf457612bf36128ee565b5b5f84013567ffffffffffffffff811115612c1157612c106128f2565b5b612c1d86828701612b88565b93509350506020612c308682870161296f565b9150509250925092565b5f8060408385031215612c5057612c4f6128ee565b5b5f612c5d8582860161296f565b9250506020612c6e8582860161293c565b9150509250929050565b5f82825260208201905092915050565b5f612c92826129c1565b612c9c8185612c78565b9350612cac8185602086016129db565b612cb5816129e9565b840191505092915050565b612cc981612915565b82525050565b612cd881612a52565b82525050565b612ce781612a52565b82525050565b612cf681612a91565b82525050565b5f610100820190508181035f830152612d15818b612c88565b9050612d24602083018a612cc0565b612d316040830189612ccf565b612d3e6060830188612ccf565b612d4b6080830187612ccf565b612d5860a0830186612cde565b612d6560c0830185612ced565b612d7260e0830184612ccf565b9998505050505050505050565b5f60208284031215612d9457612d936128ee565b5b5f612da18482850161293c565b91505092915050565b612db381612950565b82525050565b5f602082019050612dcc5f830184612daa565b92915050565b5f80fd5b7f4e487b71000000000000000000000000000000000000000000000000000000005f52604160045260245ffd5b612e0c826129e9565b810181811067ffffffffffffffff82111715612e2b57612e2a612dd6565b5b80604052505050565b5f612e3d6128e5565b9050612e498282612e03565b919050565b612e5781612a40565b8114612e61575f80fd5b50565b5f81359050612e7281612e4e565b92915050565b5f60e08284031215612e8d57612e8c612dd2565b5b612e9760e0612e34565b90505f612ea684828501612e64565b5f830152506020612eb984828501612e64565b6020830152506040612ecd84828501612e64565b6040830152506060612ee184828501612e64565b6060830152506080612ef584828501612e64565b60808301525060a0612f0984828501612e64565b60a08301525060c0612f1d84828501612e64565b60c08301525092915050565b5f806101008385031215612f4057612f3f6128ee565b5b5f612f4d85828601612e78565b92505060e0612f5e8582860161296f565b9150509250929050565b5f80fd5b5f67ffffffffffffffff821115612f8657612f85612dd6565b5b612f8f826129e9565b9050602081019050919050565b828183375f83830152505050565b5f612fbc612fb784612f6c565b612e34565b905082815260208101848484011115612fd857612fd7612f68565b5b612fe3848285612f9c565b509392505050565b5f82601f830112612fff57612ffe612b7c565b5b813561300f848260208601612faa565b91505092915050565b5f806040838503121561302e5761302d6128ee565b5b5f83013567ffffffffffffffff81111561304b5761304a6128f2565b5b61305785828601612feb565b92505060206130688582860161296f565b9150509250929050565b5f8115159050919050565b61308681613072565b82525050565b5f60208201905061309f5f83018461307d565b92915050565b5f602082840312156130ba576130b96128ee565b5b5f6130c78482850161296f565b91505092915050565b5f60e0820190506130e35f83018a612ccf565b6130f06020830189612ccf565b6130fd6040830188612ccf565b61310a6060830187612ccf565b6131176080830186612ccf565b61312460a0830185612ccf565b61313160c0830184612ccf565b98975050505050505050565b5f6020820190506131505f830184612cc0565b92915050565b5f7fff0000000000000000000000000000000000000000000000000000000000000082169050919050565b61318a81613156565b82525050565b61319981612a40565b82525050565b5f81519050919050565b5f82825260208201905092915050565b5f819050602082019050919050565b6131d181612a40565b82525050565b5f6131e283836131c8565b60208301905092915050565b5f602082019050919050565b5f6132048261319f565b61320e81856131a9565b9350613219836131b9565b805f5b8381101561324957815161323088826131d7565b975061323b836131ee565b92505060018101905061321c565b5085935050505092915050565b5f60e0820190506132695f83018a613181565b818103602083015261327b8189612c88565b9050818103604083015261328f8188612c88565b905061329e6060830187613190565b6132ab6080830186612cc0565b6132b860a0830185612daa565b81810360c08301526132ca81846131fa565b905098975050505050505050565b60c082015f8201516132ec5f850182612a73565b5060208201516132ff6020850182612a31565b5060408201516133126040850182612a73565b5060608201516133256060850182612a73565b5060808201516133386080850182612a73565b5060a082015161334b60a0850182612a31565b50505050565b5f60c0820190506133645f8301846132d8565b92915050565b61337381612a40565b811461337d575f80fd5b50565b5f8135905061338e8161336a565b92915050565b5f80604083850312156133aa576133a96128ee565b5b5f83013567ffffffffffffffff8111156133c7576133c66128f2565b5b6133d385828601612feb565b92505060206133e485828601613380565b9150509250929050565b5f8060408385031215613404576134036128ee565b5b5f6134118582860161296f565b925050602061342285828601613380565b9150509250929050565b5f60c08201905061343f5f830189612ccf565b61344c6020830188612cc0565b6134596040830187612ccf565b6134666060830186612ccf565b6134736080830185612ccf565b61348060a0830184612cc0565b979650505050505050565b5f805f606084860312156134a2576134a16128ee565b5b5f84013567ffffffffffffffff8111156134bf576134be6128f2565b5b6134cb86828701612feb565b93505060206134dc8682870161293c565b92505060406134ed8682870161296f565b9150509250925092565b7f4e487b71000000000000000000000000000000000000000000000000000000005f52602260045260245ffd5b5f600282049050600182168061353b57607f821691505b60208210810361354e5761354d6134f7565b5b50919050565b5f82825260208201905092915050565b5f61356f8385613554565b935061357c838584612f9c565b613585836129e9565b840190509392505050565b5f6020820190508181035f8301526135a9818486613564565b90509392505050565b5f819050815f5260205f209050919050565b5f6020601f8301049050919050565b5f82821b905092915050565b5f6008830261360e7fffffffffffffffffffffffffffffffffffffffffffffffffffffffffffffffff826135d3565b61361886836135d3565b95508019841693508086168417925050509392505050565b5f819050919050565b61364283612a52565b61365661364e82613630565b8484546135df565b825550505050565b5f90565b61366a61365e565b613675818484613639565b505050565b5b818110156136985761368d5f82613662565b60018101905061367b565b5050565b601f8211156136dd576136ae816135b2565b6136b7846135c4565b810160208510156136c6578190505b6136da6136d2856135c4565b83018261367a565b50505b505050565b5f82821c905092915050565b5f6136fd5f19846008026136e2565b1980831691505092915050565b5f61371583836136ee565b9150826002028217905092915050565b61372e826129c1565b67ffffffffffffffff81111561374757613746612dd6565b5b6137518254613524565b61375c82828561369c565b5f60209050601f83116001811461378d575f841561377b578287015190505b613785858261370a565b8655506137ec565b601f19841661379b866135b2565b5f5b828110156137c25784890151825560018201915060208501945060208101905061379d565b868310156137df57848901516137db601f8916826136ee565b8355505b6001600288020188555050505b505050505050565b5f6020820190508181035f83015261380c8184612c88565b905092915050565b7f6e6f74206120656d706c6f7965650000000000000000000000000000000000005f82015250565b5f613848600e83612c78565b915061385382613814565b602082019050919050565b5f6020820190508181035f8301526138758161383c565b9050919050565b5f81905092915050565b7f45455243323000000000000000000000000000000000000000000000000000005f82015250565b5f6138ba60068361387c565b91506138c582613886565b600682019050919050565b5f6138da826129c1565b6138e4818561387c565b93506138f48185602086016129db565b80840191505092915050565b5f61390a826138ae565b915061391682846138d0565b915081905092915050565b5f819050919050565b61393b61393682612a40565b613921565b82525050565b5f61394c82856138d0565b9150613958828461392a565b6020820191508190509392505050565b7f636f6d70616e7920616c726561647920657869737400000000000000000000005f82015250565b5f61399c601583612c78565b91506139a782613968565b602082019050919050565b5f6020820190508181035f8301526139c981613990565b9050919050565b7f4e487b71000000000000000000000000000000000000000000000000000000005f52603260045260245ffd5b7f63616c6c6572206973206e6f742061646d696e000000000000000000000000005f82015250565b5f613a31601383612c78565b9150613a3c826139fd565b602082019050919050565b5f6020820190508181035f830152613a5e81613a25565b9050919050565b5f81519050919050565b5f81905092915050565b5f613a8382613a65565b613a8d8185613a6f565b9350613a9d8185602086016129db565b80840191505092915050565b5f819050919050565b613ac3613abe82613156565b613aa9565b82525050565b5f613ad48285613a79565b9150613ae08284613ab2565b6001820191508190509392505050565b5f613afa82613a65565b613b048185613554565b9350613b148185602086016129db565b613b1d816129e9565b840191505092915050565b5f6020820190508181035f830152613b408184613af0565b905092915050565b5f81519050613b568161336a565b92915050565b5f60208284031215613b7157613b706128ee565b5b5f613b7e84828501613b48565b91505092915050565b5f606082019050613b9a5f830186613190565b613ba76020830185613190565b613bb46040830184613181565b949350505050565b5f604082019050613bcf5f830185613190565b613bdc6020830184613181565b9392505050565b5f602082019050613bf65f830184613190565b92915050565b5f606082019050613c0f5f830186613190565b613c1c6020830185613190565b613c296040830184613190565b94935050505056fe610160604052348015610010575f80fd5b5060405161206e38038061206e83398181016040528101906100329190610403565b6040518060400160405280601381526020017f417574686f72697a6174696f6e20746f6b656e000000000000000000000000008152506040518060400160405280600181526020017f310000000000000000000000000000000000000000000000000000000000000081525081816100b35f836101a160201b90919060201c565b61012081815250506100cf6001826101a160201b90919060201c565b6101408181525050818051906020012060e08181525050808051906020012061010081815250504660a0818152505061010c6101ee60201b60201c565b608081815250503073ffffffffffffffffffffffffffffffffffffffff1660c08173ffffffffffffffffffffffffffffffffffffffff1681525050505050503360065f6101000a81548173ffffffffffffffffffffffffffffffffffffffff021916908373ffffffffffffffffffffffffffffffffffffffff160217905550806003908161019a9190610657565b50506108d8565b5f6020835110156101c2576101bb8361024860201b60201c565b90506101e8565b826101d2836102ad60201b60201c565b5f0190816101e09190610657565b5060ff5f1b90505b92915050565b5f7f8b73c3c69bb8fe3d512ecc4cf759cc79239f7b179b0ffacaa9a75d522b39400f60e05161010051463060405160200161022d95949392919061078c565b60405160208183030381529060405280519060200120905090565b5f80829050601f8151111561029457826040517f305a27a900000000000000000000000000000000000000000000000000000000815260040161028b9190610825565b60405180910390fd5b8051816102a090610872565b5f1c175f1b915050919050565b5f819050919050565b5f604051905090565b5f80fd5b5f80fd5b5f80fd5b5f80fd5b5f601f19601f8301169050919050565b7f4e487b71000000000000000000000000000000000000000000000000000000005f52604160045260245ffd5b610315826102cf565b810181811067ffffffffffffffff82111715610334576103336102df565b5b80604052505050565b5f6103466102b6565b9050610352828261030c565b919050565b5f67ffffffffffffffff821115610371576103706102df565b5b61037a826102cf565b9050602081019050919050565b8281835e5f83830152505050565b5f6103a76103a284610357565b61033d565b9050828152602081018484840111156103c3576103c26102cb565b5b6103ce848285610387565b509392505050565b5f82601f8301126103ea576103e96102c7565b5b81516103fa848260208601610395565b91505092915050565b5f60208284031215610418576104176102bf565b5b5f82015167ffffffffffffffff811115610435576104346102c3565b5b610441848285016103d6565b91505092915050565b5f81519050919050565b7f4e487b71000000000000000000000000000000000000000000000000000000005f52602260045260245ffd5b5f600282049050600182168061049857607f821691505b6020821081036104ab576104aa610454565b5b50919050565b5f819050815f5260205f209050919050565b5f6020601f8301049050919050565b5f82821b905092915050565b5f6008830261050d7fffffffffffffffffffffffffffffffffffffffffffffffffffffffffffffffff826104d2565b61051786836104d2565b95508019841693508086168417925050509392505050565b5f819050919050565b5f819050919050565b5f61055b6105566105518461052f565b610538565b61052f565b9050919050565b5f819050919050565b61057483610541565b61058861058082610562565b8484546104de565b825550505050565b5f90565b61059c610590565b6105a781848461056b565b505050565b5b818110156105ca576105bf5f82610594565b6001810190506105ad565b5050565b601f82111561060f576105e0816104b1565b6105e9846104c3565b810160208510156105f8578190505b61060c610604856104c3565b8301826105ac565b50505b505050565b5f82821c905092915050565b5f61062f5f1984600802610614565b1980831691505092915050565b5f6106478383610620565b9150826002028217905092915050565b6106608261044a565b67ffffffffffffffff811115610679576106786102df565b5b6106838254610481565b61068e8282856105ce565b5f60209050601f8311600181146106bf575f84156106ad578287015190505b6106b7858261063c565b86555061071e565b601f1984166106cd866104b1565b5f5b828110156106f4578489015182556001820191506020850194506020810190506106cf565b86831015610711578489015161070d601f891682610620565b8355505b6001600288020188555050505b505050505050565b5f819050919050565b61073881610726565b82525050565b6107478161052f565b82525050565b5f73ffffffffffffffffffffffffffffffffffffffff82169050919050565b5f6107768261074d565b9050919050565b6107868161076c565b82525050565b5f60a08201905061079f5f83018861072f565b6107ac602083018761072f565b6107b9604083018661072f565b6107c6606083018561073e565b6107d3608083018461077d565b9695505050505050565b5f82825260208201905092915050565b5f6107f78261044a565b61080181856107dd565b9350610811818560208601610387565b61081a816102cf565b840191505092915050565b5f6020820190508181035f83015261083d81846107ed565b905092915050565b5f81519050919050565b5f819050602082019050919050565b5f6108698251610726565b80915050919050565b5f61087c82610845565b826108868461084f565b90506108918161085e565b925060208210156108d1576108cc7fffffffffffffffffffffffffffffffffffffffffffffffffffffffffffffffff836020036008026104d2565b831692505b5050919050565b60805160a05160c05160e0516101005161012051610140516117456109295f395f61053001525f6104f501525f610c6f01525f610c4e01525f6107fd01525f61085301525f61087c01526117455ff3fe608060405234801561000f575f80fd5b5060043610610055575f3560e01c806306fdde0314610059578063313ce567146100775780637ba0e2e71461009557806384b0196e146100b15780638ff9e2f5146100d5575b5f80fd5b610061610105565b60405161006e9190610e64565b60405180910390f35b61007f610191565b60405161008c9190610e9f565b60405180910390f35b6100af60048036038101906100aa9190610f2a565b610196565b005b6100b9610284565b6040516100cc97969594939291906110d5565b60405180910390f35b6100ef60048036038101906100ea9190611181565b610329565b6040516100fc9190611230565b60405180910390f35b600380546101129061127d565b80601f016020809104026020016040519081016040528092919081815260200182805461013e9061127d565b80156101895780601f1061016057610100808354040283529160200191610189565b820191905f5260205f20905b81548152906001019060200180831161016c57829003601f168201915b505050505081565b601281565b5f6101e383838080601f0160208091040260200160405190810160405280939291908181526020018383808284375f81840152601f19601f82011690508083019250505050505050610494565b905061022c60055f3373ffffffffffffffffffffffffffffffffffffffff1673ffffffffffffffffffffffffffffffffffffffff1681526020019081526020015f2054826104a7565b60055f3373ffffffffffffffffffffffffffffffffffffffff1673ffffffffffffffffffffffffffffffffffffffff1681526020019081526020015f2081905550610279600254826104a7565b600281905550505050565b5f6060805f805f60606102956104ed565b61029d610527565b46305f801b5f67ffffffffffffffff8111156102bc576102bb6112ad565b5b6040519080825280602002602001820160405280156102ea5781602001602082028036833780820191505090505b507f0f00000000000000000000000000000000000000000000000000000000000000959493929190965096509650965096509650965090919293949596565b60608383838080601f0160208091040260200160405190810160405280939291908181526020018383808284375f81840152601f19601f820116905080830192505050505050505f6103c27f051d137ae0e1fae6e3b6559fed4442b35a85a9a39789838ad5c9ea05e7da2dce846040516020016103a79291906112da565b60405160208183030381529060405280519060200120610562565b90505f6103cf828461057b565b90503373ffffffffffffffffffffffffffffffffffffffff168173ffffffffffffffffffffffffffffffffffffffff161461043f576040517f08c379a000000000000000000000000000000000000000000000000000000000815260040161043690611371565b60405180910390fd5b61048760055f3373ffffffffffffffffffffffffffffffffffffffff1673ffffffffffffffffffffffffffffffffffffffff1681526020019081526020015f2054895f6105a5565b9450505050509392505050565b5f6104a08260026105e1565b9050919050565b5f6104b18361068c565b6104c1576104be5f610698565b92505b6104ca8261068c565b6104da576104d75f610698565b91505b6104e583835f6106ab565b905092915050565b60606105225f7f000000000000000000000000000000000000000000000000000000000000000061074d90919063ffffffff16565b905090565b606061055d60017f000000000000000000000000000000000000000000000000000000000000000061074d90919063ffffffff16565b905090565b5f61057461056e6107fa565b836108b0565b9050919050565b5f805f8061058986866108f0565b9250925092506105998282610945565b82935050505092915050565b60605f84146105bf576105b88484610aa7565b90506105da565b6105d76105d18363ffffffff16610698565b84610aa7565b90505b9392505050565b5f80838360f81b6040516020016105f99291906113e9565b6040516020818303038152906040529050605d73ffffffffffffffffffffffffffffffffffffffff16634b252ec8826040518263ffffffff1660e01b81526004016106449190611230565b602060405180830381865afa15801561065f573d5f803e3d5ffd5b505050506040513d601f19601f82011682018060405250810190610683919061143a565b91505092915050565b5f808214159050919050565b5f6106a4826002610b31565b9050919050565b5f8082156106bf57600160f81b90506106c6565b5f60f81b90505b605d73ffffffffffffffffffffffffffffffffffffffff1663f953e4278686846040518463ffffffff1660e01b815260040161070493929190611465565b602060405180830381865afa15801561071f573d5f803e3d5ffd5b505050506040513d601f19601f82011682018060405250810190610743919061143a565b9150509392505050565b606060ff5f1b83146107695761076283610bb8565b90506107f4565b8180546107759061127d565b80601f01602080910402602001604051908101604052809291908181526020018280546107a19061127d565b80156107ec5780601f106107c3576101008083540402835291602001916107ec565b820191905f5260205f20905b8154815290600101906020018083116107cf57829003601f168201915b505050505090505b92915050565b5f7f000000000000000000000000000000000000000000000000000000000000000073ffffffffffffffffffffffffffffffffffffffff163073ffffffffffffffffffffffffffffffffffffffff1614801561087557507f000000000000000000000000000000000000000000000000000000000000000046145b156108a2577f000000000000000000000000000000000000000000000000000000000000000090506108ad565b6108aa610c2a565b90505b90565b5f6040517f190100000000000000000000000000000000000000000000000000000000000081528360028201528260228201526042812091505092915050565b5f805f6041845103610930575f805f602087015192506040870151915060608701515f1a905061092288828585610cbf565b95509550955050505061093e565b5f600285515f1b9250925092505b9250925092565b5f60038111156109585761095761149a565b5b82600381111561096b5761096a61149a565b5b0315610aa357600160038111156109855761098461149a565b5b8260038111156109985761099761149a565b5b036109cf576040517ff645eedf00000000000000000000000000000000000000000000000000000000815260040160405180910390fd5b600260038111156109e3576109e261149a565b5b8260038111156109f6576109f561149a565b5b03610a3a57805f1c6040517ffce698f7000000000000000000000000000000000000000000000000000000008152600401610a3191906114c7565b60405180910390fd5b600380811115610a4d57610a4c61149a565b5b826003811115610a6057610a5f61149a565b5b03610aa257806040517fd78bce0c000000000000000000000000000000000000000000000000000000008152600401610a9991906114e0565b60405180910390fd5b5b5050565b6060605d73ffffffffffffffffffffffffffffffffffffffff1663d6ad57cd84845f1c6040518363ffffffff1660e01b8152600401610ae79291906114f9565b5f60405180830381865afa158015610b01573d5f803e3d5ffd5b505050506040513d5f823e3d601f19601f82011682018060405250810190610b29919061160d565b905092915050565b5f605d73ffffffffffffffffffffffffffffffffffffffff1663e71746b8848460f81b6040518363ffffffff1660e01b8152600401610b71929190611654565b602060405180830381865afa158015610b8c573d5f803e3d5ffd5b505050506040513d601f19601f82011682018060405250810190610bb0919061143a565b905092915050565b60605f610bc483610da6565b90505f602067ffffffffffffffff811115610be257610be16112ad565b5b6040519080825280601f01601f191660200182016040528015610c145781602001600182028036833780820191505090505b5090508181528360208201528092505050919050565b5f7f8b73c3c69bb8fe3d512ecc4cf759cc79239f7b179b0ffacaa9a75d522b39400f7f00000000000000000000000000000000000000000000000000000000000000007f00000000000000000000000000000000000000000000000000000000000000004630604051602001610ca495949392919061167b565b60405160208183030381529060405280519060200120905090565b5f805f7f7fffffffffffffffffffffffffffffff5d576e7357a4501ddfe92f46681b20a0845f1c1115610cfb575f600385925092509250610d9c565b5f6001888888886040515f8152602001604052604051610d1e94939291906116cc565b6020604051602081039080840390855afa158015610d3e573d5f803e3d5ffd5b5050506020604051035190505f73ffffffffffffffffffffffffffffffffffffffff168173ffffffffffffffffffffffffffffffffffffffff1603610d8f575f60015f801b93509350935050610d9c565b805f805f1b935093509350505b9450945094915050565b5f8060ff835f1c169050601f811115610deb576040517fb3512b0c00000000000000000000000000000000000000000000000000000000815260040160405180910390fd5b80915050919050565b5f81519050919050565b5f82825260208201905092915050565b8281835e5f83830152505050565b5f601f19601f8301169050919050565b5f610e3682610df4565b610e408185610dfe565b9350610e50818560208601610e0e565b610e5981610e1c565b840191505092915050565b5f6020820190508181035f830152610e7c8184610e2c565b905092915050565b5f60ff82169050919050565b610e9981610e84565b82525050565b5f602082019050610eb25f830184610e90565b92915050565b5f604051905090565b5f80fd5b5f80fd5b5f80fd5b5f80fd5b5f80fd5b5f8083601f840112610eea57610ee9610ec9565b5b8235905067ffffffffffffffff811115610f0757610f06610ecd565b5b602083019150836001820283011115610f2357610f22610ed1565b5b9250929050565b5f8060208385031215610f4057610f3f610ec1565b5b5f83013567ffffffffffffffff811115610f5d57610f5c610ec5565b5b610f6985828601610ed5565b92509250509250929050565b5f7fff0000000000000000000000000000000000000000000000000000000000000082169050919050565b610fa981610f75565b82525050565b5f819050919050565b610fc181610faf565b82525050565b5f73ffffffffffffffffffffffffffffffffffffffff82169050919050565b5f610ff082610fc7565b9050919050565b61100081610fe6565b82525050565b5f819050919050565b61101881611006565b82525050565b5f81519050919050565b5f82825260208201905092915050565b5f819050602082019050919050565b61105081610faf565b82525050565b5f6110618383611047565b60208301905092915050565b5f602082019050919050565b5f6110838261101e565b61108d8185611028565b935061109883611038565b805f5b838110156110c85781516110af8882611056565b97506110ba8361106d565b92505060018101905061109b565b5085935050505092915050565b5f60e0820190506110e85f83018a610fa0565b81810360208301526110fa8189610e2c565b9050818103604083015261110e8188610e2c565b905061111d6060830187610fb8565b61112a6080830186610ff7565b61113760a083018561100f565b81810360c08301526111498184611079565b905098975050505050505050565b61116081611006565b811461116a575f80fd5b50565b5f8135905061117b81611157565b92915050565b5f805f6040848603121561119857611197610ec1565b5b5f6111a58682870161116d565b935050602084013567ffffffffffffffff8111156111c6576111c5610ec5565b5b6111d286828701610ed5565b92509250509250925092565b5f81519050919050565b5f82825260208201905092915050565b5f611202826111de565b61120c81856111e8565b935061121c818560208601610e0e565b61122581610e1c565b840191505092915050565b5f6020820190508181035f83015261124881846111f8565b905092915050565b7f4e487b71000000000000000000000000000000000000000000000000000000005f52602260045260245ffd5b5f600282049050600182168061129457607f821691505b6020821081036112a7576112a6611250565b5b50919050565b7f4e487b71000000000000000000000000000000000000000000000000000000005f52604160045260245ffd5b5f6040820190506112ed5f83018561100f565b6112fa602083018461100f565b9392505050565b7f454950373132207369676e657220616e64207472616e73616374696f6e2073695f8201527f676e657220646f206e6f74206d61746368000000000000000000000000000000602082015250565b5f61135b603183610dfe565b915061136682611301565b604082019050919050565b5f6020820190508181035f8301526113888161134f565b9050919050565b5f81905092915050565b5f6113a3826111de565b6113ad818561138f565b93506113bd818560208601610e0e565b80840191505092915050565b5f819050919050565b6113e36113de82610f75565b6113c9565b82525050565b5f6113f48285611399565b915061140082846113d2565b6001820191508190509392505050565b61141981610faf565b8114611423575f80fd5b50565b5f8151905061143481611410565b92915050565b5f6020828403121561144f5761144e610ec1565b5b5f61145c84828501611426565b91505092915050565b5f6060820190506114785f830186610fb8565b6114856020830185610fb8565b6114926040830184610fa0565b949350505050565b7f4e487b71000000000000000000000000000000000000000000000000000000005f52602160045260245ffd5b5f6020820190506114da5f830184610fb8565b92915050565b5f6020820190506114f35f83018461100f565b92915050565b5f60408201905061150c5f830185610fb8565b6115196020830184610fb8565b9392505050565b5f80fd5b61152d82610e1c565b810181811067ffffffffffffffff8211171561154c5761154b6112ad565b5b80604052505050565b5f61155e610eb8565b905061156a8282611524565b919050565b5f67ffffffffffffffff821115611589576115886112ad565b5b61159282610e1c565b9050602081019050919050565b5f6115b16115ac8461156f565b611555565b9050828152602081018484840111156115cd576115cc611520565b5b6115d8848285610e0e565b509392505050565b5f82601f8301126115f4576115f3610ec9565b5b815161160484826020860161159f565b91505092915050565b5f6020828403121561162257611621610ec1565b5b5f82015167ffffffffffffffff81111561163f5761163e610ec5565b5b61164b848285016115e0565b91505092915050565b5f6040820190506116675f830185610fb8565b6116746020830184610fa0565b9392505050565b5f60a08201905061168e5f83018861100f565b61169b602083018761100f565b6116a8604083018661100f565b6116b56060830185610fb8565b6116c26080830184610ff7565b9695505050505050565b5f6080820190506116df5f83018761100f565b6116ec6020830186610e90565b6116f9604083018561100f565b611706606083018461100f565b9594505050505056fea2646970667358221220a9d3c37e5edc601a8259b974e3d558d83f980396449f9de544b9132e4b08a30364736f6c634300081a0033a264697066735822122025fb151e740c6ad3552e55754ffa9e003b5dcab12a9eca32f835e13d3bdf7da964736f6c634300081a0033",
			"opcodes": "PUSH2 0x160 PUSH1 0x40 MSTORE PUSH1 0x64 PUSH1 0x6 PUSH1 0x14 PUSH2 0x100 EXP DUP2 SLOAD DUP2 PUSH4 0xFFFFFFFF MUL NOT AND SWAP1 DUP4 PUSH4 0xFFFFFFFF AND MUL OR SWAP1 SSTORE POP CALLVALUE DUP1 ISZERO PUSH2 0x32 JUMPI PUSH0 DUP1 REVERT JUMPDEST POP PUSH1 0x40 MLOAD PUSH2 0x6511 CODESIZE SUB DUP1 PUSH2 0x6511 DUP4 CODECOPY DUP2 DUP2 ADD PUSH1 0x40 MSTORE DUP2 ADD SWAP1 PUSH2 0x54 SWAP2 SWAP1 PUSH2 0x326 JUMP JUMPDEST PUSH1 0x40 MLOAD DUP1 PUSH1 0x40 ADD PUSH1 0x40 MSTORE DUP1 PUSH1 0x13 DUP2 MSTORE PUSH1 0x20 ADD PUSH32 0x417574686F72697A6174696F6E20746F6B656E00000000000000000000000000 DUP2 MSTORE POP PUSH1 0x40 MLOAD DUP1 PUSH1 0x40 ADD PUSH1 0x40 MSTORE DUP1 PUSH1 0x1 DUP2 MSTORE PUSH1 0x20 ADD PUSH32 0x3100000000000000000000000000000000000000000000000000000000000000 DUP2 MSTORE POP DUP2 DUP2 PUSH2 0xD5 PUSH0 DUP4 PUSH2 0x1B3 PUSH1 0x20 SHL SWAP1 SWAP2 SWAP1 PUSH1 0x20 SHR JUMP JUMPDEST PUSH2 0x120 DUP2 DUP2 MSTORE POP POP PUSH2 0xF1 PUSH1 0x1 DUP3 PUSH2 0x1B3 PUSH1 0x20 SHL SWAP1 SWAP2 SWAP1 PUSH1 0x20 SHR JUMP JUMPDEST PUSH2 0x140 DUP2 DUP2 MSTORE POP POP DUP2 DUP1 MLOAD SWAP1 PUSH1 0x20 ADD KECCAK256 PUSH1 0xE0 DUP2 DUP2 MSTORE POP POP DUP1 DUP1 MLOAD SWAP1 PUSH1 0x20 ADD KECCAK256 PUSH2 0x100 DUP2 DUP2 MSTORE POP POP CHAINID PUSH1 0xA0 DUP2 DUP2 MSTORE POP POP PUSH2 0x12E PUSH2 0x200 PUSH1 0x20 SHL PUSH1 0x20 SHR JUMP JUMPDEST PUSH1 0x80 DUP2 DUP2 MSTORE POP POP ADDRESS PUSH20 0xFFFFFFFFFFFFFFFFFFFFFFFFFFFFFFFFFFFFFFFF AND PUSH1 0xC0 DUP2 PUSH20 0xFFFFFFFFFFFFFFFFFFFFFFFFFFFFFFFFFFFFFFFF AND DUP2 MSTORE POP POP POP POP POP POP DUP1 PUSH1 0x6 PUSH0 PUSH2 0x100 EXP DUP2 SLOAD DUP2 PUSH20 0xFFFFFFFFFFFFFFFFFFFFFFFFFFFFFFFFFFFFFFFF MUL NOT AND SWAP1 DUP4 PUSH20 0xFFFFFFFFFFFFFFFFFFFFFFFFFFFFFFFFFFFFFFFF AND MUL OR SWAP1 SSTORE POP POP PUSH2 0x7FA JUMP JUMPDEST PUSH0 PUSH1 0x20 DUP4 MLOAD LT ISZERO PUSH2 0x1D4 JUMPI PUSH2 0x1CD DUP4 PUSH2 0x25A PUSH1 0x20 SHL PUSH1 0x20 SHR JUMP JUMPDEST SWAP1 POP PUSH2 0x1FA JUMP JUMPDEST DUP3 PUSH2 0x1E4 DUP4 PUSH2 0x2BF PUSH1 0x20 SHL PUSH1 0x20 SHR JUMP JUMPDEST PUSH0 ADD SWAP1 DUP2 PUSH2 0x1F2 SWAP2 SWAP1 PUSH2 0x58B JUMP JUMPDEST POP PUSH1 0xFF PUSH0 SHL SWAP1 POP JUMPDEST SWAP3 SWAP2 POP POP JUMP JUMPDEST PUSH0 PUSH32 0x8B73C3C69BB8FE3D512ECC4CF759CC79239F7B179B0FFACAA9A75D522B39400F PUSH1 0xE0 MLOAD PUSH2 0x100 MLOAD CHAINID ADDRESS PUSH1 0x40 MLOAD PUSH1 0x20 ADD PUSH2 0x23F SWAP6 SWAP5 SWAP4 SWAP3 SWAP2 SWAP1 PUSH2 0x690 JUMP JUMPDEST PUSH1 0x40 MLOAD PUSH1 0x20 DUP2 DUP4 SUB SUB DUP2 MSTORE SWAP1 PUSH1 0x40 MSTORE DUP1 MLOAD SWAP1 PUSH1 0x20 ADD KECCAK256 SWAP1 POP SWAP1 JUMP JUMPDEST PUSH0 DUP1 DUP3 SWAP1 POP PUSH1 0x1F DUP2 MLOAD GT ISZERO PUSH2 0x2A6 JUMPI DUP3 PUSH1 0x40 MLOAD PUSH32 0x305A27A900000000000000000000000000000000000000000000000000000000 DUP2 MSTORE PUSH1 0x4 ADD PUSH2 0x29D SWAP2 SWAP1 PUSH2 0x747 JUMP JUMPDEST PUSH1 0x40 MLOAD DUP1 SWAP2 SUB SWAP1 REVERT JUMPDEST DUP1 MLOAD DUP2 PUSH2 0x2B2 SWAP1 PUSH2 0x794 JUMP JUMPDEST PUSH0 SHR OR PUSH0 SHL SWAP2 POP POP SWAP2 SWAP1 POP JUMP JUMPDEST PUSH0 DUP2 SWAP1 POP SWAP2 SWAP1 POP JUMP JUMPDEST PUSH0 DUP1 REVERT JUMPDEST PUSH0 PUSH20 0xFFFFFFFFFFFFFFFFFFFFFFFFFFFFFFFFFFFFFFFF DUP3 AND SWAP1 POP SWAP2 SWAP1 POP JUMP JUMPDEST PUSH0 PUSH2 0x2F5 DUP3 PUSH2 0x2CC JUMP JUMPDEST SWAP1 POP SWAP2 SWAP1 POP JUMP JUMPDEST PUSH2 0x305 DUP2 PUSH2 0x2EB JUMP JUMPDEST DUP2 EQ PUSH2 0x30F JUMPI PUSH0 DUP1 REVERT JUMPDEST POP JUMP JUMPDEST PUSH0 DUP2 MLOAD SWAP1 POP PUSH2 0x320 DUP2 PUSH2 0x2FC JUMP JUMPDEST SWAP3 SWAP2 POP POP JUMP JUMPDEST PUSH0 PUSH1 0x20 DUP3 DUP5 SUB SLT ISZERO PUSH2 0x33B JUMPI PUSH2 0x33A PUSH2 0x2C8 JUMP JUMPDEST JUMPDEST PUSH0 PUSH2 0x348 DUP5 DUP3 DUP6 ADD PUSH2 0x312 JUMP JUMPDEST SWAP2 POP POP SWAP3 SWAP2 POP POP JUMP JUMPDEST PUSH0 DUP2 MLOAD SWAP1 POP SWAP2 SWAP1 POP JUMP JUMPDEST PUSH32 0x4E487B7100000000000000000000000000000000000000000000000000000000 PUSH0 MSTORE PUSH1 0x41 PUSH1 0x4 MSTORE PUSH1 0x24 PUSH0 REVERT JUMPDEST PUSH32 0x4E487B7100000000000000000000000000000000000000000000000000000000 PUSH0 MSTORE PUSH1 0x22 PUSH1 0x4 MSTORE PUSH1 0x24 PUSH0 REVERT JUMPDEST PUSH0 PUSH1 0x2 DUP3 DIV SWAP1 POP PUSH1 0x1 DUP3 AND DUP1 PUSH2 0x3CC JUMPI PUSH1 0x7F DUP3 AND SWAP2 POP JUMPDEST PUSH1 0x20 DUP3 LT DUP2 SUB PUSH2 0x3DF JUMPI PUSH2 0x3DE PUSH2 0x388 JUMP JUMPDEST JUMPDEST POP SWAP2 SWAP1 POP JUMP JUMPDEST PUSH0 DUP2 SWAP1 POP DUP2 PUSH0 MSTORE PUSH1 0x20 PUSH0 KECCAK256 SWAP1 POP SWAP2 SWAP1 POP JUMP JUMPDEST PUSH0 PUSH1 0x20 PUSH1 0x1F DUP4 ADD DIV SWAP1 POP SWAP2 SWAP1 POP JUMP JUMPDEST PUSH0 DUP3 DUP3 SHL SWAP1 POP SWAP3 SWAP2 POP POP JUMP JUMPDEST PUSH0 PUSH1 0x8 DUP4 MUL PUSH2 0x441 PUSH32 0xFFFFFFFFFFFFFFFFFFFFFFFFFFFFFFFFFFFFFFFFFFFFFFFFFFFFFFFFFFFFFFFF DUP3 PUSH2 0x406 JUMP JUMPDEST PUSH2 0x44B DUP7 DUP4 PUSH2 0x406 JUMP JUMPDEST SWAP6 POP DUP1 NOT DUP5 AND SWAP4 POP DUP1 DUP7 AND DUP5 OR SWAP3 POP POP POP SWAP4 SWAP3 POP POP POP JUMP JUMPDEST PUSH0 DUP2 SWAP1 POP SWAP2 SWAP1 POP JUMP JUMPDEST PUSH0 DUP2 SWAP1 POP SWAP2 SWAP1 POP JUMP JUMPDEST PUSH0 PUSH2 0x48F PUSH2 0x48A PUSH2 0x485 DUP5 PUSH2 0x463 JUMP JUMPDEST PUSH2 0x46C JUMP JUMPDEST PUSH2 0x463 JUMP JUMPDEST SWAP1 POP SWAP2 SWAP1 POP JUMP JUMPDEST PUSH0 DUP2 SWAP1 POP SWAP2 SWAP1 POP JUMP JUMPDEST PUSH2 0x4A8 DUP4 PUSH2 0x475 JUMP JUMPDEST PUSH2 0x4BC PUSH2 0x4B4 DUP3 PUSH2 0x496 JUMP JUMPDEST DUP5 DUP5 SLOAD PUSH2 0x412 JUMP JUMPDEST DUP3 SSTORE POP POP POP POP JUMP JUMPDEST PUSH0 SWAP1 JUMP JUMPDEST PUSH2 0x4D0 PUSH2 0x4C4 JUMP JUMPDEST PUSH2 0x4DB DUP2 DUP5 DUP5 PUSH2 0x49F JUMP JUMPDEST POP POP POP JUMP JUMPDEST JUMPDEST DUP2 DUP2 LT ISZERO PUSH2 0x4FE JUMPI PUSH2 0x4F3 PUSH0 DUP3 PUSH2 0x4C8 JUMP JUMPDEST PUSH1 0x1 DUP2 ADD SWAP1 POP PUSH2 0x4E1 JUMP JUMPDEST POP POP JUMP JUMPDEST PUSH1 0x1F DUP3 GT ISZERO PUSH2 0x543 JUMPI PUSH2 0x514 DUP2 PUSH2 0x3E5 JUMP JUMPDEST PUSH2 0x51D DUP5 PUSH2 0x3F7 JUMP JUMPDEST DUP2 ADD PUSH1 0x20 DUP6 LT ISZERO PUSH2 0x52C JUMPI DUP2 SWAP1 POP JUMPDEST PUSH2 0x540 PUSH2 0x538 DUP6 PUSH2 0x3F7 JUMP JUMPDEST DUP4 ADD DUP3 PUSH2 0x4E0 JUMP JUMPDEST POP POP JUMPDEST POP POP POP JUMP JUMPDEST PUSH0 DUP3 DUP3 SHR SWAP1 POP SWAP3 SWAP2 POP POP JUMP JUMPDEST PUSH0 PUSH2 0x563 PUSH0 NOT DUP5 PUSH1 0x8 MUL PUSH2 0x548 JUMP JUMPDEST NOT DUP1 DUP4 AND SWAP2 POP POP SWAP3 SWAP2 POP POP JUMP JUMPDEST PUSH0 PUSH2 0x57B DUP4 DUP4 PUSH2 0x554 JUMP JUMPDEST SWAP2 POP DUP3 PUSH1 0x2 MUL DUP3 OR SWAP1 POP SWAP3 SWAP2 POP POP JUMP JUMPDEST PUSH2 0x594 DUP3 PUSH2 0x351 JUMP JUMPDEST PUSH8 0xFFFFFFFFFFFFFFFF DUP2 GT ISZERO PUSH2 0x5AD JUMPI PUSH2 0x5AC PUSH2 0x35B JUMP JUMPDEST JUMPDEST PUSH2 0x5B7 DUP3 SLOAD PUSH2 0x3B5 JUMP JUMPDEST PUSH2 0x5C2 DUP3 DUP3 DUP6 PUSH2 0x502 JUMP JUMPDEST PUSH0 PUSH1 0x20 SWAP1 POP PUSH1 0x1F DUP4 GT PUSH1 0x1 DUP2 EQ PUSH2 0x5F3 JUMPI PUSH0 DUP5 ISZERO PUSH2 0x5E1 JUMPI DUP3 DUP8 ADD MLOAD SWAP1 POP JUMPDEST PUSH2 0x5EB DUP6 DUP3 PUSH2 0x570 JUMP JUMPDEST DUP7 SSTORE POP PUSH2 0x652 JUMP JUMPDEST PUSH1 0x1F NOT DUP5 AND PUSH2 0x601 DUP7 PUSH2 0x3E5 JUMP JUMPDEST PUSH0 JUMPDEST DUP3 DUP2 LT ISZERO PUSH2 0x628 JUMPI DUP5 DUP10 ADD MLOAD DUP3 SSTORE PUSH1 0x1 DUP3 ADD SWAP2 POP PUSH1 0x20 DUP6 ADD SWAP5 POP PUSH1 0x20 DUP2 ADD SWAP1 POP PUSH2 0x603 JUMP JUMPDEST DUP7 DUP4 LT ISZERO PUSH2 0x645 JUMPI DUP5 DUP10 ADD MLOAD PUSH2 0x641 PUSH1 0x1F DUP10 AND DUP3 PUSH2 0x554 JUMP JUMPDEST DUP4 SSTORE POP JUMPDEST PUSH1 0x1 PUSH1 0x2 DUP9 MUL ADD DUP9 SSTORE POP POP POP JUMPDEST POP POP POP POP POP POP JUMP JUMPDEST PUSH0 DUP2 SWAP1 POP SWAP2 SWAP1 POP JUMP JUMPDEST PUSH2 0x66C DUP2 PUSH2 0x65A JUMP JUMPDEST DUP3 MSTORE POP POP JUMP JUMPDEST PUSH2 0x67B DUP2 PUSH2 0x463 JUMP JUMPDEST DUP3 MSTORE POP POP JUMP JUMPDEST PUSH2 0x68A DUP2 PUSH2 0x2EB JUMP JUMPDEST DUP3 MSTORE POP POP JUMP JUMPDEST PUSH0 PUSH1 0xA0 DUP3 ADD SWAP1 POP PUSH2 0x6A3 PUSH0 DUP4 ADD DUP9 PUSH2 0x663 JUMP JUMPDEST PUSH2 0x6B0 PUSH1 0x20 DUP4 ADD DUP8 PUSH2 0x663 JUMP JUMPDEST PUSH2 0x6BD PUSH1 0x40 DUP4 ADD DUP7 PUSH2 0x663 JUMP JUMPDEST PUSH2 0x6CA PUSH1 0x60 DUP4 ADD DUP6 PUSH2 0x672 JUMP JUMPDEST PUSH2 0x6D7 PUSH1 0x80 DUP4 ADD DUP5 PUSH2 0x681 JUMP JUMPDEST SWAP7 SWAP6 POP POP POP POP POP POP JUMP JUMPDEST PUSH0 DUP3 DUP3 MSTORE PUSH1 0x20 DUP3 ADD SWAP1 POP SWAP3 SWAP2 POP POP JUMP JUMPDEST DUP3 DUP2 DUP4 MCOPY PUSH0 DUP4 DUP4 ADD MSTORE POP POP POP JUMP JUMPDEST PUSH0 PUSH1 0x1F NOT PUSH1 0x1F DUP4 ADD AND SWAP1 POP SWAP2 SWAP1 POP JUMP JUMPDEST PUSH0 PUSH2 0x719 DUP3 PUSH2 0x351 JUMP JUMPDEST PUSH2 0x723 DUP2 DUP6 PUSH2 0x6E1 JUMP JUMPDEST SWAP4 POP PUSH2 0x733 DUP2 DUP6 PUSH1 0x20 DUP7 ADD PUSH2 0x6F1 JUMP JUMPDEST PUSH2 0x73C DUP2 PUSH2 0x6FF JUMP JUMPDEST DUP5 ADD SWAP2 POP POP SWAP3 SWAP2 POP POP JUMP JUMPDEST PUSH0 PUSH1 0x20 DUP3 ADD SWAP1 POP DUP2 DUP2 SUB PUSH0 DUP4 ADD MSTORE PUSH2 0x75F DUP2 DUP5 PUSH2 0x70F JUMP JUMPDEST SWAP1 POP SWAP3 SWAP2 POP POP JUMP JUMPDEST PUSH0 DUP2 MLOAD SWAP1 POP SWAP2 SWAP1 POP JUMP JUMPDEST PUSH0 DUP2 SWAP1 POP PUSH1 0x20 DUP3 ADD SWAP1 POP SWAP2 SWAP1 POP JUMP JUMPDEST PUSH0 PUSH2 0x78B DUP3 MLOAD PUSH2 0x65A JUMP JUMPDEST DUP1 SWAP2 POP POP SWAP2 SWAP1 POP JUMP JUMPDEST PUSH0 PUSH2 0x79E DUP3 PUSH2 0x767 JUMP JUMPDEST DUP3 PUSH2 0x7A8 DUP5 PUSH2 0x771 JUMP JUMPDEST SWAP1 POP PUSH2 0x7B3 DUP2 PUSH2 0x780 JUMP JUMPDEST SWAP3 POP PUSH1 0x20 DUP3 LT ISZERO PUSH2 0x7F3 JUMPI PUSH2 0x7EE PUSH32 0xFFFFFFFFFFFFFFFFFFFFFFFFFFFFFFFFFFFFFFFFFFFFFFFFFFFFFFFFFFFFFFFF DUP4 PUSH1 0x20 SUB PUSH1 0x8 MUL PUSH2 0x406 JUMP JUMPDEST DUP4 AND SWAP3 POP JUMPDEST POP POP SWAP2 SWAP1 POP JUMP JUMPDEST PUSH1 0x80 MLOAD PUSH1 0xA0 MLOAD PUSH1 0xC0 MLOAD PUSH1 0xE0 MLOAD PUSH2 0x100 MLOAD PUSH2 0x120 MLOAD PUSH2 0x140 MLOAD PUSH2 0x5CD5 PUSH2 0x83C PUSH0 CODECOPY PUSH0 PUSH2 0x219E ADD MSTORE PUSH0 PUSH2 0x2163 ADD MSTORE PUSH0 POP POP PUSH0 POP POP PUSH0 POP POP PUSH0 POP POP PUSH0 POP POP PUSH2 0x5CD5 PUSH0 RETURN INVALID PUSH1 0x80 PUSH1 0x40 MSTORE CALLVALUE DUP1 ISZERO PUSH2 0xF JUMPI PUSH0 DUP1 REVERT JUMPDEST POP PUSH1 0x4 CALLDATASIZE LT PUSH2 0x114 JUMPI PUSH0 CALLDATALOAD PUSH1 0xE0 SHR DUP1 PUSH4 0x7E51BF4B GT PUSH2 0xA0 JUMPI DUP1 PUSH4 0xA27E53DF GT PUSH2 0x6F JUMPI DUP1 PUSH4 0xA27E53DF EQ PUSH2 0x33B JUMPI DUP1 PUSH4 0xC036596A EQ PUSH2 0x36B JUMPI DUP1 PUSH4 0xC705AB18 EQ PUSH2 0x39B JUMPI DUP1 PUSH4 0xE93A5B98 EQ PUSH2 0x3CB JUMPI DUP1 PUSH4 0xF057A5D1 EQ PUSH2 0x400 JUMPI PUSH2 0x114 JUMP JUMPDEST DUP1 PUSH4 0x7E51BF4B EQ PUSH2 0x299 JUMPI DUP1 PUSH4 0x84B0196E EQ PUSH2 0x2B7 JUMPI DUP1 PUSH4 0x937F0860 EQ PUSH2 0x2DB JUMPI DUP1 PUSH4 0x978DC9FD EQ PUSH2 0x30B JUMPI PUSH2 0x114 JUMP JUMPDEST DUP1 PUSH4 0x283F03F0 GT PUSH2 0xE7 JUMPI DUP1 PUSH4 0x283F03F0 EQ PUSH2 0x1CB JUMPI DUP1 PUSH4 0x3DEE0C50 EQ PUSH2 0x1E7 JUMPI DUP1 PUSH4 0x548EAC04 EQ PUSH2 0x217 JUMPI DUP1 PUSH4 0x59C87D70 EQ PUSH2 0x24D JUMPI DUP1 PUSH4 0x670D14B2 EQ PUSH2 0x269 JUMPI PUSH2 0x114 JUMP JUMPDEST DUP1 PUSH4 0x164D6C4 EQ PUSH2 0x118 JUMPI DUP1 PUSH4 0x280FFB6 EQ PUSH2 0x148 JUMPI DUP1 PUSH4 0x1C08248F EQ PUSH2 0x164 JUMPI DUP1 PUSH4 0x22E1F50E EQ PUSH2 0x19B JUMPI JUMPDEST PUSH0 DUP1 REVERT JUMPDEST PUSH2 0x132 PUSH1 0x4 DUP1 CALLDATASIZE SUB DUP2 ADD SWAP1 PUSH2 0x12D SWAP2 SWAP1 PUSH2 0x2983 JUMP JUMPDEST PUSH2 0x41C JUMP JUMPDEST PUSH1 0x40 MLOAD PUSH2 0x13F SWAP2 SWAP1 PUSH2 0x2B5C JUMP JUMPDEST PUSH1 0x40 MLOAD DUP1 SWAP2 SUB SWAP1 RETURN JUMPDEST PUSH2 0x162 PUSH1 0x4 DUP1 CALLDATASIZE SUB DUP2 ADD SWAP1 PUSH2 0x15D SWAP2 SWAP1 PUSH2 0x2BDD JUMP JUMPDEST PUSH2 0x5BF JUMP JUMPDEST STOP JUMPDEST PUSH2 0x17E PUSH1 0x4 DUP1 CALLDATASIZE SUB DUP2 ADD SWAP1 PUSH2 0x179 SWAP2 SWAP1 PUSH2 0x2C3A JUMP JUMPDEST PUSH2 0xB1D JUMP JUMPDEST PUSH1 0x40 MLOAD PUSH2 0x192 SWAP9 SWAP8 SWAP7 SWAP6 SWAP5 SWAP4 SWAP3 SWAP2 SWAP1 PUSH2 0x2CFC JUMP JUMPDEST PUSH1 0x40 MLOAD DUP1 SWAP2 SUB SWAP1 RETURN JUMPDEST PUSH2 0x1B5 PUSH1 0x4 DUP1 CALLDATASIZE SUB DUP2 ADD SWAP1 PUSH2 0x1B0 SWAP2 SWAP1 PUSH2 0x2D7F JUMP JUMPDEST PUSH2 0xC20 JUMP JUMPDEST PUSH1 0x40 MLOAD PUSH2 0x1C2 SWAP2 SWAP1 PUSH2 0x2DB9 JUMP JUMPDEST PUSH1 0x40 MLOAD DUP1 SWAP2 SUB SWAP1 RETURN JUMPDEST PUSH2 0x1E5 PUSH1 0x4 DUP1 CALLDATASIZE SUB DUP2 ADD SWAP1 PUSH2 0x1E0 SWAP2 SWAP1 PUSH2 0x2F29 JUMP JUMPDEST PUSH2 0xC66 JUMP JUMPDEST STOP JUMPDEST PUSH2 0x201 PUSH1 0x4 DUP1 CALLDATASIZE SUB DUP2 ADD SWAP1 PUSH2 0x1FC SWAP2 SWAP1 PUSH2 0x3018 JUMP JUMPDEST PUSH2 0xCC3 JUMP JUMPDEST PUSH1 0x40 MLOAD PUSH2 0x20E SWAP2 SWAP1 PUSH2 0x308C JUMP JUMPDEST PUSH1 0x40 MLOAD DUP1 SWAP2 SUB SWAP1 RETURN JUMPDEST PUSH2 0x231 PUSH1 0x4 DUP1 CALLDATASIZE SUB DUP2 ADD SWAP1 PUSH2 0x22C SWAP2 SWAP1 PUSH2 0x30A5 JUMP JUMPDEST PUSH2 0xEF3 JUMP JUMPDEST PUSH1 0x40 MLOAD PUSH2 0x244 SWAP8 SWAP7 SWAP6 SWAP5 SWAP4 SWAP3 SWAP2 SWAP1 PUSH2 0x30D0 JUMP JUMPDEST PUSH1 0x40 MLOAD DUP1 SWAP2 SUB SWAP1 RETURN JUMPDEST PUSH2 0x267 PUSH1 0x4 DUP1 CALLDATASIZE SUB DUP2 ADD SWAP1 PUSH2 0x262 SWAP2 SWAP1 PUSH2 0x30A5 JUMP JUMPDEST PUSH2 0xF31 JUMP JUMPDEST STOP JUMPDEST PUSH2 0x283 PUSH1 0x4 DUP1 CALLDATASIZE SUB DUP2 ADD SWAP1 PUSH2 0x27E SWAP2 SWAP1 PUSH2 0x2D7F JUMP JUMPDEST PUSH2 0x142A JUMP JUMPDEST PUSH1 0x40 MLOAD PUSH2 0x290 SWAP2 SWAP1 PUSH2 0x2DB9 JUMP JUMPDEST PUSH1 0x40 MLOAD DUP1 SWAP2 SUB SWAP1 RETURN JUMPDEST PUSH2 0x2A1 PUSH2 0x143F JUMP JUMPDEST PUSH1 0x40 MLOAD PUSH2 0x2AE SWAP2 SWAP1 PUSH2 0x313D JUMP JUMPDEST PUSH1 0x40 MLOAD DUP1 SWAP2 SUB SWAP1 RETURN JUMPDEST PUSH2 0x2BF PUSH2 0x1464 JUMP JUMPDEST PUSH1 0x40 MLOAD PUSH2 0x2D2 SWAP8 SWAP7 SWAP6 SWAP5 SWAP4 SWAP3 SWAP2 SWAP1 PUSH2 0x3256 JUMP JUMPDEST PUSH1 0x40 MLOAD DUP1 SWAP2 SUB SWAP1 RETURN JUMPDEST PUSH2 0x2F5 PUSH1 0x4 DUP1 CALLDATASIZE SUB DUP2 ADD SWAP1 PUSH2 0x2F0 SWAP2 SWAP1 PUSH2 0x30A5 JUMP JUMPDEST PUSH2 0x1509 JUMP JUMPDEST PUSH1 0x40 MLOAD PUSH2 0x302 SWAP2 SWAP1 PUSH2 0x3351 JUMP JUMPDEST PUSH1 0x40 MLOAD DUP1 SWAP2 SUB SWAP1 RETURN JUMPDEST PUSH2 0x325 PUSH1 0x4 DUP1 CALLDATASIZE SUB DUP2 ADD SWAP1 PUSH2 0x320 SWAP2 SWAP1 PUSH2 0x3394 JUMP JUMPDEST PUSH2 0x1605 JUMP JUMPDEST PUSH1 0x40 MLOAD PUSH2 0x332 SWAP2 SWAP1 PUSH2 0x2DB9 JUMP JUMPDEST PUSH1 0x40 MLOAD DUP1 SWAP2 SUB SWAP1 RETURN JUMPDEST PUSH2 0x355 PUSH1 0x4 DUP1 CALLDATASIZE SUB DUP2 ADD SWAP1 PUSH2 0x350 SWAP2 SWAP1 PUSH2 0x2C3A JUMP JUMPDEST PUSH2 0x1904 JUMP JUMPDEST PUSH1 0x40 MLOAD PUSH2 0x362 SWAP2 SWAP1 PUSH2 0x308C JUMP JUMPDEST PUSH1 0x40 MLOAD DUP1 SWAP2 SUB SWAP1 RETURN JUMPDEST PUSH2 0x385 PUSH1 0x4 DUP1 CALLDATASIZE SUB DUP2 ADD SWAP1 PUSH2 0x380 SWAP2 SWAP1 PUSH2 0x33EE JUMP JUMPDEST PUSH2 0x192E JUMP JUMPDEST PUSH1 0x40 MLOAD PUSH2 0x392 SWAP2 SWAP1 PUSH2 0x313D JUMP JUMPDEST PUSH1 0x40 MLOAD DUP1 SWAP2 SUB SWAP1 RETURN JUMPDEST PUSH2 0x3B5 PUSH1 0x4 DUP1 CALLDATASIZE SUB DUP2 ADD SWAP1 PUSH2 0x3B0 SWAP2 SWAP1 PUSH2 0x33EE JUMP JUMPDEST PUSH2 0x1976 JUMP JUMPDEST PUSH1 0x40 MLOAD PUSH2 0x3C2 SWAP2 SWAP1 PUSH2 0x313D JUMP JUMPDEST PUSH1 0x40 MLOAD DUP1 SWAP2 SUB SWAP1 RETURN JUMPDEST PUSH2 0x3E5 PUSH1 0x4 DUP1 CALLDATASIZE SUB DUP2 ADD SWAP1 PUSH2 0x3E0 SWAP2 SWAP1 PUSH2 0x30A5 JUMP JUMPDEST PUSH2 0x19CA JUMP JUMPDEST PUSH1 0x40 MLOAD PUSH2 0x3F7 SWAP7 SWAP6 SWAP5 SWAP4 SWAP3 SWAP2 SWAP1 PUSH2 0x342C JUMP JUMPDEST PUSH1 0x40 MLOAD DUP1 SWAP2 SUB SWAP1 RETURN JUMPDEST PUSH2 0x41A PUSH1 0x4 DUP1 CALLDATASIZE SUB DUP2 ADD SWAP1 PUSH2 0x415 SWAP2 SWAP1 PUSH2 0x348B JUMP JUMPDEST PUSH2 0x1A40 JUMP JUMPDEST STOP JUMPDEST PUSH2 0x424 PUSH2 0x2822 JUMP JUMPDEST PUSH1 0x4 PUSH0 DUP4 DUP2 MSTORE PUSH1 0x20 ADD SWAP1 DUP2 MSTORE PUSH1 0x20 ADD PUSH0 KECCAK256 PUSH0 DUP5 PUSH20 0xFFFFFFFFFFFFFFFFFFFFFFFFFFFFFFFFFFFFFFFF AND PUSH20 0xFFFFFFFFFFFFFFFFFFFFFFFFFFFFFFFFFFFFFFFF AND DUP2 MSTORE PUSH1 0x20 ADD SWAP1 DUP2 MSTORE PUSH1 0x20 ADD PUSH0 KECCAK256 PUSH1 0x40 MLOAD DUP1 PUSH2 0x100 ADD PUSH1 0x40 MSTORE SWAP1 DUP2 PUSH0 DUP3 ADD DUP1 SLOAD PUSH2 0x48B SWAP1 PUSH2 0x3524 JUMP JUMPDEST DUP1 PUSH1 0x1F ADD PUSH1 0x20 DUP1 SWAP2 DIV MUL PUSH1 0x20 ADD PUSH1 0x40 MLOAD SWAP1 DUP2 ADD PUSH1 0x40 MSTORE DUP1 SWAP3 SWAP2 SWAP1 DUP2 DUP2 MSTORE PUSH1 0x20 ADD DUP3 DUP1 SLOAD PUSH2 0x4B7 SWAP1 PUSH2 0x3524 JUMP JUMPDEST DUP1 ISZERO PUSH2 0x502 JUMPI DUP1 PUSH1 0x1F LT PUSH2 0x4D9 JUMPI PUSH2 0x100 DUP1 DUP4 SLOAD DIV MUL DUP4 MSTORE SWAP2 PUSH1 0x20 ADD SWAP2 PUSH2 0x502 JUMP JUMPDEST DUP3 ADD SWAP2 SWAP1 PUSH0 MSTORE PUSH1 0x20 PUSH0 KECCAK256 SWAP1 JUMPDEST DUP2 SLOAD DUP2 MSTORE SWAP1 PUSH1 0x1 ADD SWAP1 PUSH1 0x20 ADD DUP1 DUP4 GT PUSH2 0x4E5 JUMPI DUP3 SWAP1 SUB PUSH1 0x1F AND DUP3 ADD SWAP2 JUMPDEST POP POP POP POP POP DUP2 MSTORE PUSH1 0x20 ADD PUSH1 0x1 DUP3 ADD PUSH0 SWAP1 SLOAD SWAP1 PUSH2 0x100 EXP SWAP1 DIV PUSH20 0xFFFFFFFFFFFFFFFFFFFFFFFFFFFFFFFFFFFFFFFF AND PUSH20 0xFFFFFFFFFFFFFFFFFFFFFFFFFFFFFFFFFFFFFFFF AND PUSH20 0xFFFFFFFFFFFFFFFFFFFFFFFFFFFFFFFFFFFFFFFF AND DUP2 MSTORE PUSH1 0x20 ADD PUSH1 0x2 DUP3 ADD SLOAD DUP2 MSTORE PUSH1 0x20 ADD PUSH1 0x3 DUP3 ADD SLOAD DUP2 MSTORE PUSH1 0x20 ADD PUSH1 0x4 DUP3 ADD SLOAD DUP2 MSTORE PUSH1 0x20 ADD PUSH1 0x5 DUP3 ADD SLOAD DUP2 MSTORE PUSH1 0x20 ADD PUSH1 0x6 DUP3 ADD PUSH0 SWAP1 SLOAD SWAP1 PUSH2 0x100 EXP SWAP1 DIV PUSH4 0xFFFFFFFF AND PUSH4 0xFFFFFFFF AND PUSH4 0xFFFFFFFF AND DUP2 MSTORE PUSH1 0x20 ADD PUSH1 0x7 DUP3 ADD SLOAD DUP2 MSTORE POP POP SWAP1 POP SWAP3 SWAP2 POP POP JUMP JUMPDEST PUSH0 PUSH2 0x60C DUP5 DUP5 DUP1 DUP1 PUSH1 0x1F ADD PUSH1 0x20 DUP1 SWAP2 DIV MUL PUSH1 0x20 ADD PUSH1 0x40 MLOAD SWAP1 DUP2 ADD PUSH1 0x40 MSTORE DUP1 SWAP4 SWAP3 SWAP2 SWAP1 DUP2 DUP2 MSTORE PUSH1 0x20 ADD DUP4 DUP4 DUP1 DUP3 DUP5 CALLDATACOPY PUSH0 DUP2 DUP5 ADD MSTORE PUSH1 0x1F NOT PUSH1 0x1F DUP3 ADD AND SWAP1 POP DUP1 DUP4 ADD SWAP3 POP POP POP POP POP POP POP PUSH2 0x2039 JUMP JUMPDEST SWAP1 POP PUSH0 PUSH1 0x4 PUSH0 DUP5 DUP2 MSTORE PUSH1 0x20 ADD SWAP1 DUP2 MSTORE PUSH1 0x20 ADD PUSH0 KECCAK256 PUSH0 CALLER PUSH20 0xFFFFFFFFFFFFFFFFFFFFFFFFFFFFFFFFFFFFFFFF AND PUSH20 0xFFFFFFFFFFFFFFFFFFFFFFFFFFFFFFFFFFFFFFFF AND DUP2 MSTORE PUSH1 0x20 ADD SWAP1 DUP2 MSTORE PUSH1 0x20 ADD PUSH0 KECCAK256 PUSH1 0x40 MLOAD DUP1 PUSH2 0x100 ADD PUSH1 0x40 MSTORE SWAP1 DUP2 PUSH0 DUP3 ADD DUP1 SLOAD PUSH2 0x676 SWAP1 PUSH2 0x3524 JUMP JUMPDEST DUP1 PUSH1 0x1F ADD PUSH1 0x20 DUP1 SWAP2 DIV MUL PUSH1 0x20 ADD PUSH1 0x40 MLOAD SWAP1 DUP2 ADD PUSH1 0x40 MSTORE DUP1 SWAP3 SWAP2 SWAP1 DUP2 DUP2 MSTORE PUSH1 0x20 ADD DUP3 DUP1 SLOAD PUSH2 0x6A2 SWAP1 PUSH2 0x3524 JUMP JUMPDEST DUP1 ISZERO PUSH2 0x6ED JUMPI DUP1 PUSH1 0x1F LT PUSH2 0x6C4 JUMPI PUSH2 0x100 DUP1 DUP4 SLOAD DIV MUL DUP4 MSTORE SWAP2 PUSH1 0x20 ADD SWAP2 PUSH2 0x6ED JUMP JUMPDEST DUP3 ADD SWAP2 SWAP1 PUSH0 MSTORE PUSH1 0x20 PUSH0 KECCAK256 SWAP1 JUMPDEST DUP2 SLOAD DUP2 MSTORE SWAP1 PUSH1 0x1 ADD SWAP1 PUSH1 0x20 ADD DUP1 DUP4 GT PUSH2 0x6D0 JUMPI DUP3 SWAP1 SUB PUSH1 0x1F AND DUP3 ADD SWAP2 JUMPDEST POP POP POP POP POP DUP2 MSTORE PUSH1 0x20 ADD PUSH1 0x1 DUP3 ADD PUSH0 SWAP1 SLOAD SWAP1 PUSH2 0x100 EXP SWAP1 DIV PUSH20 0xFFFFFFFFFFFFFFFFFFFFFFFFFFFFFFFFFFFFFFFF AND PUSH20 0xFFFFFFFFFFFFFFFFFFFFFFFFFFFFFFFFFFFFFFFF AND PUSH20 0xFFFFFFFFFFFFFFFFFFFFFFFFFFFFFFFFFFFFFFFF AND DUP2 MSTORE PUSH1 0x20 ADD PUSH1 0x2 DUP3 ADD SLOAD DUP2 MSTORE PUSH1 0x20 ADD PUSH1 0x3 DUP3 ADD SLOAD DUP2 MSTORE PUSH1 0x20 ADD PUSH1 0x4 DUP3 ADD SLOAD DUP2 MSTORE PUSH1 0x20 ADD PUSH1 0x5 DUP3 ADD SLOAD DUP2 MSTORE PUSH1 0x20 ADD PUSH1 0x6 DUP3 ADD PUSH0 SWAP1 SLOAD SWAP1 PUSH2 0x100 EXP SWAP1 DIV PUSH4 0xFFFFFFFF AND PUSH4 0xFFFFFFFF AND PUSH4 0xFFFFFFFF AND DUP2 MSTORE PUSH1 0x20 ADD PUSH1 0x7 DUP3 ADD SLOAD DUP2 MSTORE POP POP SWAP1 POP PUSH0 DUP2 PUSH1 0x60 ADD MLOAD SWAP1 POP PUSH0 PUSH1 0x2 PUSH0 DUP7 DUP2 MSTORE PUSH1 0x20 ADD SWAP1 DUP2 MSTORE PUSH1 0x20 ADD PUSH0 KECCAK256 PUSH1 0x40 MLOAD DUP1 PUSH1 0xC0 ADD PUSH1 0x40 MSTORE SWAP1 DUP2 PUSH0 DUP3 ADD SLOAD DUP2 MSTORE PUSH1 0x20 ADD PUSH1 0x1 DUP3 ADD PUSH0 SWAP1 SLOAD SWAP1 PUSH2 0x100 EXP SWAP1 DIV PUSH20 0xFFFFFFFFFFFFFFFFFFFFFFFFFFFFFFFFFFFFFFFF AND PUSH20 0xFFFFFFFFFFFFFFFFFFFFFFFFFFFFFFFFFFFFFFFF AND PUSH20 0xFFFFFFFFFFFFFFFFFFFFFFFFFFFFFFFFFFFFFFFF AND DUP2 MSTORE PUSH1 0x20 ADD PUSH1 0x2 DUP3 ADD SLOAD DUP2 MSTORE PUSH1 0x20 ADD PUSH1 0x3 DUP3 ADD SLOAD DUP2 MSTORE PUSH1 0x20 ADD PUSH1 0x4 DUP3 ADD SLOAD DUP2 MSTORE PUSH1 0x20 ADD PUSH1 0x5 DUP3 ADD PUSH0 SWAP1 SLOAD SWAP1 PUSH2 0x100 EXP SWAP1 DIV PUSH20 0xFFFFFFFFFFFFFFFFFFFFFFFFFFFFFFFFFFFFFFFF AND PUSH20 0xFFFFFFFFFFFFFFFFFFFFFFFFFFFFFFFFFFFFFFFF AND PUSH20 0xFFFFFFFFFFFFFFFFFFFFFFFFFFFFFFFFFFFFFFFF AND DUP2 MSTORE POP POP SWAP1 POP PUSH2 0x8AA DUP4 PUSH1 0x80 ADD MLOAD DUP6 PUSH2 0x204C JUMP JUMPDEST DUP4 PUSH1 0x80 ADD DUP2 DUP2 MSTORE POP POP PUSH2 0x8C5 PUSH2 0x8C0 DUP4 DUP7 PUSH2 0x2092 JUMP JUMPDEST PUSH2 0x20E1 JUMP JUMPDEST PUSH2 0x8DF PUSH2 0x8DA DUP5 PUSH1 0x40 ADD MLOAD DUP6 PUSH1 0x80 ADD MLOAD PUSH2 0x2092 JUMP JUMPDEST PUSH2 0x20E1 JUMP JUMPDEST DUP1 PUSH1 0xA0 ADD MLOAD PUSH20 0xFFFFFFFFFFFFFFFFFFFFFFFFFFFFFFFFFFFFFFFF AND PUSH4 0x7BA0E2E7 DUP9 DUP9 PUSH1 0x40 MLOAD DUP4 PUSH4 0xFFFFFFFF AND PUSH1 0xE0 SHL DUP2 MSTORE PUSH1 0x4 ADD PUSH2 0x91E SWAP3 SWAP2 SWAP1 PUSH2 0x3590 JUMP JUMPDEST PUSH0 PUSH1 0x40 MLOAD DUP1 DUP4 SUB DUP2 PUSH0 DUP8 DUP1 EXTCODESIZE ISZERO DUP1 ISZERO PUSH2 0x935 JUMPI PUSH0 DUP1 REVERT JUMPDEST POP GAS CALL ISZERO DUP1 ISZERO PUSH2 0x947 JUMPI RETURNDATASIZE PUSH0 DUP1 RETURNDATACOPY RETURNDATASIZE PUSH0 REVERT JUMPDEST POP POP POP POP DUP3 PUSH1 0x4 PUSH0 DUP8 DUP2 MSTORE PUSH1 0x20 ADD SWAP1 DUP2 MSTORE PUSH1 0x20 ADD PUSH0 KECCAK256 PUSH0 CALLER PUSH20 0xFFFFFFFFFFFFFFFFFFFFFFFFFFFFFFFFFFFFFFFF AND PUSH20 0xFFFFFFFFFFFFFFFFFFFFFFFFFFFFFFFFFFFFFFFF AND DUP2 MSTORE PUSH1 0x20 ADD SWAP1 DUP2 MSTORE PUSH1 0x20 ADD PUSH0 KECCAK256 PUSH0 DUP3 ADD MLOAD DUP2 PUSH0 ADD SWAP1 DUP2 PUSH2 0x9AB SWAP2 SWAP1 PUSH2 0x3725 JUMP JUMPDEST POP PUSH1 0x20 DUP3 ADD MLOAD DUP2 PUSH1 0x1 ADD PUSH0 PUSH2 0x100 EXP DUP2 SLOAD DUP2 PUSH20 0xFFFFFFFFFFFFFFFFFFFFFFFFFFFFFFFFFFFFFFFF MUL NOT AND SWAP1 DUP4 PUSH20 0xFFFFFFFFFFFFFFFFFFFFFFFFFFFFFFFFFFFFFFFF AND MUL OR SWAP1 SSTORE POP PUSH1 0x40 DUP3 ADD MLOAD DUP2 PUSH1 0x2 ADD SSTORE PUSH1 0x60 DUP3 ADD MLOAD DUP2 PUSH1 0x3 ADD SSTORE PUSH1 0x80 DUP3 ADD MLOAD DUP2 PUSH1 0x4 ADD SSTORE PUSH1 0xA0 DUP3 ADD MLOAD DUP2 PUSH1 0x5 ADD SSTORE PUSH1 0xC0 DUP3 ADD MLOAD DUP2 PUSH1 0x6 ADD PUSH0 PUSH2 0x100 EXP DUP2 SLOAD DUP2 PUSH4 0xFFFFFFFF MUL NOT AND SWAP1 DUP4 PUSH4 0xFFFFFFFF AND MUL OR SWAP1 SSTORE POP PUSH1 0xE0 DUP3 ADD MLOAD DUP2 PUSH1 0x7 ADD SSTORE SWAP1 POP POP DUP1 PUSH1 0x2 PUSH0 DUP8 DUP2 MSTORE PUSH1 0x20 ADD SWAP1 DUP2 MSTORE PUSH1 0x20 ADD PUSH0 KECCAK256 PUSH0 DUP3 ADD MLOAD DUP2 PUSH0 ADD SSTORE PUSH1 0x20 DUP3 ADD MLOAD DUP2 PUSH1 0x1 ADD PUSH0 PUSH2 0x100 EXP DUP2 SLOAD DUP2 PUSH20 0xFFFFFFFFFFFFFFFFFFFFFFFFFFFFFFFFFFFFFFFF MUL NOT AND SWAP1 DUP4 PUSH20 0xFFFFFFFFFFFFFFFFFFFFFFFFFFFFFFFFFFFFFFFF AND MUL OR SWAP1 SSTORE POP PUSH1 0x40 DUP3 ADD MLOAD DUP2 PUSH1 0x2 ADD SSTORE PUSH1 0x60 DUP3 ADD MLOAD DUP2 PUSH1 0x3 ADD SSTORE PUSH1 0x80 DUP3 ADD MLOAD DUP2 PUSH1 0x4 ADD SSTORE PUSH1 0xA0 DUP3 ADD MLOAD DUP2 PUSH1 0x5 ADD PUSH0 PUSH2 0x100 EXP DUP2 SLOAD DUP2 PUSH20 0xFFFFFFFFFFFFFFFFFFFFFFFFFFFFFFFFFFFFFFFF MUL NOT AND SWAP1 DUP4 PUSH20 0xFFFFFFFFFFFFFFFFFFFFFFFFFFFFFFFFFFFFFFFF AND MUL OR SWAP1 SSTORE POP SWAP1 POP POP POP POP POP POP POP POP POP JUMP JUMPDEST PUSH1 0x4 PUSH1 0x20 MSTORE DUP2 PUSH0 MSTORE PUSH1 0x40 PUSH0 KECCAK256 PUSH1 0x20 MSTORE DUP1 PUSH0 MSTORE PUSH1 0x40 PUSH0 KECCAK256 PUSH0 SWAP2 POP SWAP2 POP POP DUP1 PUSH0 ADD DUP1 SLOAD PUSH2 0xB47 SWAP1 PUSH2 0x3524 JUMP JUMPDEST DUP1 PUSH1 0x1F ADD PUSH1 0x20 DUP1 SWAP2 DIV MUL PUSH1 0x20 ADD PUSH1 0x40 MLOAD SWAP1 DUP2 ADD PUSH1 0x40 MSTORE DUP1 SWAP3 SWAP2 SWAP1 DUP2 DUP2 MSTORE PUSH1 0x20 ADD DUP3 DUP1 SLOAD PUSH2 0xB73 SWAP1 PUSH2 0x3524 JUMP JUMPDEST DUP1 ISZERO PUSH2 0xBBE JUMPI DUP1 PUSH1 0x1F LT PUSH2 0xB95 JUMPI PUSH2 0x100 DUP1 DUP4 SLOAD DIV MUL DUP4 MSTORE SWAP2 PUSH1 0x20 ADD SWAP2 PUSH2 0xBBE JUMP JUMPDEST DUP3 ADD SWAP2 SWAP1 PUSH0 MSTORE PUSH1 0x20 PUSH0 KECCAK256 SWAP1 JUMPDEST DUP2 SLOAD DUP2 MSTORE SWAP1 PUSH1 0x1 ADD SWAP1 PUSH1 0x20 ADD DUP1 DUP4 GT PUSH2 0xBA1 JUMPI DUP3 SWAP1 SUB PUSH1 0x1F AND DUP3 ADD SWAP2 JUMPDEST POP POP POP POP POP SWAP1 DUP1 PUSH1 0x1 ADD PUSH0 SWAP1 SLOAD SWAP1 PUSH2 0x100 EXP SWAP1 DIV PUSH20 0xFFFFFFFFFFFFFFFFFFFFFFFFFFFFFFFFFFFFFFFF AND SWAP1 DUP1 PUSH1 0x2 ADD SLOAD SWAP1 DUP1 PUSH1 0x3 ADD SLOAD SWAP1 DUP1 PUSH1 0x4 ADD SLOAD SWAP1 DUP1 PUSH1 0x5 ADD SLOAD SWAP1 DUP1 PUSH1 0x6 ADD PUSH0 SWAP1 SLOAD SWAP1 PUSH2 0x100 EXP SWAP1 DIV PUSH4 0xFFFFFFFF AND SWAP1 DUP1 PUSH1 0x7 ADD SLOAD SWAP1 POP DUP9 JUMP JUMPDEST PUSH0 PUSH1 0x7 PUSH0 DUP4 PUSH20 0xFFFFFFFFFFFFFFFFFFFFFFFFFFFFFFFFFFFFFFFF AND PUSH20 0xFFFFFFFFFFFFFFFFFFFFFFFFFFFFFFFFFFFFFFFF AND DUP2 MSTORE PUSH1 0x20 ADD SWAP1 DUP2 MSTORE PUSH1 0x20 ADD PUSH0 KECCAK256 SLOAD SWAP1 POP SWAP2 SWAP1 POP JUMP JUMPDEST DUP2 PUSH1 0x5 PUSH0 DUP4 DUP2 MSTORE PUSH1 0x20 ADD SWAP1 DUP2 MSTORE PUSH1 0x20 ADD PUSH0 KECCAK256 PUSH0 DUP3 ADD MLOAD DUP2 PUSH0 ADD SSTORE PUSH1 0x20 DUP3 ADD MLOAD DUP2 PUSH1 0x1 ADD SSTORE PUSH1 0x40 DUP3 ADD MLOAD DUP2 PUSH1 0x2 ADD SSTORE PUSH1 0x60 DUP3 ADD MLOAD DUP2 PUSH1 0x3 ADD SSTORE PUSH1 0x80 DUP3 ADD MLOAD DUP2 PUSH1 0x4 ADD SSTORE PUSH1 0xA0 DUP3 ADD MLOAD DUP2 PUSH1 0x5 ADD SSTORE PUSH1 0xC0 DUP3 ADD MLOAD DUP2 PUSH1 0x6 ADD SSTORE SWAP1 POP POP POP POP JUMP JUMPDEST PUSH0 DUP1 DUP4 PUSH1 0x40 MLOAD PUSH2 0xCD2 SWAP1 PUSH2 0x287C JUMP JUMPDEST PUSH2 0xCDC SWAP2 SWAP1 PUSH2 0x37F4 JUMP JUMPDEST PUSH1 0x40 MLOAD DUP1 SWAP2 SUB SWAP1 PUSH0 CREATE DUP1 ISZERO DUP1 ISZERO PUSH2 0xCF5 JUMPI RETURNDATASIZE PUSH0 DUP1 RETURNDATACOPY RETURNDATASIZE PUSH0 REVERT JUMPDEST POP SWAP1 POP PUSH0 PUSH1 0x2 PUSH0 DUP6 DUP2 MSTORE PUSH1 0x20 ADD SWAP1 DUP2 MSTORE PUSH1 0x20 ADD PUSH0 KECCAK256 PUSH1 0x40 MLOAD DUP1 PUSH1 0xC0 ADD PUSH1 0x40 MSTORE SWAP1 DUP2 PUSH0 DUP3 ADD SLOAD DUP2 MSTORE PUSH1 0x20 ADD PUSH1 0x1 DUP3 ADD PUSH0 SWAP1 SLOAD SWAP1 PUSH2 0x100 EXP SWAP1 DIV PUSH20 0xFFFFFFFFFFFFFFFFFFFFFFFFFFFFFFFFFFFFFFFF AND PUSH20 0xFFFFFFFFFFFFFFFFFFFFFFFFFFFFFFFFFFFFFFFF AND PUSH20 0xFFFFFFFFFFFFFFFFFFFFFFFFFFFFFFFFFFFFFFFF AND DUP2 MSTORE PUSH1 0x20 ADD PUSH1 0x2 DUP3 ADD SLOAD DUP2 MSTORE PUSH1 0x20 ADD PUSH1 0x3 DUP3 ADD SLOAD DUP2 MSTORE PUSH1 0x20 ADD PUSH1 0x4 DUP3 ADD SLOAD DUP2 MSTORE PUSH1 0x20 ADD PUSH1 0x5 DUP3 ADD PUSH0 SWAP1 SLOAD SWAP1 PUSH2 0x100 EXP SWAP1 DIV PUSH20 0xFFFFFFFFFFFFFFFFFFFFFFFFFFFFFFFFFFFFFFFF AND PUSH20 0xFFFFFFFFFFFFFFFFFFFFFFFFFFFFFFFFFFFFFFFF AND PUSH20 0xFFFFFFFFFFFFFFFFFFFFFFFFFFFFFFFFFFFFFFFF AND DUP2 MSTORE POP POP SWAP1 POP DUP2 DUP2 PUSH1 0xA0 ADD SWAP1 PUSH20 0xFFFFFFFFFFFFFFFFFFFFFFFFFFFFFFFFFFFFFFFF AND SWAP1 DUP2 PUSH20 0xFFFFFFFFFFFFFFFFFFFFFFFFFFFFFFFFFFFFFFFF AND DUP2 MSTORE POP POP DUP1 PUSH1 0x2 PUSH0 DUP7 DUP2 MSTORE PUSH1 0x20 ADD SWAP1 DUP2 MSTORE PUSH1 0x20 ADD PUSH0 KECCAK256 PUSH0 DUP3 ADD MLOAD DUP2 PUSH0 ADD SSTORE PUSH1 0x20 DUP3 ADD MLOAD DUP2 PUSH1 0x1 ADD PUSH0 PUSH2 0x100 EXP DUP2 SLOAD DUP2 PUSH20 0xFFFFFFFFFFFFFFFFFFFFFFFFFFFFFFFFFFFFFFFF MUL NOT AND SWAP1 DUP4 PUSH20 0xFFFFFFFFFFFFFFFFFFFFFFFFFFFFFFFFFFFFFFFF AND MUL OR SWAP1 SSTORE POP PUSH1 0x40 DUP3 ADD MLOAD DUP2 PUSH1 0x2 ADD SSTORE PUSH1 0x60 DUP3 ADD MLOAD DUP2 PUSH1 0x3 ADD SSTORE PUSH1 0x80 DUP3 ADD MLOAD DUP2 PUSH1 0x4 ADD SSTORE PUSH1 0xA0 DUP3 ADD MLOAD DUP2 PUSH1 0x5 ADD PUSH0 PUSH2 0x100 EXP DUP2 SLOAD DUP2 PUSH20 0xFFFFFFFFFFFFFFFFFFFFFFFFFFFFFFFFFFFFFFFF MUL NOT AND SWAP1 DUP4 PUSH20 0xFFFFFFFFFFFFFFFFFFFFFFFFFFFFFFFFFFFFFFFF AND MUL OR SWAP1 SSTORE POP SWAP1 POP POP PUSH1 0x1 SWAP3 POP POP POP SWAP3 SWAP2 POP POP JUMP JUMPDEST PUSH1 0x5 PUSH1 0x20 MSTORE DUP1 PUSH0 MSTORE PUSH1 0x40 PUSH0 KECCAK256 PUSH0 SWAP2 POP SWAP1 POP DUP1 PUSH0 ADD SLOAD SWAP1 DUP1 PUSH1 0x1 ADD SLOAD SWAP1 DUP1 PUSH1 0x2 ADD SLOAD SWAP1 DUP1 PUSH1 0x3 ADD SLOAD SWAP1 DUP1 PUSH1 0x4 ADD SLOAD SWAP1 DUP1 PUSH1 0x5 ADD SLOAD SWAP1 DUP1 PUSH1 0x6 ADD SLOAD SWAP1 POP DUP8 JUMP JUMPDEST PUSH0 PUSH1 0x5 PUSH0 DUP4 DUP2 MSTORE PUSH1 0x20 ADD SWAP1 DUP2 MSTORE PUSH1 0x20 ADD PUSH0 KECCAK256 PUSH1 0x40 MLOAD DUP1 PUSH1 0xE0 ADD PUSH1 0x40 MSTORE SWAP1 DUP2 PUSH0 DUP3 ADD SLOAD DUP2 MSTORE PUSH1 0x20 ADD PUSH1 0x1 DUP3 ADD SLOAD DUP2 MSTORE PUSH1 0x20 ADD PUSH1 0x2 DUP3 ADD SLOAD DUP2 MSTORE PUSH1 0x20 ADD PUSH1 0x3 DUP3 ADD SLOAD DUP2 MSTORE PUSH1 0x20 ADD PUSH1 0x4 DUP3 ADD SLOAD DUP2 MSTORE PUSH1 0x20 ADD PUSH1 0x5 DUP3 ADD SLOAD DUP2 MSTORE PUSH1 0x20 ADD PUSH1 0x6 DUP3 ADD SLOAD DUP2 MSTORE POP POP SWAP1 POP PUSH0 PUSH1 0x4 PUSH0 DUP5 DUP2 MSTORE PUSH1 0x20 ADD SWAP1 DUP2 MSTORE PUSH1 0x20 ADD PUSH0 KECCAK256 PUSH0 CALLER PUSH20 0xFFFFFFFFFFFFFFFFFFFFFFFFFFFFFFFFFFFFFFFF AND PUSH20 0xFFFFFFFFFFFFFFFFFFFFFFFFFFFFFFFFFFFFFFFF AND DUP2 MSTORE PUSH1 0x20 ADD SWAP1 DUP2 MSTORE PUSH1 0x20 ADD PUSH0 KECCAK256 PUSH1 0x40 MLOAD DUP1 PUSH2 0x100 ADD PUSH1 0x40 MSTORE SWAP1 DUP2 PUSH0 DUP3 ADD DUP1 SLOAD PUSH2 0xFFD SWAP1 PUSH2 0x3524 JUMP JUMPDEST DUP1 PUSH1 0x1F ADD PUSH1 0x20 DUP1 SWAP2 DIV MUL PUSH1 0x20 ADD PUSH1 0x40 MLOAD SWAP1 DUP2 ADD PUSH1 0x40 MSTORE DUP1 SWAP3 SWAP2 SWAP1 DUP2 DUP2 MSTORE PUSH1 0x20 ADD DUP3 DUP1 SLOAD PUSH2 0x1029 SWAP1 PUSH2 0x3524 JUMP JUMPDEST DUP1 ISZERO PUSH2 0x1074 JUMPI DUP1 PUSH1 0x1F LT PUSH2 0x104B JUMPI PUSH2 0x100 DUP1 DUP4 SLOAD DIV MUL DUP4 MSTORE SWAP2 PUSH1 0x20 ADD SWAP2 PUSH2 0x1074 JUMP JUMPDEST DUP3 ADD SWAP2 SWAP1 PUSH0 MSTORE PUSH1 0x20 PUSH0 KECCAK256 SWAP1 JUMPDEST DUP2 SLOAD DUP2 MSTORE SWAP1 PUSH1 0x1 ADD SWAP1 PUSH1 0x20 ADD DUP1 DUP4 GT PUSH2 0x1057 JUMPI DUP3 SWAP1 SUB PUSH1 0x1F AND DUP3 ADD SWAP2 JUMPDEST POP POP POP POP POP DUP2 MSTORE PUSH1 0x20 ADD PUSH1 0x1 DUP3 ADD PUSH0 SWAP1 SLOAD SWAP1 PUSH2 0x100 EXP SWAP1 DIV PUSH20 0xFFFFFFFFFFFFFFFFFFFFFFFFFFFFFFFFFFFFFFFF AND PUSH20 0xFFFFFFFFFFFFFFFFFFFFFFFFFFFFFFFFFFFFFFFF AND PUSH20 0xFFFFFFFFFFFFFFFFFFFFFFFFFFFFFFFFFFFFFFFF AND DUP2 MSTORE PUSH1 0x20 ADD PUSH1 0x2 DUP3 ADD SLOAD DUP2 MSTORE PUSH1 0x20 ADD PUSH1 0x3 DUP3 ADD SLOAD DUP2 MSTORE PUSH1 0x20 ADD PUSH1 0x4 DUP3 ADD SLOAD DUP2 MSTORE PUSH1 0x20 ADD PUSH1 0x5 DUP3 ADD SLOAD DUP2 MSTORE PUSH1 0x20 ADD PUSH1 0x6 DUP3 ADD PUSH0 SWAP1 SLOAD SWAP1 PUSH2 0x100 EXP SWAP1 DIV PUSH4 0xFFFFFFFF AND PUSH4 0xFFFFFFFF AND PUSH4 0xFFFFFFFF AND DUP2 MSTORE PUSH1 0x20 ADD PUSH1 0x7 DUP3 ADD SLOAD DUP2 MSTORE POP POP SWAP1 POP PUSH0 PUSH1 0x2 PUSH0 DUP6 DUP2 MSTORE PUSH1 0x20 ADD SWAP1 DUP2 MSTORE PUSH1 0x20 ADD PUSH0 KECCAK256 PUSH1 0x40 MLOAD DUP1 PUSH1 0xC0 ADD PUSH1 0x40 MSTORE SWAP1 DUP2 PUSH0 DUP3 ADD SLOAD DUP2 MSTORE PUSH1 0x20 ADD PUSH1 0x1 DUP3 ADD PUSH0 SWAP1 SLOAD SWAP1 PUSH2 0x100 EXP SWAP1 DIV PUSH20 0xFFFFFFFFFFFFFFFFFFFFFFFFFFFFFFFFFFFFFFFF AND PUSH20 0xFFFFFFFFFFFFFFFFFFFFFFFFFFFFFFFFFFFFFFFF AND PUSH20 0xFFFFFFFFFFFFFFFFFFFFFFFFFFFFFFFFFFFFFFFF AND DUP2 MSTORE PUSH1 0x20 ADD PUSH1 0x2 DUP3 ADD SLOAD DUP2 MSTORE PUSH1 0x20 ADD PUSH1 0x3 DUP3 ADD SLOAD DUP2 MSTORE PUSH1 0x20 ADD PUSH1 0x4 DUP3 ADD SLOAD DUP2 MSTORE PUSH1 0x20 ADD PUSH1 0x5 DUP3 ADD PUSH0 SWAP1 SLOAD SWAP1 PUSH2 0x100 EXP SWAP1 DIV PUSH20 0xFFFFFFFFFFFFFFFFFFFFFFFFFFFFFFFFFFFFFFFF AND PUSH20 0xFFFFFFFFFFFFFFFFFFFFFFFFFFFFFFFFFFFFFFFF AND PUSH20 0xFFFFFFFFFFFFFFFFFFFFFFFFFFFFFFFFFFFFFFFF AND DUP2 MSTORE POP POP SWAP1 POP PUSH1 0x3 PUSH0 DUP6 DUP2 MSTORE PUSH1 0x20 ADD SWAP1 DUP2 MSTORE PUSH1 0x20 ADD PUSH0 KECCAK256 PUSH0 CALLER PUSH20 0xFFFFFFFFFFFFFFFFFFFFFFFFFFFFFFFFFFFFFFFF AND PUSH20 0xFFFFFFFFFFFFFFFFFFFFFFFFFFFFFFFFFFFFFFFF AND DUP2 MSTORE PUSH1 0x20 ADD SWAP1 DUP2 MSTORE PUSH1 0x20 ADD PUSH0 KECCAK256 PUSH0 SWAP1 SLOAD SWAP1 PUSH2 0x100 EXP SWAP1 DIV PUSH1 0xFF AND PUSH2 0x12B3 JUMPI PUSH1 0x40 MLOAD PUSH32 0x8C379A000000000000000000000000000000000000000000000000000000000 DUP2 MSTORE PUSH1 0x4 ADD PUSH2 0x12AA SWAP1 PUSH2 0x385E JUMP JUMPDEST PUSH1 0x40 MLOAD DUP1 SWAP2 SUB SWAP1 REVERT JUMPDEST PUSH0 TIMESTAMP SWAP1 POP PUSH0 PUSH2 0x12C7 DUP3 PUSH4 0xFFFFFFFF AND PUSH2 0x20ED JUMP JUMPDEST SWAP1 POP PUSH0 PUSH2 0x12DB DUP7 PUSH0 ADD MLOAD DUP8 PUSH1 0x20 ADD MLOAD PUSH2 0x204C JUMP JUMPDEST SWAP1 POP PUSH0 PUSH2 0x1309 PUSH2 0x12EE DUP5 DUP10 PUSH0 ADD MLOAD PUSH2 0x2092 JUMP JUMPDEST PUSH2 0x12FB DUP6 DUP11 PUSH0 ADD MLOAD PUSH2 0x2100 JUMP JUMPDEST PUSH2 0x1304 PUSH0 PUSH2 0x20ED JUMP JUMPDEST PUSH2 0x2146 JUMP JUMPDEST SWAP1 POP PUSH2 0x1315 PUSH1 0x64 PUSH2 0x20ED JUMP JUMPDEST DUP7 PUSH1 0x60 ADD DUP2 DUP2 MSTORE POP POP DUP6 PUSH1 0x4 PUSH0 DUP11 DUP2 MSTORE PUSH1 0x20 ADD SWAP1 DUP2 MSTORE PUSH1 0x20 ADD PUSH0 KECCAK256 PUSH0 CALLER PUSH20 0xFFFFFFFFFFFFFFFFFFFFFFFFFFFFFFFFFFFFFFFF AND PUSH20 0xFFFFFFFFFFFFFFFFFFFFFFFFFFFFFFFFFFFFFFFF AND DUP2 MSTORE PUSH1 0x20 ADD SWAP1 DUP2 MSTORE PUSH1 0x20 ADD PUSH0 KECCAK256 PUSH0 DUP3 ADD MLOAD DUP2 PUSH0 ADD SWAP1 DUP2 PUSH2 0x137E SWAP2 SWAP1 PUSH2 0x3725 JUMP JUMPDEST POP PUSH1 0x20 DUP3 ADD MLOAD DUP2 PUSH1 0x1 ADD PUSH0 PUSH2 0x100 EXP DUP2 SLOAD DUP2 PUSH20 0xFFFFFFFFFFFFFFFFFFFFFFFFFFFFFFFFFFFFFFFF MUL NOT AND SWAP1 DUP4 PUSH20 0xFFFFFFFFFFFFFFFFFFFFFFFFFFFFFFFFFFFFFFFF AND MUL OR SWAP1 SSTORE POP PUSH1 0x40 DUP3 ADD MLOAD DUP2 PUSH1 0x2 ADD SSTORE PUSH1 0x60 DUP3 ADD MLOAD DUP2 PUSH1 0x3 ADD SSTORE PUSH1 0x80 DUP3 ADD MLOAD DUP2 PUSH1 0x4 ADD SSTORE PUSH1 0xA0 DUP3 ADD MLOAD DUP2 PUSH1 0x5 ADD SSTORE PUSH1 0xC0 DUP3 ADD MLOAD DUP2 PUSH1 0x6 ADD PUSH0 PUSH2 0x100 EXP DUP2 SLOAD DUP2 PUSH4 0xFFFFFFFF MUL NOT AND SWAP1 DUP4 PUSH4 0xFFFFFFFF AND MUL OR SWAP1 SSTORE POP PUSH1 0xE0 DUP3 ADD MLOAD DUP2 PUSH1 0x7 ADD SSTORE SWAP1 POP POP POP POP POP POP POP POP POP POP JUMP JUMPDEST PUSH1 0x7 PUSH1 0x20 MSTORE DUP1 PUSH0 MSTORE PUSH1 0x40 PUSH0 KECCAK256 PUSH0 SWAP2 POP SWAP1 POP SLOAD DUP2 JUMP JUMPDEST PUSH1 0x6 PUSH0 SWAP1 SLOAD SWAP1 PUSH2 0x100 EXP SWAP1 DIV PUSH20 0xFFFFFFFFFFFFFFFFFFFFFFFFFFFFFFFFFFFFFFFF AND DUP2 JUMP JUMPDEST PUSH0 PUSH1 0x60 DUP1 PUSH0 DUP1 PUSH0 PUSH1 0x60 PUSH2 0x1475 PUSH2 0x215B JUMP JUMPDEST PUSH2 0x147D PUSH2 0x2195 JUMP JUMPDEST CHAINID ADDRESS PUSH0 DUP1 SHL PUSH0 PUSH8 0xFFFFFFFFFFFFFFFF DUP2 GT ISZERO PUSH2 0x149C JUMPI PUSH2 0x149B PUSH2 0x2DD6 JUMP JUMPDEST JUMPDEST PUSH1 0x40 MLOAD SWAP1 DUP1 DUP3 MSTORE DUP1 PUSH1 0x20 MUL PUSH1 0x20 ADD DUP3 ADD PUSH1 0x40 MSTORE DUP1 ISZERO PUSH2 0x14CA JUMPI DUP2 PUSH1 0x20 ADD PUSH1 0x20 DUP3 MUL DUP1 CALLDATASIZE DUP4 CALLDATACOPY DUP1 DUP3 ADD SWAP2 POP POP SWAP1 POP JUMPDEST POP PUSH32 0xF00000000000000000000000000000000000000000000000000000000000000 SWAP6 SWAP5 SWAP4 SWAP3 SWAP2 SWAP1 SWAP7 POP SWAP7 POP SWAP7 POP SWAP7 POP SWAP7 POP SWAP7 POP SWAP7 POP SWAP1 SWAP2 SWAP3 SWAP4 SWAP5 SWAP6 SWAP7 JUMP JUMPDEST PUSH2 0x1511 PUSH2 0x2889 JUMP JUMPDEST PUSH1 0x2 PUSH0 DUP4 DUP2 MSTORE PUSH1 0x20 ADD SWAP1 DUP2 MSTORE PUSH1 0x20 ADD PUSH0 KECCAK256 PUSH1 0x40 MLOAD DUP1 PUSH1 0xC0 ADD PUSH1 0x40 MSTORE SWAP1 DUP2 PUSH0 DUP3 ADD SLOAD DUP2 MSTORE PUSH1 0x20 ADD PUSH1 0x1 DUP3 ADD PUSH0 SWAP1 SLOAD SWAP1 PUSH2 0x100 EXP SWAP1 DIV PUSH20 0xFFFFFFFFFFFFFFFFFFFFFFFFFFFFFFFFFFFFFFFF AND PUSH20 0xFFFFFFFFFFFFFFFFFFFFFFFFFFFFFFFFFFFFFFFF AND PUSH20 0xFFFFFFFFFFFFFFFFFFFFFFFFFFFFFFFFFFFFFFFF AND DUP2 MSTORE PUSH1 0x20 ADD PUSH1 0x2 DUP3 ADD SLOAD DUP2 MSTORE PUSH1 0x20 ADD PUSH1 0x3 DUP3 ADD SLOAD DUP2 MSTORE PUSH1 0x20 ADD PUSH1 0x4 DUP3 ADD SLOAD DUP2 MSTORE PUSH1 0x20 ADD PUSH1 0x5 DUP3 ADD PUSH0 SWAP1 SLOAD SWAP1 PUSH2 0x100 EXP SWAP1 DIV PUSH20 0xFFFFFFFFFFFFFFFFFFFFFFFFFFFFFFFFFFFFFFFF AND PUSH20 0xFFFFFFFFFFFFFFFFFFFFFFFFFFFFFFFFFFFFFFFF AND PUSH20 0xFFFFFFFFFFFFFFFFFFFFFFFFFFFFFFFFFFFFFFFF AND DUP2 MSTORE POP POP SWAP1 POP SWAP2 SWAP1 POP JUMP JUMPDEST PUSH0 DUP1 DUP4 PUSH1 0x40 MLOAD PUSH1 0x20 ADD PUSH2 0x1618 SWAP2 SWAP1 PUSH2 0x3900 JUMP JUMPDEST PUSH1 0x40 MLOAD PUSH1 0x20 DUP2 DUP4 SUB SUB DUP2 MSTORE SWAP1 PUSH1 0x40 MSTORE SWAP1 POP PUSH0 DUP5 DUP5 PUSH1 0x40 MLOAD PUSH1 0x20 ADD PUSH2 0x163D SWAP3 SWAP2 SWAP1 PUSH2 0x3941 JUMP JUMPDEST PUSH1 0x40 MLOAD PUSH1 0x20 DUP2 DUP4 SUB SUB DUP2 MSTORE SWAP1 PUSH1 0x40 MSTORE DUP1 MLOAD SWAP1 PUSH1 0x20 ADD KECCAK256 SWAP1 POP PUSH0 PUSH1 0x2 PUSH0 DUP4 DUP2 MSTORE PUSH1 0x20 ADD SWAP1 DUP2 MSTORE PUSH1 0x20 ADD PUSH0 KECCAK256 PUSH1 0x40 MLOAD DUP1 PUSH1 0xC0 ADD PUSH1 0x40 MSTORE SWAP1 DUP2 PUSH0 DUP3 ADD SLOAD DUP2 MSTORE PUSH1 0x20 ADD PUSH1 0x1 DUP3 ADD PUSH0 SWAP1 SLOAD SWAP1 PUSH2 0x100 EXP SWAP1 DIV PUSH20 0xFFFFFFFFFFFFFFFFFFFFFFFFFFFFFFFFFFFFFFFF AND PUSH20 0xFFFFFFFFFFFFFFFFFFFFFFFFFFFFFFFFFFFFFFFF AND PUSH20 0xFFFFFFFFFFFFFFFFFFFFFFFFFFFFFFFFFFFFFFFF AND DUP2 MSTORE PUSH1 0x20 ADD PUSH1 0x2 DUP3 ADD SLOAD DUP2 MSTORE PUSH1 0x20 ADD PUSH1 0x3 DUP3 ADD SLOAD DUP2 MSTORE PUSH1 0x20 ADD PUSH1 0x4 DUP3 ADD SLOAD DUP2 MSTORE PUSH1 0x20 ADD PUSH1 0x5 DUP3 ADD PUSH0 SWAP1 SLOAD SWAP1 PUSH2 0x100 EXP SWAP1 DIV PUSH20 0xFFFFFFFFFFFFFFFFFFFFFFFFFFFFFFFFFFFFFFFF AND PUSH20 0xFFFFFFFFFFFFFFFFFFFFFFFFFFFFFFFFFFFFFFFF AND PUSH20 0xFFFFFFFFFFFFFFFFFFFFFFFFFFFFFFFFFFFFFFFF AND DUP2 MSTORE POP POP SWAP1 POP PUSH0 PUSH20 0xFFFFFFFFFFFFFFFFFFFFFFFFFFFFFFFFFFFFFFFF AND DUP2 PUSH1 0x20 ADD MLOAD PUSH20 0xFFFFFFFFFFFFFFFFFFFFFFFFFFFFFFFFFFFFFFFF AND EQ PUSH2 0x17B7 JUMPI PUSH1 0x40 MLOAD PUSH32 0x8C379A000000000000000000000000000000000000000000000000000000000 DUP2 MSTORE PUSH1 0x4 ADD PUSH2 0x17AE SWAP1 PUSH2 0x39B2 JUMP JUMPDEST PUSH1 0x40 MLOAD DUP1 SWAP2 SUB SWAP1 REVERT JUMPDEST CALLER DUP2 PUSH1 0x20 ADD SWAP1 PUSH20 0xFFFFFFFFFFFFFFFFFFFFFFFFFFFFFFFFFFFFFFFF AND SWAP1 DUP2 PUSH20 0xFFFFFFFFFFFFFFFFFFFFFFFFFFFFFFFFFFFFFFFF AND DUP2 MSTORE POP POP DUP1 PUSH1 0x2 PUSH0 DUP5 DUP2 MSTORE PUSH1 0x20 ADD SWAP1 DUP2 MSTORE PUSH1 0x20 ADD PUSH0 KECCAK256 PUSH0 DUP3 ADD MLOAD DUP2 PUSH0 ADD SSTORE PUSH1 0x20 DUP3 ADD MLOAD DUP2 PUSH1 0x1 ADD PUSH0 PUSH2 0x100 EXP DUP2 SLOAD DUP2 PUSH20 0xFFFFFFFFFFFFFFFFFFFFFFFFFFFFFFFFFFFFFFFF MUL NOT AND SWAP1 DUP4 PUSH20 0xFFFFFFFFFFFFFFFFFFFFFFFFFFFFFFFFFFFFFFFF AND MUL OR SWAP1 SSTORE POP PUSH1 0x40 DUP3 ADD MLOAD DUP2 PUSH1 0x2 ADD SSTORE PUSH1 0x60 DUP3 ADD MLOAD DUP2 PUSH1 0x3 ADD SSTORE PUSH1 0x80 DUP3 ADD MLOAD DUP2 PUSH1 0x4 ADD SSTORE PUSH1 0xA0 DUP3 ADD MLOAD DUP2 PUSH1 0x5 ADD PUSH0 PUSH2 0x100 EXP DUP2 SLOAD DUP2 PUSH20 0xFFFFFFFFFFFFFFFFFFFFFFFFFFFFFFFFFFFFFFFF MUL NOT AND SWAP1 DUP4 PUSH20 0xFFFFFFFFFFFFFFFFFFFFFFFFFFFFFFFFFFFFFFFF AND MUL OR SWAP1 SSTORE POP SWAP1 POP POP DUP2 PUSH1 0x7 PUSH0 CALLER PUSH20 0xFFFFFFFFFFFFFFFFFFFFFFFFFFFFFFFFFFFFFFFF AND PUSH20 0xFFFFFFFFFFFFFFFFFFFFFFFFFFFFFFFFFFFFFFFF AND DUP2 MSTORE PUSH1 0x20 ADD SWAP1 DUP2 MSTORE PUSH1 0x20 ADD PUSH0 KECCAK256 DUP2 SWAP1 SSTORE POP DUP2 SWAP4 POP POP POP POP SWAP3 SWAP2 POP POP JUMP JUMPDEST PUSH1 0x3 PUSH1 0x20 MSTORE DUP2 PUSH0 MSTORE PUSH1 0x40 PUSH0 KECCAK256 PUSH1 0x20 MSTORE DUP1 PUSH0 MSTORE PUSH1 0x40 PUSH0 KECCAK256 PUSH0 SWAP2 POP SWAP2 POP SWAP1 SLOAD SWAP1 PUSH2 0x100 EXP SWAP1 DIV PUSH1 0xFF AND DUP2 JUMP JUMPDEST PUSH1 0x8 PUSH1 0x20 MSTORE DUP2 PUSH0 MSTORE PUSH1 0x40 PUSH0 KECCAK256 DUP2 DUP2 SLOAD DUP2 LT PUSH2 0x1947 JUMPI PUSH0 DUP1 REVERT JUMPDEST SWAP1 PUSH0 MSTORE PUSH1 0x20 PUSH0 KECCAK256 ADD PUSH0 SWAP2 POP SWAP2 POP SWAP1 SLOAD SWAP1 PUSH2 0x100 EXP SWAP1 DIV PUSH20 0xFFFFFFFFFFFFFFFFFFFFFFFFFFFFFFFFFFFFFFFF AND DUP2 JUMP JUMPDEST PUSH0 PUSH1 0x8 PUSH0 DUP5 DUP2 MSTORE PUSH1 0x20 ADD SWAP1 DUP2 MSTORE PUSH1 0x20 ADD PUSH0 KECCAK256 DUP3 DUP2 SLOAD DUP2 LT PUSH2 0x199A JUMPI PUSH2 0x1999 PUSH2 0x39D0 JUMP JUMPDEST JUMPDEST SWAP1 PUSH0 MSTORE PUSH1 0x20 PUSH0 KECCAK256 ADD PUSH0 SWAP1 SLOAD SWAP1 PUSH2 0x100 EXP SWAP1 DIV PUSH20 0xFFFFFFFFFFFFFFFFFFFFFFFFFFFFFFFFFFFFFFFF AND SWAP1 POP SWAP3 SWAP2 POP POP JUMP JUMPDEST PUSH1 0x2 PUSH1 0x20 MSTORE DUP1 PUSH0 MSTORE PUSH1 0x40 PUSH0 KECCAK256 PUSH0 SWAP2 POP SWAP1 POP DUP1 PUSH0 ADD SLOAD SWAP1 DUP1 PUSH1 0x1 ADD PUSH0 SWAP1 SLOAD SWAP1 PUSH2 0x100 EXP SWAP1 DIV PUSH20 0xFFFFFFFFFFFFFFFFFFFFFFFFFFFFFFFFFFFFFFFF AND SWAP1 DUP1 PUSH1 0x2 ADD SLOAD SWAP1 DUP1 PUSH1 0x3 ADD SLOAD SWAP1 DUP1 PUSH1 0x4 ADD SLOAD SWAP1 DUP1 PUSH1 0x5 ADD PUSH0 SWAP1 SLOAD SWAP1 PUSH2 0x100 EXP SWAP1 DIV PUSH20 0xFFFFFFFFFFFFFFFFFFFFFFFFFFFFFFFFFFFFFFFF AND SWAP1 POP DUP7 JUMP JUMPDEST PUSH0 PUSH1 0x2 PUSH0 DUP4 DUP2 MSTORE PUSH1 0x20 ADD SWAP1 DUP2 MSTORE PUSH1 0x20 ADD PUSH0 KECCAK256 PUSH1 0x40 MLOAD DUP1 PUSH1 0xC0 ADD PUSH1 0x40 MSTORE SWAP1 DUP2 PUSH0 DUP3 ADD SLOAD DUP2 MSTORE PUSH1 0x20 ADD PUSH1 0x1 DUP3 ADD PUSH0 SWAP1 SLOAD SWAP1 PUSH2 0x100 EXP SWAP1 DIV PUSH20 0xFFFFFFFFFFFFFFFFFFFFFFFFFFFFFFFFFFFFFFFF AND PUSH20 0xFFFFFFFFFFFFFFFFFFFFFFFFFFFFFFFFFFFFFFFF AND PUSH20 0xFFFFFFFFFFFFFFFFFFFFFFFFFFFFFFFFFFFFFFFF AND DUP2 MSTORE PUSH1 0x20 ADD PUSH1 0x2 DUP3 ADD SLOAD DUP2 MSTORE PUSH1 0x20 ADD PUSH1 0x3 DUP3 ADD SLOAD DUP2 MSTORE PUSH1 0x20 ADD PUSH1 0x4 DUP3 ADD SLOAD DUP2 MSTORE PUSH1 0x20 ADD PUSH1 0x5 DUP3 ADD PUSH0 SWAP1 SLOAD SWAP1 PUSH2 0x100 EXP SWAP1 DIV PUSH20 0xFFFFFFFFFFFFFFFFFFFFFFFFFFFFFFFFFFFFFFFF AND PUSH20 0xFFFFFFFFFFFFFFFFFFFFFFFFFFFFFFFFFFFFFFFF AND PUSH20 0xFFFFFFFFFFFFFFFFFFFFFFFFFFFFFFFFFFFFFFFF AND DUP2 MSTORE POP POP SWAP1 POP DUP1 PUSH1 0x20 ADD MLOAD PUSH20 0xFFFFFFFFFFFFFFFFFFFFFFFFFFFFFFFFFFFFFFFF AND CALLER PUSH20 0xFFFFFFFFFFFFFFFFFFFFFFFFFFFFFFFFFFFFFFFF AND EQ PUSH2 0x1BA2 JUMPI PUSH1 0x40 MLOAD PUSH32 0x8C379A000000000000000000000000000000000000000000000000000000000 DUP2 MSTORE PUSH1 0x4 ADD PUSH2 0x1B99 SWAP1 PUSH2 0x3A47 JUMP JUMPDEST PUSH1 0x40 MLOAD DUP1 SWAP2 SUB SWAP1 REVERT JUMPDEST PUSH1 0x1 PUSH1 0x3 PUSH0 DUP5 DUP2 MSTORE PUSH1 0x20 ADD SWAP1 DUP2 MSTORE PUSH1 0x20 ADD PUSH0 KECCAK256 PUSH0 DUP6 PUSH20 0xFFFFFFFFFFFFFFFFFFFFFFFFFFFFFFFFFFFFFFFF AND PUSH20 0xFFFFFFFFFFFFFFFFFFFFFFFFFFFFFFFFFFFFFFFF AND DUP2 MSTORE PUSH1 0x20 ADD SWAP1 DUP2 MSTORE PUSH1 0x20 ADD PUSH0 KECCAK256 PUSH0 PUSH2 0x100 EXP DUP2 SLOAD DUP2 PUSH1 0xFF MUL NOT AND SWAP1 DUP4 ISZERO ISZERO MUL OR SWAP1 SSTORE POP PUSH2 0x1C1C DUP2 PUSH0 ADD MLOAD PUSH2 0x1C17 PUSH1 0x1 PUSH2 0x20ED JUMP JUMPDEST PUSH2 0x204C JUMP JUMPDEST DUP2 PUSH0 ADD DUP2 DUP2 MSTORE POP POP DUP1 PUSH1 0x2 PUSH0 DUP5 DUP2 MSTORE PUSH1 0x20 ADD SWAP1 DUP2 MSTORE PUSH1 0x20 ADD PUSH0 KECCAK256 PUSH0 DUP3 ADD MLOAD DUP2 PUSH0 ADD SSTORE PUSH1 0x20 DUP3 ADD MLOAD DUP2 PUSH1 0x1 ADD PUSH0 PUSH2 0x100 EXP DUP2 SLOAD DUP2 PUSH20 0xFFFFFFFFFFFFFFFFFFFFFFFFFFFFFFFFFFFFFFFF MUL NOT AND SWAP1 DUP4 PUSH20 0xFFFFFFFFFFFFFFFFFFFFFFFFFFFFFFFFFFFFFFFF AND MUL OR SWAP1 SSTORE POP PUSH1 0x40 DUP3 ADD MLOAD DUP2 PUSH1 0x2 ADD SSTORE PUSH1 0x60 DUP3 ADD MLOAD DUP2 PUSH1 0x3 ADD SSTORE PUSH1 0x80 DUP3 ADD MLOAD DUP2 PUSH1 0x4 ADD SSTORE PUSH1 0xA0 DUP3 ADD MLOAD DUP2 PUSH1 0x5 ADD PUSH0 PUSH2 0x100 EXP DUP2 SLOAD DUP2 PUSH20 0xFFFFFFFFFFFFFFFFFFFFFFFFFFFFFFFFFFFFFFFF MUL NOT AND SWAP1 DUP4 PUSH20 0xFFFFFFFFFFFFFFFFFFFFFFFFFFFFFFFFFFFFFFFF AND MUL OR SWAP1 SSTORE POP SWAP1 POP POP PUSH0 PUSH1 0x4 PUSH0 DUP5 DUP2 MSTORE PUSH1 0x20 ADD SWAP1 DUP2 MSTORE PUSH1 0x20 ADD PUSH0 KECCAK256 PUSH0 DUP6 PUSH20 0xFFFFFFFFFFFFFFFFFFFFFFFFFFFFFFFFFFFFFFFF AND PUSH20 0xFFFFFFFFFFFFFFFFFFFFFFFFFFFFFFFFFFFFFFFF AND DUP2 MSTORE PUSH1 0x20 ADD SWAP1 DUP2 MSTORE PUSH1 0x20 ADD PUSH0 KECCAK256 PUSH1 0x40 MLOAD DUP1 PUSH2 0x100 ADD PUSH1 0x40 MSTORE SWAP1 DUP2 PUSH0 DUP3 ADD DUP1 SLOAD PUSH2 0x1D53 SWAP1 PUSH2 0x3524 JUMP JUMPDEST DUP1 PUSH1 0x1F ADD PUSH1 0x20 DUP1 SWAP2 DIV MUL PUSH1 0x20 ADD PUSH1 0x40 MLOAD SWAP1 DUP2 ADD PUSH1 0x40 MSTORE DUP1 SWAP3 SWAP2 SWAP1 DUP2 DUP2 MSTORE PUSH1 0x20 ADD DUP3 DUP1 SLOAD PUSH2 0x1D7F SWAP1 PUSH2 0x3524 JUMP JUMPDEST DUP1 ISZERO PUSH2 0x1DCA JUMPI DUP1 PUSH1 0x1F LT PUSH2 0x1DA1 JUMPI PUSH2 0x100 DUP1 DUP4 SLOAD DIV MUL DUP4 MSTORE SWAP2 PUSH1 0x20 ADD SWAP2 PUSH2 0x1DCA JUMP JUMPDEST DUP3 ADD SWAP2 SWAP1 PUSH0 MSTORE PUSH1 0x20 PUSH0 KECCAK256 SWAP1 JUMPDEST DUP2 SLOAD DUP2 MSTORE SWAP1 PUSH1 0x1 ADD SWAP1 PUSH1 0x20 ADD DUP1 DUP4 GT PUSH2 0x1DAD JUMPI DUP3 SWAP1 SUB PUSH1 0x1F AND DUP3 ADD SWAP2 JUMPDEST POP POP POP POP POP DUP2 MSTORE PUSH1 0x20 ADD PUSH1 0x1 DUP3 ADD PUSH0 SWAP1 SLOAD SWAP1 PUSH2 0x100 EXP SWAP1 DIV PUSH20 0xFFFFFFFFFFFFFFFFFFFFFFFFFFFFFFFFFFFFFFFF AND PUSH20 0xFFFFFFFFFFFFFFFFFFFFFFFFFFFFFFFFFFFFFFFF AND PUSH20 0xFFFFFFFFFFFFFFFFFFFFFFFFFFFFFFFFFFFFFFFF AND DUP2 MSTORE PUSH1 0x20 ADD PUSH1 0x2 DUP3 ADD SLOAD DUP2 MSTORE PUSH1 0x20 ADD PUSH1 0x3 DUP3 ADD SLOAD DUP2 MSTORE PUSH1 0x20 ADD PUSH1 0x4 DUP3 ADD SLOAD DUP2 MSTORE PUSH1 0x20 ADD PUSH1 0x5 DUP3 ADD SLOAD DUP2 MSTORE PUSH1 0x20 ADD PUSH1 0x6 DUP3 ADD PUSH0 SWAP1 SLOAD SWAP1 PUSH2 0x100 EXP SWAP1 DIV PUSH4 0xFFFFFFFF AND PUSH4 0xFFFFFFFF AND PUSH4 0xFFFFFFFF AND DUP2 MSTORE PUSH1 0x20 ADD PUSH1 0x7 DUP3 ADD SLOAD DUP2 MSTORE POP POP SWAP1 POP DUP4 DUP2 PUSH1 0x20 ADD SWAP1 PUSH20 0xFFFFFFFFFFFFFFFFFFFFFFFFFFFFFFFFFFFFFFFF AND SWAP1 DUP2 PUSH20 0xFFFFFFFFFFFFFFFFFFFFFFFFFFFFFFFFFFFFFFFF AND DUP2 MSTORE POP POP DUP5 DUP2 PUSH0 ADD DUP2 SWAP1 MSTORE POP PUSH1 0x8 PUSH0 DUP5 DUP2 MSTORE PUSH1 0x20 ADD SWAP1 DUP2 MSTORE PUSH1 0x20 ADD PUSH0 KECCAK256 DUP5 SWAP1 DUP1 PUSH1 0x1 DUP2 SLOAD ADD DUP1 DUP3 SSTORE DUP1 SWAP2 POP POP PUSH1 0x1 SWAP1 SUB SWAP1 PUSH0 MSTORE PUSH1 0x20 PUSH0 KECCAK256 ADD PUSH0 SWAP1 SWAP2 SWAP1 SWAP2 SWAP1 SWAP2 PUSH2 0x100 EXP DUP2 SLOAD DUP2 PUSH20 0xFFFFFFFFFFFFFFFFFFFFFFFFFFFFFFFFFFFFFFFF MUL NOT AND SWAP1 DUP4 PUSH20 0xFFFFFFFFFFFFFFFFFFFFFFFFFFFFFFFFFFFFFFFF AND MUL OR SWAP1 SSTORE POP DUP1 PUSH1 0x4 PUSH0 DUP6 DUP2 MSTORE PUSH1 0x20 ADD SWAP1 DUP2 MSTORE PUSH1 0x20 ADD PUSH0 KECCAK256 PUSH0 DUP7 PUSH20 0xFFFFFFFFFFFFFFFFFFFFFFFFFFFFFFFFFFFFFFFF AND PUSH20 0xFFFFFFFFFFFFFFFFFFFFFFFFFFFFFFFFFFFFFFFF AND DUP2 MSTORE PUSH1 0x20 ADD SWAP1 DUP2 MSTORE PUSH1 0x20 ADD PUSH0 KECCAK256 PUSH0 DUP3 ADD MLOAD DUP2 PUSH0 ADD SWAP1 DUP2 PUSH2 0x1F90 SWAP2 SWAP1 PUSH2 0x3725 JUMP JUMPDEST POP PUSH1 0x20 DUP3 ADD MLOAD DUP2 PUSH1 0x1 ADD PUSH0 PUSH2 0x100 EXP DUP2 SLOAD DUP2 PUSH20 0xFFFFFFFFFFFFFFFFFFFFFFFFFFFFFFFFFFFFFFFF MUL NOT AND SWAP1 DUP4 PUSH20 0xFFFFFFFFFFFFFFFFFFFFFFFFFFFFFFFFFFFFFFFF AND MUL OR SWAP1 SSTORE POP PUSH1 0x40 DUP3 ADD MLOAD DUP2 PUSH1 0x2 ADD SSTORE PUSH1 0x60 DUP3 ADD MLOAD DUP2 PUSH1 0x3 ADD SSTORE PUSH1 0x80 DUP3 ADD MLOAD DUP2 PUSH1 0x4 ADD SSTORE PUSH1 0xA0 DUP3 ADD MLOAD DUP2 PUSH1 0x5 ADD SSTORE PUSH1 0xC0 DUP3 ADD MLOAD DUP2 PUSH1 0x6 ADD PUSH0 PUSH2 0x100 EXP DUP2 SLOAD DUP2 PUSH4 0xFFFFFFFF MUL NOT AND SWAP1 DUP4 PUSH4 0xFFFFFFFF AND MUL OR SWAP1 SSTORE POP PUSH1 0xE0 DUP3 ADD MLOAD DUP2 PUSH1 0x7 ADD SSTORE SWAP1 POP POP POP POP POP POP POP JUMP JUMPDEST PUSH0 PUSH2 0x2045 DUP3 PUSH1 0x2 PUSH2 0x21D0 JUMP JUMPDEST SWAP1 POP SWAP2 SWAP1 POP JUMP JUMPDEST PUSH0 PUSH2 0x2056 DUP4 PUSH2 0x227B JUMP JUMPDEST PUSH2 0x2066 JUMPI PUSH2 0x2063 PUSH0 PUSH2 0x20ED JUMP JUMPDEST SWAP3 POP JUMPDEST PUSH2 0x206F DUP3 PUSH2 0x227B JUMP JUMPDEST PUSH2 0x207F JUMPI PUSH2 0x207C PUSH0 PUSH2 0x20ED JUMP JUMPDEST SWAP2 POP JUMPDEST PUSH2 0x208A DUP4 DUP4 PUSH0 PUSH2 0x2287 JUMP JUMPDEST SWAP1 POP SWAP3 SWAP2 POP POP JUMP JUMPDEST PUSH0 PUSH2 0x209C DUP4 PUSH2 0x227B JUMP JUMPDEST PUSH2 0x20AC JUMPI PUSH2 0x20A9 PUSH0 PUSH2 0x20ED JUMP JUMPDEST SWAP3 POP JUMPDEST PUSH2 0x20B5 DUP3 PUSH2 0x227B JUMP JUMPDEST PUSH2 0x20C5 JUMPI PUSH2 0x20C2 PUSH0 PUSH2 0x20ED JUMP JUMPDEST SWAP2 POP JUMPDEST PUSH2 0x20D9 PUSH2 0x20D3 DUP5 DUP5 PUSH0 PUSH2 0x2329 JUMP JUMPDEST PUSH0 PUSH2 0x23CB JUMP JUMPDEST SWAP1 POP SWAP3 SWAP2 POP POP JUMP JUMPDEST PUSH2 0x20EA DUP2 PUSH2 0x2452 JUMP JUMPDEST POP JUMP JUMPDEST PUSH0 PUSH2 0x20F9 DUP3 PUSH1 0x2 PUSH2 0x2505 JUMP JUMPDEST SWAP1 POP SWAP2 SWAP1 POP JUMP JUMPDEST PUSH0 PUSH2 0x210A DUP4 PUSH2 0x227B JUMP JUMPDEST PUSH2 0x211A JUMPI PUSH2 0x2117 PUSH0 PUSH2 0x20ED JUMP JUMPDEST SWAP3 POP JUMPDEST PUSH2 0x2123 DUP3 PUSH2 0x227B JUMP JUMPDEST PUSH2 0x2133 JUMPI PUSH2 0x2130 PUSH0 PUSH2 0x20ED JUMP JUMPDEST SWAP2 POP JUMPDEST PUSH2 0x213E DUP4 DUP4 PUSH0 PUSH2 0x258C JUMP JUMPDEST SWAP1 POP SWAP3 SWAP2 POP POP JUMP JUMPDEST PUSH0 PUSH2 0x2152 DUP5 DUP5 DUP5 PUSH2 0x262E JUMP JUMPDEST SWAP1 POP SWAP4 SWAP3 POP POP POP JUMP JUMPDEST PUSH1 0x60 PUSH2 0x2190 PUSH0 PUSH32 0x0 PUSH2 0x26B5 SWAP1 SWAP2 SWAP1 PUSH4 0xFFFFFFFF AND JUMP JUMPDEST SWAP1 POP SWAP1 JUMP JUMPDEST PUSH1 0x60 PUSH2 0x21CB PUSH1 0x1 PUSH32 0x0 PUSH2 0x26B5 SWAP1 SWAP2 SWAP1 PUSH4 0xFFFFFFFF AND JUMP JUMPDEST SWAP1 POP SWAP1 JUMP JUMPDEST PUSH0 DUP1 DUP4 DUP4 PUSH1 0xF8 SHL PUSH1 0x40 MLOAD PUSH1 0x20 ADD PUSH2 0x21E8 SWAP3 SWAP2 SWAP1 PUSH2 0x3AC9 JUMP JUMPDEST PUSH1 0x40 MLOAD PUSH1 0x20 DUP2 DUP4 SUB SUB DUP2 MSTORE SWAP1 PUSH1 0x40 MSTORE SWAP1 POP PUSH1 0x5D PUSH20 0xFFFFFFFFFFFFFFFFFFFFFFFFFFFFFFFFFFFFFFFF AND PUSH4 0x4B252EC8 DUP3 PUSH1 0x40 MLOAD DUP3 PUSH4 0xFFFFFFFF AND PUSH1 0xE0 SHL DUP2 MSTORE PUSH1 0x4 ADD PUSH2 0x2233 SWAP2 SWAP1 PUSH2 0x3B28 JUMP JUMPDEST PUSH1 0x20 PUSH1 0x40 MLOAD DUP1 DUP4 SUB DUP2 DUP7 GAS STATICCALL ISZERO DUP1 ISZERO PUSH2 0x224E JUMPI RETURNDATASIZE PUSH0 DUP1 RETURNDATACOPY RETURNDATASIZE PUSH0 REVERT JUMPDEST POP POP POP POP PUSH1 0x40 MLOAD RETURNDATASIZE PUSH1 0x1F NOT PUSH1 0x1F DUP3 ADD AND DUP3 ADD DUP1 PUSH1 0x40 MSTORE POP DUP2 ADD SWAP1 PUSH2 0x2272 SWAP2 SWAP1 PUSH2 0x3B5C JUMP JUMPDEST SWAP2 POP POP SWAP3 SWAP2 POP POP JUMP JUMPDEST PUSH0 DUP1 DUP3 EQ ISZERO SWAP1 POP SWAP2 SWAP1 POP JUMP JUMPDEST PUSH0 DUP1 DUP3 ISZERO PUSH2 0x229B JUMPI PUSH1 0x1 PUSH1 0xF8 SHL SWAP1 POP PUSH2 0x22A2 JUMP JUMPDEST PUSH0 PUSH1 0xF8 SHL SWAP1 POP JUMPDEST PUSH1 0x5D PUSH20 0xFFFFFFFFFFFFFFFFFFFFFFFFFFFFFFFFFFFFFFFF AND PUSH4 0xF953E427 DUP7 DUP7 DUP5 PUSH1 0x40 MLOAD DUP5 PUSH4 0xFFFFFFFF AND PUSH1 0xE0 SHL DUP2 MSTORE PUSH1 0x4 ADD PUSH2 0x22E0 SWAP4 SWAP3 SWAP2 SWAP1 PUSH2 0x3B87 JUMP JUMPDEST PUSH1 0x20 PUSH1 0x40 MLOAD DUP1 DUP4 SUB DUP2 DUP7 GAS STATICCALL ISZERO DUP1 ISZERO PUSH2 0x22FB JUMPI RETURNDATASIZE PUSH0 DUP1 RETURNDATACOPY RETURNDATASIZE PUSH0 REVERT JUMPDEST POP POP POP POP PUSH1 0x40 MLOAD RETURNDATASIZE PUSH1 0x1F NOT PUSH1 0x1F DUP3 ADD AND DUP3 ADD DUP1 PUSH1 0x40 MSTORE POP DUP2 ADD SWAP1 PUSH2 0x231F SWAP2 SWAP1 PUSH2 0x3B5C JUMP JUMPDEST SWAP2 POP POP SWAP4 SWAP3 POP POP POP JUMP JUMPDEST PUSH0 DUP1 DUP3 ISZERO PUSH2 0x233D JUMPI PUSH1 0x1 PUSH1 0xF8 SHL SWAP1 POP PUSH2 0x2344 JUMP JUMPDEST PUSH0 PUSH1 0xF8 SHL SWAP1 POP JUMPDEST PUSH1 0x5D PUSH20 0xFFFFFFFFFFFFFFFFFFFFFFFFFFFFFFFFFFFFFFFF AND PUSH4 0x52896F1 DUP7 DUP7 DUP5 PUSH1 0x40 MLOAD DUP5 PUSH4 0xFFFFFFFF AND PUSH1 0xE0 SHL DUP2 MSTORE PUSH1 0x4 ADD PUSH2 0x2382 SWAP4 SWAP3 SWAP2 SWAP1 PUSH2 0x3B87 JUMP JUMPDEST PUSH1 0x20 PUSH1 0x40 MLOAD DUP1 DUP4 SUB DUP2 DUP7 GAS STATICCALL ISZERO DUP1 ISZERO PUSH2 0x239D JUMPI RETURNDATASIZE PUSH0 DUP1 RETURNDATACOPY RETURNDATASIZE PUSH0 REVERT JUMPDEST POP POP POP POP PUSH1 0x40 MLOAD RETURNDATASIZE PUSH1 0x1F NOT PUSH1 0x1F DUP3 ADD AND DUP3 ADD DUP1 PUSH1 0x40 MSTORE POP DUP2 ADD SWAP1 PUSH2 0x23C1 SWAP2 SWAP1 PUSH2 0x3B5C JUMP JUMPDEST SWAP2 POP POP SWAP4 SWAP3 POP POP POP JUMP JUMPDEST PUSH0 PUSH1 0x5D PUSH20 0xFFFFFFFFFFFFFFFFFFFFFFFFFFFFFFFFFFFFFFFF AND PUSH4 0x4BE68D20 DUP5 DUP5 PUSH1 0xF8 SHL PUSH1 0x40 MLOAD DUP4 PUSH4 0xFFFFFFFF AND PUSH1 0xE0 SHL DUP2 MSTORE PUSH1 0x4 ADD PUSH2 0x240B SWAP3 SWAP2 SWAP1 PUSH2 0x3BBC JUMP JUMPDEST PUSH1 0x20 PUSH1 0x40 MLOAD DUP1 DUP4 SUB DUP2 DUP7 GAS STATICCALL ISZERO DUP1 ISZERO PUSH2 0x2426 JUMPI RETURNDATASIZE PUSH0 DUP1 RETURNDATACOPY RETURNDATASIZE PUSH0 REVERT JUMPDEST POP POP POP POP PUSH1 0x40 MLOAD RETURNDATASIZE PUSH1 0x1F NOT PUSH1 0x1F DUP3 ADD AND DUP3 ADD DUP1 PUSH1 0x40 MSTORE POP DUP2 ADD SWAP1 PUSH2 0x244A SWAP2 SWAP1 PUSH2 0x3B5C JUMP JUMPDEST SWAP1 POP SWAP3 SWAP2 POP POP JUMP JUMPDEST PUSH0 DUP2 PUSH1 0x40 MLOAD PUSH1 0x24 ADD PUSH2 0x2464 SWAP2 SWAP1 PUSH2 0x3BE3 JUMP JUMPDEST PUSH1 0x40 MLOAD PUSH1 0x20 DUP2 DUP4 SUB SUB DUP2 MSTORE SWAP1 PUSH1 0x40 MSTORE PUSH32 0x4EE071A100000000000000000000000000000000000000000000000000000000 PUSH28 0xFFFFFFFFFFFFFFFFFFFFFFFFFFFFFFFFFFFFFFFFFFFFFFFFFFFFFFFF NOT AND PUSH1 0x20 DUP3 ADD DUP1 MLOAD PUSH28 0xFFFFFFFFFFFFFFFFFFFFFFFFFFFFFFFFFFFFFFFFFFFFFFFFFFFFFFFF DUP4 DUP2 DUP4 AND OR DUP4 MSTORE POP POP POP POP SWAP1 POP PUSH0 DUP2 MLOAD SWAP1 POP PUSH0 PUSH1 0x5D SWAP1 POP PUSH0 DUP1 DUP4 PUSH1 0x20 DUP7 ADD DUP5 GAS STATICCALL PUSH2 0x24FF JUMPI PUSH0 DUP1 REVERT JUMPDEST POP POP POP POP JUMP JUMPDEST PUSH0 PUSH1 0x5D PUSH20 0xFFFFFFFFFFFFFFFFFFFFFFFFFFFFFFFFFFFFFFFF AND PUSH4 0xE71746B8 DUP5 DUP5 PUSH1 0xF8 SHL PUSH1 0x40 MLOAD DUP4 PUSH4 0xFFFFFFFF AND PUSH1 0xE0 SHL DUP2 MSTORE PUSH1 0x4 ADD PUSH2 0x2545 SWAP3 SWAP2 SWAP1 PUSH2 0x3BBC JUMP JUMPDEST PUSH1 0x20 PUSH1 0x40 MLOAD DUP1 DUP4 SUB DUP2 DUP7 GAS STATICCALL ISZERO DUP1 ISZERO PUSH2 0x2560 JUMPI RETURNDATASIZE PUSH0 DUP1 RETURNDATACOPY RETURNDATASIZE PUSH0 REVERT JUMPDEST POP POP POP POP PUSH1 0x40 MLOAD RETURNDATASIZE PUSH1 0x1F NOT PUSH1 0x1F DUP3 ADD AND DUP3 ADD DUP1 PUSH1 0x40 MSTORE POP DUP2 ADD SWAP1 PUSH2 0x2584 SWAP2 SWAP1 PUSH2 0x3B5C JUMP JUMPDEST SWAP1 POP SWAP3 SWAP2 POP POP JUMP JUMPDEST PUSH0 DUP1 DUP3 ISZERO PUSH2 0x25A0 JUMPI PUSH1 0x1 PUSH1 0xF8 SHL SWAP1 POP PUSH2 0x25A7 JUMP JUMPDEST PUSH0 PUSH1 0xF8 SHL SWAP1 POP JUMPDEST PUSH1 0x5D PUSH20 0xFFFFFFFFFFFFFFFFFFFFFFFFFFFFFFFFFFFFFFFF AND PUSH4 0x8C14CC21 DUP7 DUP7 DUP5 PUSH1 0x40 MLOAD DUP5 PUSH4 0xFFFFFFFF AND PUSH1 0xE0 SHL DUP2 MSTORE PUSH1 0x4 ADD PUSH2 0x25E5 SWAP4 SWAP3 SWAP2 SWAP1 PUSH2 0x3B87 JUMP JUMPDEST PUSH1 0x20 PUSH1 0x40 MLOAD DUP1 DUP4 SUB DUP2 DUP7 GAS STATICCALL ISZERO DUP1 ISZERO PUSH2 0x2600 JUMPI RETURNDATASIZE PUSH0 DUP1 RETURNDATACOPY RETURNDATASIZE PUSH0 REVERT JUMPDEST POP POP POP POP PUSH1 0x40 MLOAD RETURNDATASIZE PUSH1 0x1F NOT PUSH1 0x1F DUP3 ADD AND DUP3 ADD DUP1 PUSH1 0x40 MSTORE POP DUP2 ADD SWAP1 PUSH2 0x2624 SWAP2 SWAP1 PUSH2 0x3B5C JUMP JUMPDEST SWAP2 POP POP SWAP4 SWAP3 POP POP POP JUMP JUMPDEST PUSH0 PUSH1 0x5D PUSH20 0xFFFFFFFFFFFFFFFFFFFFFFFFFFFFFFFFFFFFFFFF AND PUSH4 0xCB3B9407 DUP6 DUP6 DUP6 PUSH1 0x40 MLOAD DUP5 PUSH4 0xFFFFFFFF AND PUSH1 0xE0 SHL DUP2 MSTORE PUSH1 0x4 ADD PUSH2 0x266D SWAP4 SWAP3 SWAP2 SWAP1 PUSH2 0x3BFC JUMP JUMPDEST PUSH1 0x20 PUSH1 0x40 MLOAD DUP1 DUP4 SUB DUP2 DUP7 GAS STATICCALL ISZERO DUP1 ISZERO PUSH2 0x2688 JUMPI RETURNDATASIZE PUSH0 DUP1 RETURNDATACOPY RETURNDATASIZE PUSH0 REVERT JUMPDEST POP POP POP POP PUSH1 0x40 MLOAD RETURNDATASIZE PUSH1 0x1F NOT PUSH1 0x1F DUP3 ADD AND DUP3 ADD DUP1 PUSH1 0x40 MSTORE POP DUP2 ADD SWAP1 PUSH2 0x26AC SWAP2 SWAP1 PUSH2 0x3B5C JUMP JUMPDEST SWAP1 POP SWAP4 SWAP3 POP POP POP JUMP JUMPDEST PUSH1 0x60 PUSH1 0xFF PUSH0 SHL DUP4 EQ PUSH2 0x26D1 JUMPI PUSH2 0x26CA DUP4 PUSH2 0x2762 JUMP JUMPDEST SWAP1 POP PUSH2 0x275C JUMP JUMPDEST DUP2 DUP1 SLOAD PUSH2 0x26DD SWAP1 PUSH2 0x3524 JUMP JUMPDEST DUP1 PUSH1 0x1F ADD PUSH1 0x20 DUP1 SWAP2 DIV MUL PUSH1 0x20 ADD PUSH1 0x40 MLOAD SWAP1 DUP2 ADD PUSH1 0x40 MSTORE DUP1 SWAP3 SWAP2 SWAP1 DUP2 DUP2 MSTORE PUSH1 0x20 ADD DUP3 DUP1 SLOAD PUSH2 0x2709 SWAP1 PUSH2 0x3524 JUMP JUMPDEST DUP1 ISZERO PUSH2 0x2754 JUMPI DUP1 PUSH1 0x1F LT PUSH2 0x272B JUMPI PUSH2 0x100 DUP1 DUP4 SLOAD DIV MUL DUP4 MSTORE SWAP2 PUSH1 0x20 ADD SWAP2 PUSH2 0x2754 JUMP JUMPDEST DUP3 ADD SWAP2 SWAP1 PUSH0 MSTORE PUSH1 0x20 PUSH0 KECCAK256 SWAP1 JUMPDEST DUP2 SLOAD DUP2 MSTORE SWAP1 PUSH1 0x1 ADD SWAP1 PUSH1 0x20 ADD DUP1 DUP4 GT PUSH2 0x2737 JUMPI DUP3 SWAP1 SUB PUSH1 0x1F AND DUP3 ADD SWAP2 JUMPDEST POP POP POP POP POP SWAP1 POP JUMPDEST SWAP3 SWAP2 POP POP JUMP JUMPDEST PUSH1 0x60 PUSH0 PUSH2 0x276E DUP4 PUSH2 0x27D4 JUMP JUMPDEST SWAP1 POP PUSH0 PUSH1 0x20 PUSH8 0xFFFFFFFFFFFFFFFF DUP2 GT ISZERO PUSH2 0x278C JUMPI PUSH2 0x278B PUSH2 0x2DD6 JUMP JUMPDEST JUMPDEST PUSH1 0x40 MLOAD SWAP1 DUP1 DUP3 MSTORE DUP1 PUSH1 0x1F ADD PUSH1 0x1F NOT AND PUSH1 0x20 ADD DUP3 ADD PUSH1 0x40 MSTORE DUP1 ISZERO PUSH2 0x27BE JUMPI DUP2 PUSH1 0x20 ADD PUSH1 0x1 DUP3 MUL DUP1 CALLDATASIZE DUP4 CALLDATACOPY DUP1 DUP3 ADD SWAP2 POP POP SWAP1 POP JUMPDEST POP SWAP1 POP DUP2 DUP2 MSTORE DUP4 PUSH1 0x20 DUP3 ADD MSTORE DUP1 SWAP3 POP POP POP SWAP2 SWAP1 POP JUMP JUMPDEST PUSH0 DUP1 PUSH1 0xFF DUP4 PUSH0 SHR AND SWAP1 POP PUSH1 0x1F DUP2 GT ISZERO PUSH2 0x2819 JUMPI PUSH1 0x40 MLOAD PUSH32 0xB3512B0C00000000000000000000000000000000000000000000000000000000 DUP2 MSTORE PUSH1 0x4 ADD PUSH1 0x40 MLOAD DUP1 SWAP2 SUB SWAP1 REVERT JUMPDEST DUP1 SWAP2 POP POP SWAP2 SWAP1 POP JUMP JUMPDEST PUSH1 0x40 MLOAD DUP1 PUSH2 0x100 ADD PUSH1 0x40 MSTORE DUP1 PUSH1 0x60 DUP2 MSTORE PUSH1 0x20 ADD PUSH0 PUSH20 0xFFFFFFFFFFFFFFFFFFFFFFFFFFFFFFFFFFFFFFFF AND DUP2 MSTORE PUSH1 0x20 ADD PUSH0 DUP2 MSTORE PUSH1 0x20 ADD PUSH0 DUP2 MSTORE PUSH1 0x20 ADD PUSH0 DUP2 MSTORE PUSH1 0x20 ADD PUSH0 DUP2 MSTORE PUSH1 0x20 ADD PUSH0 PUSH4 0xFFFFFFFF AND DUP2 MSTORE PUSH1 0x20 ADD PUSH0 DUP2 MSTORE POP SWAP1 JUMP JUMPDEST PUSH2 0x206E DUP1 PUSH2 0x3C32 DUP4 CODECOPY ADD SWAP1 JUMP JUMPDEST PUSH1 0x40 MLOAD DUP1 PUSH1 0xC0 ADD PUSH1 0x40 MSTORE DUP1 PUSH0 DUP2 MSTORE PUSH1 0x20 ADD PUSH0 PUSH20 0xFFFFFFFFFFFFFFFFFFFFFFFFFFFFFFFFFFFFFFFF AND DUP2 MSTORE PUSH1 0x20 ADD PUSH0 DUP2 MSTORE PUSH1 0x20 ADD PUSH0 DUP2 MSTORE PUSH1 0x20 ADD PUSH0 DUP2 MSTORE PUSH1 0x20 ADD PUSH0 PUSH20 0xFFFFFFFFFFFFFFFFFFFFFFFFFFFFFFFFFFFFFFFF AND DUP2 MSTORE POP SWAP1 JUMP JUMPDEST PUSH0 PUSH1 0x40 MLOAD SWAP1 POP SWAP1 JUMP JUMPDEST PUSH0 DUP1 REVERT JUMPDEST PUSH0 DUP1 REVERT JUMPDEST PUSH0 PUSH20 0xFFFFFFFFFFFFFFFFFFFFFFFFFFFFFFFFFFFFFFFF DUP3 AND SWAP1 POP SWAP2 SWAP1 POP JUMP JUMPDEST PUSH0 PUSH2 0x291F DUP3 PUSH2 0x28F6 JUMP JUMPDEST SWAP1 POP SWAP2 SWAP1 POP JUMP JUMPDEST PUSH2 0x292F DUP2 PUSH2 0x2915 JUMP JUMPDEST DUP2 EQ PUSH2 0x2939 JUMPI PUSH0 DUP1 REVERT JUMPDEST POP JUMP JUMPDEST PUSH0 DUP2 CALLDATALOAD SWAP1 POP PUSH2 0x294A DUP2 PUSH2 0x2926 JUMP JUMPDEST SWAP3 SWAP2 POP POP JUMP JUMPDEST PUSH0 DUP2 SWAP1 POP SWAP2 SWAP1 POP JUMP JUMPDEST PUSH2 0x2962 DUP2 PUSH2 0x2950 JUMP JUMPDEST DUP2 EQ PUSH2 0x296C JUMPI PUSH0 DUP1 REVERT JUMPDEST POP JUMP JUMPDEST PUSH0 DUP2 CALLDATALOAD SWAP1 POP PUSH2 0x297D DUP2 PUSH2 0x2959 JUMP JUMPDEST SWAP3 SWAP2 POP POP JUMP JUMPDEST PUSH0 DUP1 PUSH1 0x40 DUP4 DUP6 SUB SLT ISZERO PUSH2 0x2999 JUMPI PUSH2 0x2998 PUSH2 0x28EE JUMP JUMPDEST JUMPDEST PUSH0 PUSH2 0x29A6 DUP6 DUP3 DUP7 ADD PUSH2 0x293C JUMP JUMPDEST SWAP3 POP POP PUSH1 0x20 PUSH2 0x29B7 DUP6 DUP3 DUP7 ADD PUSH2 0x296F JUMP JUMPDEST SWAP2 POP POP SWAP3 POP SWAP3 SWAP1 POP JUMP JUMPDEST PUSH0 DUP2 MLOAD SWAP1 POP SWAP2 SWAP1 POP JUMP JUMPDEST PUSH0 DUP3 DUP3 MSTORE PUSH1 0x20 DUP3 ADD SWAP1 POP SWAP3 SWAP2 POP POP JUMP JUMPDEST DUP3 DUP2 DUP4 MCOPY PUSH0 DUP4 DUP4 ADD MSTORE POP POP POP JUMP JUMPDEST PUSH0 PUSH1 0x1F NOT PUSH1 0x1F DUP4 ADD AND SWAP1 POP SWAP2 SWAP1 POP JUMP JUMPDEST PUSH0 PUSH2 0x2A03 DUP3 PUSH2 0x29C1 JUMP JUMPDEST PUSH2 0x2A0D DUP2 DUP6 PUSH2 0x29CB JUMP JUMPDEST SWAP4 POP PUSH2 0x2A1D DUP2 DUP6 PUSH1 0x20 DUP7 ADD PUSH2 0x29DB JUMP JUMPDEST PUSH2 0x2A26 DUP2 PUSH2 0x29E9 JUMP JUMPDEST DUP5 ADD SWAP2 POP POP SWAP3 SWAP2 POP POP JUMP JUMPDEST PUSH2 0x2A3A DUP2 PUSH2 0x2915 JUMP JUMPDEST DUP3 MSTORE POP POP JUMP JUMPDEST PUSH0 DUP2 SWAP1 POP SWAP2 SWAP1 POP JUMP JUMPDEST PUSH0 DUP2 SWAP1 POP SWAP2 SWAP1 POP JUMP JUMPDEST PUSH0 PUSH2 0x2A6C PUSH2 0x2A67 PUSH2 0x2A62 DUP5 PUSH2 0x2A40 JUMP JUMPDEST PUSH2 0x2A49 JUMP JUMPDEST PUSH2 0x2A40 JUMP JUMPDEST SWAP1 POP SWAP2 SWAP1 POP JUMP JUMPDEST PUSH2 0x2A7C DUP2 PUSH2 0x2A52 JUMP JUMPDEST DUP3 MSTORE POP POP JUMP JUMPDEST PUSH2 0x2A8B DUP2 PUSH2 0x2A52 JUMP JUMPDEST DUP3 MSTORE POP POP JUMP JUMPDEST PUSH0 PUSH4 0xFFFFFFFF DUP3 AND SWAP1 POP SWAP2 SWAP1 POP JUMP JUMPDEST PUSH2 0x2AA9 DUP2 PUSH2 0x2A91 JUMP JUMPDEST DUP3 MSTORE POP POP JUMP JUMPDEST PUSH0 PUSH2 0x100 DUP4 ADD PUSH0 DUP4 ADD MLOAD DUP5 DUP3 SUB PUSH0 DUP7 ADD MSTORE PUSH2 0x2ACA DUP3 DUP3 PUSH2 0x29F9 JUMP JUMPDEST SWAP2 POP POP PUSH1 0x20 DUP4 ADD MLOAD PUSH2 0x2ADF PUSH1 0x20 DUP7 ADD DUP3 PUSH2 0x2A31 JUMP JUMPDEST POP PUSH1 0x40 DUP4 ADD MLOAD PUSH2 0x2AF2 PUSH1 0x40 DUP7 ADD DUP3 PUSH2 0x2A73 JUMP JUMPDEST POP PUSH1 0x60 DUP4 ADD MLOAD PUSH2 0x2B05 PUSH1 0x60 DUP7 ADD DUP3 PUSH2 0x2A73 JUMP JUMPDEST POP PUSH1 0x80 DUP4 ADD MLOAD PUSH2 0x2B18 PUSH1 0x80 DUP7 ADD DUP3 PUSH2 0x2A73 JUMP JUMPDEST POP PUSH1 0xA0 DUP4 ADD MLOAD PUSH2 0x2B2B PUSH1 0xA0 DUP7 ADD DUP3 PUSH2 0x2A82 JUMP JUMPDEST POP PUSH1 0xC0 DUP4 ADD MLOAD PUSH2 0x2B3E PUSH1 0xC0 DUP7 ADD DUP3 PUSH2 0x2AA0 JUMP JUMPDEST POP PUSH1 0xE0 DUP4 ADD MLOAD PUSH2 0x2B51 PUSH1 0xE0 DUP7 ADD DUP3 PUSH2 0x2A73 JUMP JUMPDEST POP DUP1 SWAP2 POP POP SWAP3 SWAP2 POP POP JUMP JUMPDEST PUSH0 PUSH1 0x20 DUP3 ADD SWAP1 POP DUP2 DUP2 SUB PUSH0 DUP4 ADD MSTORE PUSH2 0x2B74 DUP2 DUP5 PUSH2 0x2AAF JUMP JUMPDEST SWAP1 POP SWAP3 SWAP2 POP POP JUMP JUMPDEST PUSH0 DUP1 REVERT JUMPDEST PUSH0 DUP1 REVERT JUMPDEST PUSH0 DUP1 REVERT JUMPDEST PUSH0 DUP1 DUP4 PUSH1 0x1F DUP5 ADD SLT PUSH2 0x2B9D JUMPI PUSH2 0x2B9C PUSH2 0x2B7C JUMP JUMPDEST JUMPDEST DUP3 CALLDATALOAD SWAP1 POP PUSH8 0xFFFFFFFFFFFFFFFF DUP2 GT ISZERO PUSH2 0x2BBA JUMPI PUSH2 0x2BB9 PUSH2 0x2B80 JUMP JUMPDEST JUMPDEST PUSH1 0x20 DUP4 ADD SWAP2 POP DUP4 PUSH1 0x1 DUP3 MUL DUP4 ADD GT ISZERO PUSH2 0x2BD6 JUMPI PUSH2 0x2BD5 PUSH2 0x2B84 JUMP JUMPDEST JUMPDEST SWAP3 POP SWAP3 SWAP1 POP JUMP JUMPDEST PUSH0 DUP1 PUSH0 PUSH1 0x40 DUP5 DUP7 SUB SLT ISZERO PUSH2 0x2BF4 JUMPI PUSH2 0x2BF3 PUSH2 0x28EE JUMP JUMPDEST JUMPDEST PUSH0 DUP5 ADD CALLDATALOAD PUSH8 0xFFFFFFFFFFFFFFFF DUP2 GT ISZERO PUSH2 0x2C11 JUMPI PUSH2 0x2C10 PUSH2 0x28F2 JUMP JUMPDEST JUMPDEST PUSH2 0x2C1D DUP7 DUP3 DUP8 ADD PUSH2 0x2B88 JUMP JUMPDEST SWAP4 POP SWAP4 POP POP PUSH1 0x20 PUSH2 0x2C30 DUP7 DUP3 DUP8 ADD PUSH2 0x296F JUMP JUMPDEST SWAP2 POP POP SWAP3 POP SWAP3 POP SWAP3 JUMP JUMPDEST PUSH0 DUP1 PUSH1 0x40 DUP4 DUP6 SUB SLT ISZERO PUSH2 0x2C50 JUMPI PUSH2 0x2C4F PUSH2 0x28EE JUMP JUMPDEST JUMPDEST PUSH0 PUSH2 0x2C5D DUP6 DUP3 DUP7 ADD PUSH2 0x296F JUMP JUMPDEST SWAP3 POP POP PUSH1 0x20 PUSH2 0x2C6E DUP6 DUP3 DUP7 ADD PUSH2 0x293C JUMP JUMPDEST SWAP2 POP POP SWAP3 POP SWAP3 SWAP1 POP JUMP JUMPDEST PUSH0 DUP3 DUP3 MSTORE PUSH1 0x20 DUP3 ADD SWAP1 POP SWAP3 SWAP2 POP POP JUMP JUMPDEST PUSH0 PUSH2 0x2C92 DUP3 PUSH2 0x29C1 JUMP JUMPDEST PUSH2 0x2C9C DUP2 DUP6 PUSH2 0x2C78 JUMP JUMPDEST SWAP4 POP PUSH2 0x2CAC DUP2 DUP6 PUSH1 0x20 DUP7 ADD PUSH2 0x29DB JUMP JUMPDEST PUSH2 0x2CB5 DUP2 PUSH2 0x29E9 JUMP JUMPDEST DUP5 ADD SWAP2 POP POP SWAP3 SWAP2 POP POP JUMP JUMPDEST PUSH2 0x2CC9 DUP2 PUSH2 0x2915 JUMP JUMPDEST DUP3 MSTORE POP POP JUMP JUMPDEST PUSH2 0x2CD8 DUP2 PUSH2 0x2A52 JUMP JUMPDEST DUP3 MSTORE POP POP JUMP JUMPDEST PUSH2 0x2CE7 DUP2 PUSH2 0x2A52 JUMP JUMPDEST DUP3 MSTORE POP POP JUMP JUMPDEST PUSH2 0x2CF6 DUP2 PUSH2 0x2A91 JUMP JUMPDEST DUP3 MSTORE POP POP JUMP JUMPDEST PUSH0 PUSH2 0x100 DUP3 ADD SWAP1 POP DUP2 DUP2 SUB PUSH0 DUP4 ADD MSTORE PUSH2 0x2D15 DUP2 DUP12 PUSH2 0x2C88 JUMP JUMPDEST SWAP1 POP PUSH2 0x2D24 PUSH1 0x20 DUP4 ADD DUP11 PUSH2 0x2CC0 JUMP JUMPDEST PUSH2 0x2D31 PUSH1 0x40 DUP4 ADD DUP10 PUSH2 0x2CCF JUMP JUMPDEST PUSH2 0x2D3E PUSH1 0x60 DUP4 ADD DUP9 PUSH2 0x2CCF JUMP JUMPDEST PUSH2 0x2D4B PUSH1 0x80 DUP4 ADD DUP8 PUSH2 0x2CCF JUMP JUMPDEST PUSH2 0x2D58 PUSH1 0xA0 DUP4 ADD DUP7 PUSH2 0x2CDE JUMP JUMPDEST PUSH2 0x2D65 PUSH1 0xC0 DUP4 ADD DUP6 PUSH2 0x2CED JUMP JUMPDEST PUSH2 0x2D72 PUSH1 0xE0 DUP4 ADD DUP5 PUSH2 0x2CCF JUMP JUMPDEST SWAP10 SWAP9 POP POP POP POP POP POP POP POP POP JUMP JUMPDEST PUSH0 PUSH1 0x20 DUP3 DUP5 SUB SLT ISZERO PUSH2 0x2D94 JUMPI PUSH2 0x2D93 PUSH2 0x28EE JUMP JUMPDEST JUMPDEST PUSH0 PUSH2 0x2DA1 DUP5 DUP3 DUP6 ADD PUSH2 0x293C JUMP JUMPDEST SWAP2 POP POP SWAP3 SWAP2 POP POP JUMP JUMPDEST PUSH2 0x2DB3 DUP2 PUSH2 0x2950 JUMP JUMPDEST DUP3 MSTORE POP POP JUMP JUMPDEST PUSH0 PUSH1 0x20 DUP3 ADD SWAP1 POP PUSH2 0x2DCC PUSH0 DUP4 ADD DUP5 PUSH2 0x2DAA JUMP JUMPDEST SWAP3 SWAP2 POP POP JUMP JUMPDEST PUSH0 DUP1 REVERT JUMPDEST PUSH32 0x4E487B7100000000000000000000000000000000000000000000000000000000 PUSH0 MSTORE PUSH1 0x41 PUSH1 0x4 MSTORE PUSH1 0x24 PUSH0 REVERT JUMPDEST PUSH2 0x2E0C DUP3 PUSH2 0x29E9 JUMP JUMPDEST DUP2 ADD DUP2 DUP2 LT PUSH8 0xFFFFFFFFFFFFFFFF DUP3 GT OR ISZERO PUSH2 0x2E2B JUMPI PUSH2 0x2E2A PUSH2 0x2DD6 JUMP JUMPDEST JUMPDEST DUP1 PUSH1 0x40 MSTORE POP POP POP JUMP JUMPDEST PUSH0 PUSH2 0x2E3D PUSH2 0x28E5 JUMP JUMPDEST SWAP1 POP PUSH2 0x2E49 DUP3 DUP3 PUSH2 0x2E03 JUMP JUMPDEST SWAP2 SWAP1 POP JUMP JUMPDEST PUSH2 0x2E57 DUP2 PUSH2 0x2A40 JUMP JUMPDEST DUP2 EQ PUSH2 0x2E61 JUMPI PUSH0 DUP1 REVERT JUMPDEST POP JUMP JUMPDEST PUSH0 DUP2 CALLDATALOAD SWAP1 POP PUSH2 0x2E72 DUP2 PUSH2 0x2E4E JUMP JUMPDEST SWAP3 SWAP2 POP POP JUMP JUMPDEST PUSH0 PUSH1 0xE0 DUP3 DUP5 SUB SLT ISZERO PUSH2 0x2E8D JUMPI PUSH2 0x2E8C PUSH2 0x2DD2 JUMP JUMPDEST JUMPDEST PUSH2 0x2E97 PUSH1 0xE0 PUSH2 0x2E34 JUMP JUMPDEST SWAP1 POP PUSH0 PUSH2 0x2EA6 DUP5 DUP3 DUP6 ADD PUSH2 0x2E64 JUMP JUMPDEST PUSH0 DUP4 ADD MSTORE POP PUSH1 0x20 PUSH2 0x2EB9 DUP5 DUP3 DUP6 ADD PUSH2 0x2E64 JUMP JUMPDEST PUSH1 0x20 DUP4 ADD MSTORE POP PUSH1 0x40 PUSH2 0x2ECD DUP5 DUP3 DUP6 ADD PUSH2 0x2E64 JUMP JUMPDEST PUSH1 0x40 DUP4 ADD MSTORE POP PUSH1 0x60 PUSH2 0x2EE1 DUP5 DUP3 DUP6 ADD PUSH2 0x2E64 JUMP JUMPDEST PUSH1 0x60 DUP4 ADD MSTORE POP PUSH1 0x80 PUSH2 0x2EF5 DUP5 DUP3 DUP6 ADD PUSH2 0x2E64 JUMP JUMPDEST PUSH1 0x80 DUP4 ADD MSTORE POP PUSH1 0xA0 PUSH2 0x2F09 DUP5 DUP3 DUP6 ADD PUSH2 0x2E64 JUMP JUMPDEST PUSH1 0xA0 DUP4 ADD MSTORE POP PUSH1 0xC0 PUSH2 0x2F1D DUP5 DUP3 DUP6 ADD PUSH2 0x2E64 JUMP JUMPDEST PUSH1 0xC0 DUP4 ADD MSTORE POP SWAP3 SWAP2 POP POP JUMP JUMPDEST PUSH0 DUP1 PUSH2 0x100 DUP4 DUP6 SUB SLT ISZERO PUSH2 0x2F40 JUMPI PUSH2 0x2F3F PUSH2 0x28EE JUMP JUMPDEST JUMPDEST PUSH0 PUSH2 0x2F4D DUP6 DUP3 DUP7 ADD PUSH2 0x2E78 JUMP JUMPDEST SWAP3 POP POP PUSH1 0xE0 PUSH2 0x2F5E DUP6 DUP3 DUP7 ADD PUSH2 0x296F JUMP JUMPDEST SWAP2 POP POP SWAP3 POP SWAP3 SWAP1 POP JUMP JUMPDEST PUSH0 DUP1 REVERT JUMPDEST PUSH0 PUSH8 0xFFFFFFFFFFFFFFFF DUP3 GT ISZERO PUSH2 0x2F86 JUMPI PUSH2 0x2F85 PUSH2 0x2DD6 JUMP JUMPDEST JUMPDEST PUSH2 0x2F8F DUP3 PUSH2 0x29E9 JUMP JUMPDEST SWAP1 POP PUSH1 0x20 DUP2 ADD SWAP1 POP SWAP2 SWAP1 POP JUMP JUMPDEST DUP3 DUP2 DUP4 CALLDATACOPY PUSH0 DUP4 DUP4 ADD MSTORE POP POP POP JUMP JUMPDEST PUSH0 PUSH2 0x2FBC PUSH2 0x2FB7 DUP5 PUSH2 0x2F6C JUMP JUMPDEST PUSH2 0x2E34 JUMP JUMPDEST SWAP1 POP DUP3 DUP2 MSTORE PUSH1 0x20 DUP2 ADD DUP5 DUP5 DUP5 ADD GT ISZERO PUSH2 0x2FD8 JUMPI PUSH2 0x2FD7 PUSH2 0x2F68 JUMP JUMPDEST JUMPDEST PUSH2 0x2FE3 DUP5 DUP3 DUP6 PUSH2 0x2F9C JUMP JUMPDEST POP SWAP4 SWAP3 POP POP POP JUMP JUMPDEST PUSH0 DUP3 PUSH1 0x1F DUP4 ADD SLT PUSH2 0x2FFF JUMPI PUSH2 0x2FFE PUSH2 0x2B7C JUMP JUMPDEST JUMPDEST DUP2 CALLDATALOAD PUSH2 0x300F DUP5 DUP3 PUSH1 0x20 DUP7 ADD PUSH2 0x2FAA JUMP JUMPDEST SWAP2 POP POP SWAP3 SWAP2 POP POP JUMP JUMPDEST PUSH0 DUP1 PUSH1 0x40 DUP4 DUP6 SUB SLT ISZERO PUSH2 0x302E JUMPI PUSH2 0x302D PUSH2 0x28EE JUMP JUMPDEST JUMPDEST PUSH0 DUP4 ADD CALLDATALOAD PUSH8 0xFFFFFFFFFFFFFFFF DUP2 GT ISZERO PUSH2 0x304B JUMPI PUSH2 0x304A PUSH2 0x28F2 JUMP JUMPDEST JUMPDEST PUSH2 0x3057 DUP6 DUP3 DUP7 ADD PUSH2 0x2FEB JUMP JUMPDEST SWAP3 POP POP PUSH1 0x20 PUSH2 0x3068 DUP6 DUP3 DUP7 ADD PUSH2 0x296F JUMP JUMPDEST SWAP2 POP POP SWAP3 POP SWAP3 SWAP1 POP JUMP JUMPDEST PUSH0 DUP2 ISZERO ISZERO SWAP1 POP SWAP2 SWAP1 POP JUMP JUMPDEST PUSH2 0x3086 DUP2 PUSH2 0x3072 JUMP JUMPDEST DUP3 MSTORE POP POP JUMP JUMPDEST PUSH0 PUSH1 0x20 DUP3 ADD SWAP1 POP PUSH2 0x309F PUSH0 DUP4 ADD DUP5 PUSH2 0x307D JUMP JUMPDEST SWAP3 SWAP2 POP POP JUMP JUMPDEST PUSH0 PUSH1 0x20 DUP3 DUP5 SUB SLT ISZERO PUSH2 0x30BA JUMPI PUSH2 0x30B9 PUSH2 0x28EE JUMP JUMPDEST JUMPDEST PUSH0 PUSH2 0x30C7 DUP5 DUP3 DUP6 ADD PUSH2 0x296F JUMP JUMPDEST SWAP2 POP POP SWAP3 SWAP2 POP POP JUMP JUMPDEST PUSH0 PUSH1 0xE0 DUP3 ADD SWAP1 POP PUSH2 0x30E3 PUSH0 DUP4 ADD DUP11 PUSH2 0x2CCF JUMP JUMPDEST PUSH2 0x30F0 PUSH1 0x20 DUP4 ADD DUP10 PUSH2 0x2CCF JUMP JUMPDEST PUSH2 0x30FD PUSH1 0x40 DUP4 ADD DUP9 PUSH2 0x2CCF JUMP JUMPDEST PUSH2 0x310A PUSH1 0x60 DUP4 ADD DUP8 PUSH2 0x2CCF JUMP JUMPDEST PUSH2 0x3117 PUSH1 0x80 DUP4 ADD DUP7 PUSH2 0x2CCF JUMP JUMPDEST PUSH2 0x3124 PUSH1 0xA0 DUP4 ADD DUP6 PUSH2 0x2CCF JUMP JUMPDEST PUSH2 0x3131 PUSH1 0xC0 DUP4 ADD DUP5 PUSH2 0x2CCF JUMP JUMPDEST SWAP9 SWAP8 POP POP POP POP POP POP POP POP JUMP JUMPDEST PUSH0 PUSH1 0x20 DUP3 ADD SWAP1 POP PUSH2 0x3150 PUSH0 DUP4 ADD DUP5 PUSH2 0x2CC0 JUMP JUMPDEST SWAP3 SWAP2 POP POP JUMP JUMPDEST PUSH0 PUSH32 0xFF00000000000000000000000000000000000000000000000000000000000000 DUP3 AND SWAP1 POP SWAP2 SWAP1 POP JUMP JUMPDEST PUSH2 0x318A DUP2 PUSH2 0x3156 JUMP JUMPDEST DUP3 MSTORE POP POP JUMP JUMPDEST PUSH2 0x3199 DUP2 PUSH2 0x2A40 JUMP JUMPDEST DUP3 MSTORE POP POP JUMP JUMPDEST PUSH0 DUP2 MLOAD SWAP1 POP SWAP2 SWAP1 POP JUMP JUMPDEST PUSH0 DUP3 DUP3 MSTORE PUSH1 0x20 DUP3 ADD SWAP1 POP SWAP3 SWAP2 POP POP JUMP JUMPDEST PUSH0 DUP2 SWAP1 POP PUSH1 0x20 DUP3 ADD SWAP1 POP SWAP2 SWAP1 POP JUMP JUMPDEST PUSH2 0x31D1 DUP2 PUSH2 0x2A40 JUMP JUMPDEST DUP3 MSTORE POP POP JUMP JUMPDEST PUSH0 PUSH2 0x31E2 DUP4 DUP4 PUSH2 0x31C8 JUMP JUMPDEST PUSH1 0x20 DUP4 ADD SWAP1 POP SWAP3 SWAP2 POP POP JUMP JUMPDEST PUSH0 PUSH1 0x20 DUP3 ADD SWAP1 POP SWAP2 SWAP1 POP JUMP JUMPDEST PUSH0 PUSH2 0x3204 DUP3 PUSH2 0x319F JUMP JUMPDEST PUSH2 0x320E DUP2 DUP6 PUSH2 0x31A9 JUMP JUMPDEST SWAP4 POP PUSH2 0x3219 DUP4 PUSH2 0x31B9 JUMP JUMPDEST DUP1 PUSH0 JUMPDEST DUP4 DUP2 LT ISZERO PUSH2 0x3249 JUMPI DUP2 MLOAD PUSH2 0x3230 DUP9 DUP3 PUSH2 0x31D7 JUMP JUMPDEST SWAP8 POP PUSH2 0x323B DUP4 PUSH2 0x31EE JUMP JUMPDEST SWAP3 POP POP PUSH1 0x1 DUP2 ADD SWAP1 POP PUSH2 0x321C JUMP JUMPDEST POP DUP6 SWAP4 POP POP POP POP SWAP3 SWAP2 POP POP JUMP JUMPDEST PUSH0 PUSH1 0xE0 DUP3 ADD SWAP1 POP PUSH2 0x3269 PUSH0 DUP4 ADD DUP11 PUSH2 0x3181 JUMP JUMPDEST DUP2 DUP2 SUB PUSH1 0x20 DUP4 ADD MSTORE PUSH2 0x327B DUP2 DUP10 PUSH2 0x2C88 JUMP JUMPDEST SWAP1 POP DUP2 DUP2 SUB PUSH1 0x40 DUP4 ADD MSTORE PUSH2 0x328F DUP2 DUP9 PUSH2 0x2C88 JUMP JUMPDEST SWAP1 POP PUSH2 0x329E PUSH1 0x60 DUP4 ADD DUP8 PUSH2 0x3190 JUMP JUMPDEST PUSH2 0x32AB PUSH1 0x80 DUP4 ADD DUP7 PUSH2 0x2CC0 JUMP JUMPDEST PUSH2 0x32B8 PUSH1 0xA0 DUP4 ADD DUP6 PUSH2 0x2DAA JUMP JUMPDEST DUP2 DUP2 SUB PUSH1 0xC0 DUP4 ADD MSTORE PUSH2 0x32CA DUP2 DUP5 PUSH2 0x31FA JUMP JUMPDEST SWAP1 POP SWAP9 SWAP8 POP POP POP POP POP POP POP POP JUMP JUMPDEST PUSH1 0xC0 DUP3 ADD PUSH0 DUP3 ADD MLOAD PUSH2 0x32EC PUSH0 DUP6 ADD DUP3 PUSH2 0x2A73 JUMP JUMPDEST POP PUSH1 0x20 DUP3 ADD MLOAD PUSH2 0x32FF PUSH1 0x20 DUP6 ADD DUP3 PUSH2 0x2A31 JUMP JUMPDEST POP PUSH1 0x40 DUP3 ADD MLOAD PUSH2 0x3312 PUSH1 0x40 DUP6 ADD DUP3 PUSH2 0x2A73 JUMP JUMPDEST POP PUSH1 0x60 DUP3 ADD MLOAD PUSH2 0x3325 PUSH1 0x60 DUP6 ADD DUP3 PUSH2 0x2A73 JUMP JUMPDEST POP PUSH1 0x80 DUP3 ADD MLOAD PUSH2 0x3338 PUSH1 0x80 DUP6 ADD DUP3 PUSH2 0x2A73 JUMP JUMPDEST POP PUSH1 0xA0 DUP3 ADD MLOAD PUSH2 0x334B PUSH1 0xA0 DUP6 ADD DUP3 PUSH2 0x2A31 JUMP JUMPDEST POP POP POP POP JUMP JUMPDEST PUSH0 PUSH1 0xC0 DUP3 ADD SWAP1 POP PUSH2 0x3364 PUSH0 DUP4 ADD DUP5 PUSH2 0x32D8 JUMP JUMPDEST SWAP3 SWAP2 POP POP JUMP JUMPDEST PUSH2 0x3373 DUP2 PUSH2 0x2A40 JUMP JUMPDEST DUP2 EQ PUSH2 0x337D JUMPI PUSH0 DUP1 REVERT JUMPDEST POP JUMP JUMPDEST PUSH0 DUP2 CALLDATALOAD SWAP1 POP PUSH2 0x338E DUP2 PUSH2 0x336A JUMP JUMPDEST SWAP3 SWAP2 POP POP JUMP JUMPDEST PUSH0 DUP1 PUSH1 0x40 DUP4 DUP6 SUB SLT ISZERO PUSH2 0x33AA JUMPI PUSH2 0x33A9 PUSH2 0x28EE JUMP JUMPDEST JUMPDEST PUSH0 DUP4 ADD CALLDATALOAD PUSH8 0xFFFFFFFFFFFFFFFF DUP2 GT ISZERO PUSH2 0x33C7 JUMPI PUSH2 0x33C6 PUSH2 0x28F2 JUMP JUMPDEST JUMPDEST PUSH2 0x33D3 DUP6 DUP3 DUP7 ADD PUSH2 0x2FEB JUMP JUMPDEST SWAP3 POP POP PUSH1 0x20 PUSH2 0x33E4 DUP6 DUP3 DUP7 ADD PUSH2 0x3380 JUMP JUMPDEST SWAP2 POP POP SWAP3 POP SWAP3 SWAP1 POP JUMP JUMPDEST PUSH0 DUP1 PUSH1 0x40 DUP4 DUP6 SUB SLT ISZERO PUSH2 0x3404 JUMPI PUSH2 0x3403 PUSH2 0x28EE JUMP JUMPDEST JUMPDEST PUSH0 PUSH2 0x3411 DUP6 DUP3 DUP7 ADD PUSH2 0x296F JUMP JUMPDEST SWAP3 POP POP PUSH1 0x20 PUSH2 0x3422 DUP6 DUP3 DUP7 ADD PUSH2 0x3380 JUMP JUMPDEST SWAP2 POP POP SWAP3 POP SWAP3 SWAP1 POP JUMP JUMPDEST PUSH0 PUSH1 0xC0 DUP3 ADD SWAP1 POP PUSH2 0x343F PUSH0 DUP4 ADD DUP10 PUSH2 0x2CCF JUMP JUMPDEST PUSH2 0x344C PUSH1 0x20 DUP4 ADD DUP9 PUSH2 0x2CC0 JUMP JUMPDEST PUSH2 0x3459 PUSH1 0x40 DUP4 ADD DUP8 PUSH2 0x2CCF JUMP JUMPDEST PUSH2 0x3466 PUSH1 0x60 DUP4 ADD DUP7 PUSH2 0x2CCF JUMP JUMPDEST PUSH2 0x3473 PUSH1 0x80 DUP4 ADD DUP6 PUSH2 0x2CCF JUMP JUMPDEST PUSH2 0x3480 PUSH1 0xA0 DUP4 ADD DUP5 PUSH2 0x2CC0 JUMP JUMPDEST SWAP8 SWAP7 POP POP POP POP POP POP POP JUMP JUMPDEST PUSH0 DUP1 PUSH0 PUSH1 0x60 DUP5 DUP7 SUB SLT ISZERO PUSH2 0x34A2 JUMPI PUSH2 0x34A1 PUSH2 0x28EE JUMP JUMPDEST JUMPDEST PUSH0 DUP5 ADD CALLDATALOAD PUSH8 0xFFFFFFFFFFFFFFFF DUP2 GT ISZERO PUSH2 0x34BF JUMPI PUSH2 0x34BE PUSH2 0x28F2 JUMP JUMPDEST JUMPDEST PUSH2 0x34CB DUP7 DUP3 DUP8 ADD PUSH2 0x2FEB JUMP JUMPDEST SWAP4 POP POP PUSH1 0x20 PUSH2 0x34DC DUP7 DUP3 DUP8 ADD PUSH2 0x293C JUMP JUMPDEST SWAP3 POP POP PUSH1 0x40 PUSH2 0x34ED DUP7 DUP3 DUP8 ADD PUSH2 0x296F JUMP JUMPDEST SWAP2 POP POP SWAP3 POP SWAP3 POP SWAP3 JUMP JUMPDEST PUSH32 0x4E487B7100000000000000000000000000000000000000000000000000000000 PUSH0 MSTORE PUSH1 0x22 PUSH1 0x4 MSTORE PUSH1 0x24 PUSH0 REVERT JUMPDEST PUSH0 PUSH1 0x2 DUP3 DIV SWAP1 POP PUSH1 0x1 DUP3 AND DUP1 PUSH2 0x353B JUMPI PUSH1 0x7F DUP3 AND SWAP2 POP JUMPDEST PUSH1 0x20 DUP3 LT DUP2 SUB PUSH2 0x354E JUMPI PUSH2 0x354D PUSH2 0x34F7 JUMP JUMPDEST JUMPDEST POP SWAP2 SWAP1 POP JUMP JUMPDEST PUSH0 DUP3 DUP3 MSTORE PUSH1 0x20 DUP3 ADD SWAP1 POP SWAP3 SWAP2 POP POP JUMP JUMPDEST PUSH0 PUSH2 0x356F DUP4 DUP6 PUSH2 0x3554 JUMP JUMPDEST SWAP4 POP PUSH2 0x357C DUP4 DUP6 DUP5 PUSH2 0x2F9C JUMP JUMPDEST PUSH2 0x3585 DUP4 PUSH2 0x29E9 JUMP JUMPDEST DUP5 ADD SWAP1 POP SWAP4 SWAP3 POP POP POP JUMP JUMPDEST PUSH0 PUSH1 0x20 DUP3 ADD SWAP1 POP DUP2 DUP2 SUB PUSH0 DUP4 ADD MSTORE PUSH2 0x35A9 DUP2 DUP5 DUP7 PUSH2 0x3564 JUMP JUMPDEST SWAP1 POP SWAP4 SWAP3 POP POP POP JUMP JUMPDEST PUSH0 DUP2 SWAP1 POP DUP2 PUSH0 MSTORE PUSH1 0x20 PUSH0 KECCAK256 SWAP1 POP SWAP2 SWAP1 POP JUMP JUMPDEST PUSH0 PUSH1 0x20 PUSH1 0x1F DUP4 ADD DIV SWAP1 POP SWAP2 SWAP1 POP JUMP JUMPDEST PUSH0 DUP3 DUP3 SHL SWAP1 POP SWAP3 SWAP2 POP POP JUMP JUMPDEST PUSH0 PUSH1 0x8 DUP4 MUL PUSH2 0x360E PUSH32 0xFFFFFFFFFFFFFFFFFFFFFFFFFFFFFFFFFFFFFFFFFFFFFFFFFFFFFFFFFFFFFFFF DUP3 PUSH2 0x35D3 JUMP JUMPDEST PUSH2 0x3618 DUP7 DUP4 PUSH2 0x35D3 JUMP JUMPDEST SWAP6 POP DUP1 NOT DUP5 AND SWAP4 POP DUP1 DUP7 AND DUP5 OR SWAP3 POP POP POP SWAP4 SWAP3 POP POP POP JUMP JUMPDEST PUSH0 DUP2 SWAP1 POP SWAP2 SWAP1 POP JUMP JUMPDEST PUSH2 0x3642 DUP4 PUSH2 0x2A52 JUMP JUMPDEST PUSH2 0x3656 PUSH2 0x364E DUP3 PUSH2 0x3630 JUMP JUMPDEST DUP5 DUP5 SLOAD PUSH2 0x35DF JUMP JUMPDEST DUP3 SSTORE POP POP POP POP JUMP JUMPDEST PUSH0 SWAP1 JUMP JUMPDEST PUSH2 0x366A PUSH2 0x365E JUMP JUMPDEST PUSH2 0x3675 DUP2 DUP5 DUP5 PUSH2 0x3639 JUMP JUMPDEST POP POP POP JUMP JUMPDEST JUMPDEST DUP2 DUP2 LT ISZERO PUSH2 0x3698 JUMPI PUSH2 0x368D PUSH0 DUP3 PUSH2 0x3662 JUMP JUMPDEST PUSH1 0x1 DUP2 ADD SWAP1 POP PUSH2 0x367B JUMP JUMPDEST POP POP JUMP JUMPDEST PUSH1 0x1F DUP3 GT ISZERO PUSH2 0x36DD JUMPI PUSH2 0x36AE DUP2 PUSH2 0x35B2 JUMP JUMPDEST PUSH2 0x36B7 DUP5 PUSH2 0x35C4 JUMP JUMPDEST DUP2 ADD PUSH1 0x20 DUP6 LT ISZERO PUSH2 0x36C6 JUMPI DUP2 SWAP1 POP JUMPDEST PUSH2 0x36DA PUSH2 0x36D2 DUP6 PUSH2 0x35C4 JUMP JUMPDEST DUP4 ADD DUP3 PUSH2 0x367A JUMP JUMPDEST POP POP JUMPDEST POP POP POP JUMP JUMPDEST PUSH0 DUP3 DUP3 SHR SWAP1 POP SWAP3 SWAP2 POP POP JUMP JUMPDEST PUSH0 PUSH2 0x36FD PUSH0 NOT DUP5 PUSH1 0x8 MUL PUSH2 0x36E2 JUMP JUMPDEST NOT DUP1 DUP4 AND SWAP2 POP POP SWAP3 SWAP2 POP POP JUMP JUMPDEST PUSH0 PUSH2 0x3715 DUP4 DUP4 PUSH2 0x36EE JUMP JUMPDEST SWAP2 POP DUP3 PUSH1 0x2 MUL DUP3 OR SWAP1 POP SWAP3 SWAP2 POP POP JUMP JUMPDEST PUSH2 0x372E DUP3 PUSH2 0x29C1 JUMP JUMPDEST PUSH8 0xFFFFFFFFFFFFFFFF DUP2 GT ISZERO PUSH2 0x3747 JUMPI PUSH2 0x3746 PUSH2 0x2DD6 JUMP JUMPDEST JUMPDEST PUSH2 0x3751 DUP3 SLOAD PUSH2 0x3524 JUMP JUMPDEST PUSH2 0x375C DUP3 DUP3 DUP6 PUSH2 0x369C JUMP JUMPDEST PUSH0 PUSH1 0x20 SWAP1 POP PUSH1 0x1F DUP4 GT PUSH1 0x1 DUP2 EQ PUSH2 0x378D JUMPI PUSH0 DUP5 ISZERO PUSH2 0x377B JUMPI DUP3 DUP8 ADD MLOAD SWAP1 POP JUMPDEST PUSH2 0x3785 DUP6 DUP3 PUSH2 0x370A JUMP JUMPDEST DUP7 SSTORE POP PUSH2 0x37EC JUMP JUMPDEST PUSH1 0x1F NOT DUP5 AND PUSH2 0x379B DUP7 PUSH2 0x35B2 JUMP JUMPDEST PUSH0 JUMPDEST DUP3 DUP2 LT ISZERO PUSH2 0x37C2 JUMPI DUP5 DUP10 ADD MLOAD DUP3 SSTORE PUSH1 0x1 DUP3 ADD SWAP2 POP PUSH1 0x20 DUP6 ADD SWAP5 POP PUSH1 0x20 DUP2 ADD SWAP1 POP PUSH2 0x379D JUMP JUMPDEST DUP7 DUP4 LT ISZERO PUSH2 0x37DF JUMPI DUP5 DUP10 ADD MLOAD PUSH2 0x37DB PUSH1 0x1F DUP10 AND DUP3 PUSH2 0x36EE JUMP JUMPDEST DUP4 SSTORE POP JUMPDEST PUSH1 0x1 PUSH1 0x2 DUP9 MUL ADD DUP9 SSTORE POP POP POP JUMPDEST POP POP POP POP POP POP JUMP JUMPDEST PUSH0 PUSH1 0x20 DUP3 ADD SWAP1 POP DUP2 DUP2 SUB PUSH0 DUP4 ADD MSTORE PUSH2 0x380C DUP2 DUP5 PUSH2 0x2C88 JUMP JUMPDEST SWAP1 POP SWAP3 SWAP2 POP POP JUMP JUMPDEST PUSH32 0x6E6F74206120656D706C6F796565000000000000000000000000000000000000 PUSH0 DUP3 ADD MSTORE POP JUMP JUMPDEST PUSH0 PUSH2 0x3848 PUSH1 0xE DUP4 PUSH2 0x2C78 JUMP JUMPDEST SWAP2 POP PUSH2 0x3853 DUP3 PUSH2 0x3814 JUMP JUMPDEST PUSH1 0x20 DUP3 ADD SWAP1 POP SWAP2 SWAP1 POP JUMP JUMPDEST PUSH0 PUSH1 0x20 DUP3 ADD SWAP1 POP DUP2 DUP2 SUB PUSH0 DUP4 ADD MSTORE PUSH2 0x3875 DUP2 PUSH2 0x383C JUMP JUMPDEST SWAP1 POP SWAP2 SWAP1 POP JUMP JUMPDEST PUSH0 DUP2 SWAP1 POP SWAP3 SWAP2 POP POP JUMP JUMPDEST PUSH32 0x4545524332300000000000000000000000000000000000000000000000000000 PUSH0 DUP3 ADD MSTORE POP JUMP JUMPDEST PUSH0 PUSH2 0x38BA PUSH1 0x6 DUP4 PUSH2 0x387C JUMP JUMPDEST SWAP2 POP PUSH2 0x38C5 DUP3 PUSH2 0x3886 JUMP JUMPDEST PUSH1 0x6 DUP3 ADD SWAP1 POP SWAP2 SWAP1 POP JUMP JUMPDEST PUSH0 PUSH2 0x38DA DUP3 PUSH2 0x29C1 JUMP JUMPDEST PUSH2 0x38E4 DUP2 DUP6 PUSH2 0x387C JUMP JUMPDEST SWAP4 POP PUSH2 0x38F4 DUP2 DUP6 PUSH1 0x20 DUP7 ADD PUSH2 0x29DB JUMP JUMPDEST DUP1 DUP5 ADD SWAP2 POP POP SWAP3 SWAP2 POP POP JUMP JUMPDEST PUSH0 PUSH2 0x390A DUP3 PUSH2 0x38AE JUMP JUMPDEST SWAP2 POP PUSH2 0x3916 DUP3 DUP5 PUSH2 0x38D0 JUMP JUMPDEST SWAP2 POP DUP2 SWAP1 POP SWAP3 SWAP2 POP POP JUMP JUMPDEST PUSH0 DUP2 SWAP1 POP SWAP2 SWAP1 POP JUMP JUMPDEST PUSH2 0x393B PUSH2 0x3936 DUP3 PUSH2 0x2A40 JUMP JUMPDEST PUSH2 0x3921 JUMP JUMPDEST DUP3 MSTORE POP POP JUMP JUMPDEST PUSH0 PUSH2 0x394C DUP3 DUP6 PUSH2 0x38D0 JUMP JUMPDEST SWAP2 POP PUSH2 0x3958 DUP3 DUP5 PUSH2 0x392A JUMP JUMPDEST PUSH1 0x20 DUP3 ADD SWAP2 POP DUP2 SWAP1 POP SWAP4 SWAP3 POP POP POP JUMP JUMPDEST PUSH32 0x636F6D70616E7920616C72656164792065786973740000000000000000000000 PUSH0 DUP3 ADD MSTORE POP JUMP JUMPDEST PUSH0 PUSH2 0x399C PUSH1 0x15 DUP4 PUSH2 0x2C78 JUMP JUMPDEST SWAP2 POP PUSH2 0x39A7 DUP3 PUSH2 0x3968 JUMP JUMPDEST PUSH1 0x20 DUP3 ADD SWAP1 POP SWAP2 SWAP1 POP JUMP JUMPDEST PUSH0 PUSH1 0x20 DUP3 ADD SWAP1 POP DUP2 DUP2 SUB PUSH0 DUP4 ADD MSTORE PUSH2 0x39C9 DUP2 PUSH2 0x3990 JUMP JUMPDEST SWAP1 POP SWAP2 SWAP1 POP JUMP JUMPDEST PUSH32 0x4E487B7100000000000000000000000000000000000000000000000000000000 PUSH0 MSTORE PUSH1 0x32 PUSH1 0x4 MSTORE PUSH1 0x24 PUSH0 REVERT JUMPDEST PUSH32 0x63616C6C6572206973206E6F742061646D696E00000000000000000000000000 PUSH0 DUP3 ADD MSTORE POP JUMP JUMPDEST PUSH0 PUSH2 0x3A31 PUSH1 0x13 DUP4 PUSH2 0x2C78 JUMP JUMPDEST SWAP2 POP PUSH2 0x3A3C DUP3 PUSH2 0x39FD JUMP JUMPDEST PUSH1 0x20 DUP3 ADD SWAP1 POP SWAP2 SWAP1 POP JUMP JUMPDEST PUSH0 PUSH1 0x20 DUP3 ADD SWAP1 POP DUP2 DUP2 SUB PUSH0 DUP4 ADD MSTORE PUSH2 0x3A5E DUP2 PUSH2 0x3A25 JUMP JUMPDEST SWAP1 POP SWAP2 SWAP1 POP JUMP JUMPDEST PUSH0 DUP2 MLOAD SWAP1 POP SWAP2 SWAP1 POP JUMP JUMPDEST PUSH0 DUP2 SWAP1 POP SWAP3 SWAP2 POP POP JUMP JUMPDEST PUSH0 PUSH2 0x3A83 DUP3 PUSH2 0x3A65 JUMP JUMPDEST PUSH2 0x3A8D DUP2 DUP6 PUSH2 0x3A6F JUMP JUMPDEST SWAP4 POP PUSH2 0x3A9D DUP2 DUP6 PUSH1 0x20 DUP7 ADD PUSH2 0x29DB JUMP JUMPDEST DUP1 DUP5 ADD SWAP2 POP POP SWAP3 SWAP2 POP POP JUMP JUMPDEST PUSH0 DUP2 SWAP1 POP SWAP2 SWAP1 POP JUMP JUMPDEST PUSH2 0x3AC3 PUSH2 0x3ABE DUP3 PUSH2 0x3156 JUMP JUMPDEST PUSH2 0x3AA9 JUMP JUMPDEST DUP3 MSTORE POP POP JUMP JUMPDEST PUSH0 PUSH2 0x3AD4 DUP3 DUP6 PUSH2 0x3A79 JUMP JUMPDEST SWAP2 POP PUSH2 0x3AE0 DUP3 DUP5 PUSH2 0x3AB2 JUMP JUMPDEST PUSH1 0x1 DUP3 ADD SWAP2 POP DUP2 SWAP1 POP SWAP4 SWAP3 POP POP POP JUMP JUMPDEST PUSH0 PUSH2 0x3AFA DUP3 PUSH2 0x3A65 JUMP JUMPDEST PUSH2 0x3B04 DUP2 DUP6 PUSH2 0x3554 JUMP JUMPDEST SWAP4 POP PUSH2 0x3B14 DUP2 DUP6 PUSH1 0x20 DUP7 ADD PUSH2 0x29DB JUMP JUMPDEST PUSH2 0x3B1D DUP2 PUSH2 0x29E9 JUMP JUMPDEST DUP5 ADD SWAP2 POP POP SWAP3 SWAP2 POP POP JUMP JUMPDEST PUSH0 PUSH1 0x20 DUP3 ADD SWAP1 POP DUP2 DUP2 SUB PUSH0 DUP4 ADD MSTORE PUSH2 0x3B40 DUP2 DUP5 PUSH2 0x3AF0 JUMP JUMPDEST SWAP1 POP SWAP3 SWAP2 POP POP JUMP JUMPDEST PUSH0 DUP2 MLOAD SWAP1 POP PUSH2 0x3B56 DUP2 PUSH2 0x336A JUMP JUMPDEST SWAP3 SWAP2 POP POP JUMP JUMPDEST PUSH0 PUSH1 0x20 DUP3 DUP5 SUB SLT ISZERO PUSH2 0x3B71 JUMPI PUSH2 0x3B70 PUSH2 0x28EE JUMP JUMPDEST JUMPDEST PUSH0 PUSH2 0x3B7E DUP5 DUP3 DUP6 ADD PUSH2 0x3B48 JUMP JUMPDEST SWAP2 POP POP SWAP3 SWAP2 POP POP JUMP JUMPDEST PUSH0 PUSH1 0x60 DUP3 ADD SWAP1 POP PUSH2 0x3B9A PUSH0 DUP4 ADD DUP7 PUSH2 0x3190 JUMP JUMPDEST PUSH2 0x3BA7 PUSH1 0x20 DUP4 ADD DUP6 PUSH2 0x3190 JUMP JUMPDEST PUSH2 0x3BB4 PUSH1 0x40 DUP4 ADD DUP5 PUSH2 0x3181 JUMP JUMPDEST SWAP5 SWAP4 POP POP POP POP JUMP JUMPDEST PUSH0 PUSH1 0x40 DUP3 ADD SWAP1 POP PUSH2 0x3BCF PUSH0 DUP4 ADD DUP6 PUSH2 0x3190 JUMP JUMPDEST PUSH2 0x3BDC PUSH1 0x20 DUP4 ADD DUP5 PUSH2 0x3181 JUMP JUMPDEST SWAP4 SWAP3 POP POP POP JUMP JUMPDEST PUSH0 PUSH1 0x20 DUP3 ADD SWAP1 POP PUSH2 0x3BF6 PUSH0 DUP4 ADD DUP5 PUSH2 0x3190 JUMP JUMPDEST SWAP3 SWAP2 POP POP JUMP JUMPDEST PUSH0 PUSH1 0x60 DUP3 ADD SWAP1 POP PUSH2 0x3C0F PUSH0 DUP4 ADD DUP7 PUSH2 0x3190 JUMP JUMPDEST PUSH2 0x3C1C PUSH1 0x20 DUP4 ADD DUP6 PUSH2 0x3190 JUMP JUMPDEST PUSH2 0x3C29 PUSH1 0x40 DUP4 ADD DUP5 PUSH2 0x3190 JUMP JUMPDEST SWAP5 SWAP4 POP POP POP POP JUMP INVALID PUSH2 0x160 PUSH1 0x40 MSTORE CALLVALUE DUP1 ISZERO PUSH2 0x10 JUMPI PUSH0 DUP1 REVERT JUMPDEST POP PUSH1 0x40 MLOAD PUSH2 0x206E CODESIZE SUB DUP1 PUSH2 0x206E DUP4 CODECOPY DUP2 DUP2 ADD PUSH1 0x40 MSTORE DUP2 ADD SWAP1 PUSH2 0x32 SWAP2 SWAP1 PUSH2 0x403 JUMP JUMPDEST PUSH1 0x40 MLOAD DUP1 PUSH1 0x40 ADD PUSH1 0x40 MSTORE DUP1 PUSH1 0x13 DUP2 MSTORE PUSH1 0x20 ADD PUSH32 0x417574686F72697A6174696F6E20746F6B656E00000000000000000000000000 DUP2 MSTORE POP PUSH1 0x40 MLOAD DUP1 PUSH1 0x40 ADD PUSH1 0x40 MSTORE DUP1 PUSH1 0x1 DUP2 MSTORE PUSH1 0x20 ADD PUSH32 0x3100000000000000000000000000000000000000000000000000000000000000 DUP2 MSTORE POP DUP2 DUP2 PUSH2 0xB3 PUSH0 DUP4 PUSH2 0x1A1 PUSH1 0x20 SHL SWAP1 SWAP2 SWAP1 PUSH1 0x20 SHR JUMP JUMPDEST PUSH2 0x120 DUP2 DUP2 MSTORE POP POP PUSH2 0xCF PUSH1 0x1 DUP3 PUSH2 0x1A1 PUSH1 0x20 SHL SWAP1 SWAP2 SWAP1 PUSH1 0x20 SHR JUMP JUMPDEST PUSH2 0x140 DUP2 DUP2 MSTORE POP POP DUP2 DUP1 MLOAD SWAP1 PUSH1 0x20 ADD KECCAK256 PUSH1 0xE0 DUP2 DUP2 MSTORE POP POP DUP1 DUP1 MLOAD SWAP1 PUSH1 0x20 ADD KECCAK256 PUSH2 0x100 DUP2 DUP2 MSTORE POP POP CHAINID PUSH1 0xA0 DUP2 DUP2 MSTORE POP POP PUSH2 0x10C PUSH2 0x1EE PUSH1 0x20 SHL PUSH1 0x20 SHR JUMP JUMPDEST PUSH1 0x80 DUP2 DUP2 MSTORE POP POP ADDRESS PUSH20 0xFFFFFFFFFFFFFFFFFFFFFFFFFFFFFFFFFFFFFFFF AND PUSH1 0xC0 DUP2 PUSH20 0xFFFFFFFFFFFFFFFFFFFFFFFFFFFFFFFFFFFFFFFF AND DUP2 MSTORE POP POP POP POP POP POP CALLER PUSH1 0x6 PUSH0 PUSH2 0x100 EXP DUP2 SLOAD DUP2 PUSH20 0xFFFFFFFFFFFFFFFFFFFFFFFFFFFFFFFFFFFFFFFF MUL NOT AND SWAP1 DUP4 PUSH20 0xFFFFFFFFFFFFFFFFFFFFFFFFFFFFFFFFFFFFFFFF AND MUL OR SWAP1 SSTORE POP DUP1 PUSH1 0x3 SWAP1 DUP2 PUSH2 0x19A SWAP2 SWAP1 PUSH2 0x657 JUMP JUMPDEST POP POP PUSH2 0x8D8 JUMP JUMPDEST PUSH0 PUSH1 0x20 DUP4 MLOAD LT ISZERO PUSH2 0x1C2 JUMPI PUSH2 0x1BB DUP4 PUSH2 0x248 PUSH1 0x20 SHL PUSH1 0x20 SHR JUMP JUMPDEST SWAP1 POP PUSH2 0x1E8 JUMP JUMPDEST DUP3 PUSH2 0x1D2 DUP4 PUSH2 0x2AD PUSH1 0x20 SHL PUSH1 0x20 SHR JUMP JUMPDEST PUSH0 ADD SWAP1 DUP2 PUSH2 0x1E0 SWAP2 SWAP1 PUSH2 0x657 JUMP JUMPDEST POP PUSH1 0xFF PUSH0 SHL SWAP1 POP JUMPDEST SWAP3 SWAP2 POP POP JUMP JUMPDEST PUSH0 PUSH32 0x8B73C3C69BB8FE3D512ECC4CF759CC79239F7B179B0FFACAA9A75D522B39400F PUSH1 0xE0 MLOAD PUSH2 0x100 MLOAD CHAINID ADDRESS PUSH1 0x40 MLOAD PUSH1 0x20 ADD PUSH2 0x22D SWAP6 SWAP5 SWAP4 SWAP3 SWAP2 SWAP1 PUSH2 0x78C JUMP JUMPDEST PUSH1 0x40 MLOAD PUSH1 0x20 DUP2 DUP4 SUB SUB DUP2 MSTORE SWAP1 PUSH1 0x40 MSTORE DUP1 MLOAD SWAP1 PUSH1 0x20 ADD KECCAK256 SWAP1 POP SWAP1 JUMP JUMPDEST PUSH0 DUP1 DUP3 SWAP1 POP PUSH1 0x1F DUP2 MLOAD GT ISZERO PUSH2 0x294 JUMPI DUP3 PUSH1 0x40 MLOAD PUSH32 0x305A27A900000000000000000000000000000000000000000000000000000000 DUP2 MSTORE PUSH1 0x4 ADD PUSH2 0x28B SWAP2 SWAP1 PUSH2 0x825 JUMP JUMPDEST PUSH1 0x40 MLOAD DUP1 SWAP2 SUB SWAP1 REVERT JUMPDEST DUP1 MLOAD DUP2 PUSH2 0x2A0 SWAP1 PUSH2 0x872 JUMP JUMPDEST PUSH0 SHR OR PUSH0 SHL SWAP2 POP POP SWAP2 SWAP1 POP JUMP JUMPDEST PUSH0 DUP2 SWAP1 POP SWAP2 SWAP1 POP JUMP JUMPDEST PUSH0 PUSH1 0x40 MLOAD SWAP1 POP SWAP1 JUMP JUMPDEST PUSH0 DUP1 REVERT JUMPDEST PUSH0 DUP1 REVERT JUMPDEST PUSH0 DUP1 REVERT JUMPDEST PUSH0 DUP1 REVERT JUMPDEST PUSH0 PUSH1 0x1F NOT PUSH1 0x1F DUP4 ADD AND SWAP1 POP SWAP2 SWAP1 POP JUMP JUMPDEST PUSH32 0x4E487B7100000000000000000000000000000000000000000000000000000000 PUSH0 MSTORE PUSH1 0x41 PUSH1 0x4 MSTORE PUSH1 0x24 PUSH0 REVERT JUMPDEST PUSH2 0x315 DUP3 PUSH2 0x2CF JUMP JUMPDEST DUP2 ADD DUP2 DUP2 LT PUSH8 0xFFFFFFFFFFFFFFFF DUP3 GT OR ISZERO PUSH2 0x334 JUMPI PUSH2 0x333 PUSH2 0x2DF JUMP JUMPDEST JUMPDEST DUP1 PUSH1 0x40 MSTORE POP POP POP JUMP JUMPDEST PUSH0 PUSH2 0x346 PUSH2 0x2B6 JUMP JUMPDEST SWAP1 POP PUSH2 0x352 DUP3 DUP3 PUSH2 0x30C JUMP JUMPDEST SWAP2 SWAP1 POP JUMP JUMPDEST PUSH0 PUSH8 0xFFFFFFFFFFFFFFFF DUP3 GT ISZERO PUSH2 0x371 JUMPI PUSH2 0x370 PUSH2 0x2DF JUMP JUMPDEST JUMPDEST PUSH2 0x37A DUP3 PUSH2 0x2CF JUMP JUMPDEST SWAP1 POP PUSH1 0x20 DUP2 ADD SWAP1 POP SWAP2 SWAP1 POP JUMP JUMPDEST DUP3 DUP2 DUP4 MCOPY PUSH0 DUP4 DUP4 ADD MSTORE POP POP POP JUMP JUMPDEST PUSH0 PUSH2 0x3A7 PUSH2 0x3A2 DUP5 PUSH2 0x357 JUMP JUMPDEST PUSH2 0x33D JUMP JUMPDEST SWAP1 POP DUP3 DUP2 MSTORE PUSH1 0x20 DUP2 ADD DUP5 DUP5 DUP5 ADD GT ISZERO PUSH2 0x3C3 JUMPI PUSH2 0x3C2 PUSH2 0x2CB JUMP JUMPDEST JUMPDEST PUSH2 0x3CE DUP5 DUP3 DUP6 PUSH2 0x387 JUMP JUMPDEST POP SWAP4 SWAP3 POP POP POP JUMP JUMPDEST PUSH0 DUP3 PUSH1 0x1F DUP4 ADD SLT PUSH2 0x3EA JUMPI PUSH2 0x3E9 PUSH2 0x2C7 JUMP JUMPDEST JUMPDEST DUP2 MLOAD PUSH2 0x3FA DUP5 DUP3 PUSH1 0x20 DUP7 ADD PUSH2 0x395 JUMP JUMPDEST SWAP2 POP POP SWAP3 SWAP2 POP POP JUMP JUMPDEST PUSH0 PUSH1 0x20 DUP3 DUP5 SUB SLT ISZERO PUSH2 0x418 JUMPI PUSH2 0x417 PUSH2 0x2BF JUMP JUMPDEST JUMPDEST PUSH0 DUP3 ADD MLOAD PUSH8 0xFFFFFFFFFFFFFFFF DUP2 GT ISZERO PUSH2 0x435 JUMPI PUSH2 0x434 PUSH2 0x2C3 JUMP JUMPDEST JUMPDEST PUSH2 0x441 DUP5 DUP3 DUP6 ADD PUSH2 0x3D6 JUMP JUMPDEST SWAP2 POP POP SWAP3 SWAP2 POP POP JUMP JUMPDEST PUSH0 DUP2 MLOAD SWAP1 POP SWAP2 SWAP1 POP JUMP JUMPDEST PUSH32 0x4E487B7100000000000000000000000000000000000000000000000000000000 PUSH0 MSTORE PUSH1 0x22 PUSH1 0x4 MSTORE PUSH1 0x24 PUSH0 REVERT JUMPDEST PUSH0 PUSH1 0x2 DUP3 DIV SWAP1 POP PUSH1 0x1 DUP3 AND DUP1 PUSH2 0x498 JUMPI PUSH1 0x7F DUP3 AND SWAP2 POP JUMPDEST PUSH1 0x20 DUP3 LT DUP2 SUB PUSH2 0x4AB JUMPI PUSH2 0x4AA PUSH2 0x454 JUMP JUMPDEST JUMPDEST POP SWAP2 SWAP1 POP JUMP JUMPDEST PUSH0 DUP2 SWAP1 POP DUP2 PUSH0 MSTORE PUSH1 0x20 PUSH0 KECCAK256 SWAP1 POP SWAP2 SWAP1 POP JUMP JUMPDEST PUSH0 PUSH1 0x20 PUSH1 0x1F DUP4 ADD DIV SWAP1 POP SWAP2 SWAP1 POP JUMP JUMPDEST PUSH0 DUP3 DUP3 SHL SWAP1 POP SWAP3 SWAP2 POP POP JUMP JUMPDEST PUSH0 PUSH1 0x8 DUP4 MUL PUSH2 0x50D PUSH32 0xFFFFFFFFFFFFFFFFFFFFFFFFFFFFFFFFFFFFFFFFFFFFFFFFFFFFFFFFFFFFFFFF DUP3 PUSH2 0x4D2 JUMP JUMPDEST PUSH2 0x517 DUP7 DUP4 PUSH2 0x4D2 JUMP JUMPDEST SWAP6 POP DUP1 NOT DUP5 AND SWAP4 POP DUP1 DUP7 AND DUP5 OR SWAP3 POP POP POP SWAP4 SWAP3 POP POP POP JUMP JUMPDEST PUSH0 DUP2 SWAP1 POP SWAP2 SWAP1 POP JUMP JUMPDEST PUSH0 DUP2 SWAP1 POP SWAP2 SWAP1 POP JUMP JUMPDEST PUSH0 PUSH2 0x55B PUSH2 0x556 PUSH2 0x551 DUP5 PUSH2 0x52F JUMP JUMPDEST PUSH2 0x538 JUMP JUMPDEST PUSH2 0x52F JUMP JUMPDEST SWAP1 POP SWAP2 SWAP1 POP JUMP JUMPDEST PUSH0 DUP2 SWAP1 POP SWAP2 SWAP1 POP JUMP JUMPDEST PUSH2 0x574 DUP4 PUSH2 0x541 JUMP JUMPDEST PUSH2 0x588 PUSH2 0x580 DUP3 PUSH2 0x562 JUMP JUMPDEST DUP5 DUP5 SLOAD PUSH2 0x4DE JUMP JUMPDEST DUP3 SSTORE POP POP POP POP JUMP JUMPDEST PUSH0 SWAP1 JUMP JUMPDEST PUSH2 0x59C PUSH2 0x590 JUMP JUMPDEST PUSH2 0x5A7 DUP2 DUP5 DUP5 PUSH2 0x56B JUMP JUMPDEST POP POP POP JUMP JUMPDEST JUMPDEST DUP2 DUP2 LT ISZERO PUSH2 0x5CA JUMPI PUSH2 0x5BF PUSH0 DUP3 PUSH2 0x594 JUMP JUMPDEST PUSH1 0x1 DUP2 ADD SWAP1 POP PUSH2 0x5AD JUMP JUMPDEST POP POP JUMP JUMPDEST PUSH1 0x1F DUP3 GT ISZERO PUSH2 0x60F JUMPI PUSH2 0x5E0 DUP2 PUSH2 0x4B1 JUMP JUMPDEST PUSH2 0x5E9 DUP5 PUSH2 0x4C3 JUMP JUMPDEST DUP2 ADD PUSH1 0x20 DUP6 LT ISZERO PUSH2 0x5F8 JUMPI DUP2 SWAP1 POP JUMPDEST PUSH2 0x60C PUSH2 0x604 DUP6 PUSH2 0x4C3 JUMP JUMPDEST DUP4 ADD DUP3 PUSH2 0x5AC JUMP JUMPDEST POP POP JUMPDEST POP POP POP JUMP JUMPDEST PUSH0 DUP3 DUP3 SHR SWAP1 POP SWAP3 SWAP2 POP POP JUMP JUMPDEST PUSH0 PUSH2 0x62F PUSH0 NOT DUP5 PUSH1 0x8 MUL PUSH2 0x614 JUMP JUMPDEST NOT DUP1 DUP4 AND SWAP2 POP POP SWAP3 SWAP2 POP POP JUMP JUMPDEST PUSH0 PUSH2 0x647 DUP4 DUP4 PUSH2 0x620 JUMP JUMPDEST SWAP2 POP DUP3 PUSH1 0x2 MUL DUP3 OR SWAP1 POP SWAP3 SWAP2 POP POP JUMP JUMPDEST PUSH2 0x660 DUP3 PUSH2 0x44A JUMP JUMPDEST PUSH8 0xFFFFFFFFFFFFFFFF DUP2 GT ISZERO PUSH2 0x679 JUMPI PUSH2 0x678 PUSH2 0x2DF JUMP JUMPDEST JUMPDEST PUSH2 0x683 DUP3 SLOAD PUSH2 0x481 JUMP JUMPDEST PUSH2 0x68E DUP3 DUP3 DUP6 PUSH2 0x5CE JUMP JUMPDEST PUSH0 PUSH1 0x20 SWAP1 POP PUSH1 0x1F DUP4 GT PUSH1 0x1 DUP2 EQ PUSH2 0x6BF JUMPI PUSH0 DUP5 ISZERO PUSH2 0x6AD JUMPI DUP3 DUP8 ADD MLOAD SWAP1 POP JUMPDEST PUSH2 0x6B7 DUP6 DUP3 PUSH2 0x63C JUMP JUMPDEST DUP7 SSTORE POP PUSH2 0x71E JUMP JUMPDEST PUSH1 0x1F NOT DUP5 AND PUSH2 0x6CD DUP7 PUSH2 0x4B1 JUMP JUMPDEST PUSH0 JUMPDEST DUP3 DUP2 LT ISZERO PUSH2 0x6F4 JUMPI DUP5 DUP10 ADD MLOAD DUP3 SSTORE PUSH1 0x1 DUP3 ADD SWAP2 POP PUSH1 0x20 DUP6 ADD SWAP5 POP PUSH1 0x20 DUP2 ADD SWAP1 POP PUSH2 0x6CF JUMP JUMPDEST DUP7 DUP4 LT ISZERO PUSH2 0x711 JUMPI DUP5 DUP10 ADD MLOAD PUSH2 0x70D PUSH1 0x1F DUP10 AND DUP3 PUSH2 0x620 JUMP JUMPDEST DUP4 SSTORE POP JUMPDEST PUSH1 0x1 PUSH1 0x2 DUP9 MUL ADD DUP9 SSTORE POP POP POP JUMPDEST POP POP POP POP POP POP JUMP JUMPDEST PUSH0 DUP2 SWAP1 POP SWAP2 SWAP1 POP JUMP JUMPDEST PUSH2 0x738 DUP2 PUSH2 0x726 JUMP JUMPDEST DUP3 MSTORE POP POP JUMP JUMPDEST PUSH2 0x747 DUP2 PUSH2 0x52F JUMP JUMPDEST DUP3 MSTORE POP POP JUMP JUMPDEST PUSH0 PUSH20 0xFFFFFFFFFFFFFFFFFFFFFFFFFFFFFFFFFFFFFFFF DUP3 AND SWAP1 POP SWAP2 SWAP1 POP JUMP JUMPDEST PUSH0 PUSH2 0x776 DUP3 PUSH2 0x74D JUMP JUMPDEST SWAP1 POP SWAP2 SWAP1 POP JUMP JUMPDEST PUSH2 0x786 DUP2 PUSH2 0x76C JUMP JUMPDEST DUP3 MSTORE POP POP JUMP JUMPDEST PUSH0 PUSH1 0xA0 DUP3 ADD SWAP1 POP PUSH2 0x79F PUSH0 DUP4 ADD DUP9 PUSH2 0x72F JUMP JUMPDEST PUSH2 0x7AC PUSH1 0x20 DUP4 ADD DUP8 PUSH2 0x72F JUMP JUMPDEST PUSH2 0x7B9 PUSH1 0x40 DUP4 ADD DUP7 PUSH2 0x72F JUMP JUMPDEST PUSH2 0x7C6 PUSH1 0x60 DUP4 ADD DUP6 PUSH2 0x73E JUMP JUMPDEST PUSH2 0x7D3 PUSH1 0x80 DUP4 ADD DUP5 PUSH2 0x77D JUMP JUMPDEST SWAP7 SWAP6 POP POP POP POP POP POP JUMP JUMPDEST PUSH0 DUP3 DUP3 MSTORE PUSH1 0x20 DUP3 ADD SWAP1 POP SWAP3 SWAP2 POP POP JUMP JUMPDEST PUSH0 PUSH2 0x7F7 DUP3 PUSH2 0x44A JUMP JUMPDEST PUSH2 0x801 DUP2 DUP6 PUSH2 0x7DD JUMP JUMPDEST SWAP4 POP PUSH2 0x811 DUP2 DUP6 PUSH1 0x20 DUP7 ADD PUSH2 0x387 JUMP JUMPDEST PUSH2 0x81A DUP2 PUSH2 0x2CF JUMP JUMPDEST DUP5 ADD SWAP2 POP POP SWAP3 SWAP2 POP POP JUMP JUMPDEST PUSH0 PUSH1 0x20 DUP3 ADD SWAP1 POP DUP2 DUP2 SUB PUSH0 DUP4 ADD MSTORE PUSH2 0x83D DUP2 DUP5 PUSH2 0x7ED JUMP JUMPDEST SWAP1 POP SWAP3 SWAP2 POP POP JUMP JUMPDEST PUSH0 DUP2 MLOAD SWAP1 POP SWAP2 SWAP1 POP JUMP JUMPDEST PUSH0 DUP2 SWAP1 POP PUSH1 0x20 DUP3 ADD SWAP1 POP SWAP2 SWAP1 POP JUMP JUMPDEST PUSH0 PUSH2 0x869 DUP3 MLOAD PUSH2 0x726 JUMP JUMPDEST DUP1 SWAP2 POP POP SWAP2 SWAP1 POP JUMP JUMPDEST PUSH0 PUSH2 0x87C DUP3 PUSH2 0x845 JUMP JUMPDEST DUP3 PUSH2 0x886 DUP5 PUSH2 0x84F JUMP JUMPDEST SWAP1 POP PUSH2 0x891 DUP2 PUSH2 0x85E JUMP JUMPDEST SWAP3 POP PUSH1 0x20 DUP3 LT ISZERO PUSH2 0x8D1 JUMPI PUSH2 0x8CC PUSH32 0xFFFFFFFFFFFFFFFFFFFFFFFFFFFFFFFFFFFFFFFFFFFFFFFFFFFFFFFFFFFFFFFF DUP4 PUSH1 0x20 SUB PUSH1 0x8 MUL PUSH2 0x4D2 JUMP JUMPDEST DUP4 AND SWAP3 POP JUMPDEST POP POP SWAP2 SWAP1 POP JUMP JUMPDEST PUSH1 0x80 MLOAD PUSH1 0xA0 MLOAD PUSH1 0xC0 MLOAD PUSH1 0xE0 MLOAD PUSH2 0x100 MLOAD PUSH2 0x120 MLOAD PUSH2 0x140 MLOAD PUSH2 0x1745 PUSH2 0x929 PUSH0 CODECOPY PUSH0 PUSH2 0x530 ADD MSTORE PUSH0 PUSH2 0x4F5 ADD MSTORE PUSH0 PUSH2 0xC6F ADD MSTORE PUSH0 PUSH2 0xC4E ADD MSTORE PUSH0 PUSH2 0x7FD ADD MSTORE PUSH0 PUSH2 0x853 ADD MSTORE PUSH0 PUSH2 0x87C ADD MSTORE PUSH2 0x1745 PUSH0 RETURN INVALID PUSH1 0x80 PUSH1 0x40 MSTORE CALLVALUE DUP1 ISZERO PUSH2 0xF JUMPI PUSH0 DUP1 REVERT JUMPDEST POP PUSH1 0x4 CALLDATASIZE LT PUSH2 0x55 JUMPI PUSH0 CALLDATALOAD PUSH1 0xE0 SHR DUP1 PUSH4 0x6FDDE03 EQ PUSH2 0x59 JUMPI DUP1 PUSH4 0x313CE567 EQ PUSH2 0x77 JUMPI DUP1 PUSH4 0x7BA0E2E7 EQ PUSH2 0x95 JUMPI DUP1 PUSH4 0x84B0196E EQ PUSH2 0xB1 JUMPI DUP1 PUSH4 0x8FF9E2F5 EQ PUSH2 0xD5 JUMPI JUMPDEST PUSH0 DUP1 REVERT JUMPDEST PUSH2 0x61 PUSH2 0x105 JUMP JUMPDEST PUSH1 0x40 MLOAD PUSH2 0x6E SWAP2 SWAP1 PUSH2 0xE64 JUMP JUMPDEST PUSH1 0x40 MLOAD DUP1 SWAP2 SUB SWAP1 RETURN JUMPDEST PUSH2 0x7F PUSH2 0x191 JUMP JUMPDEST PUSH1 0x40 MLOAD PUSH2 0x8C SWAP2 SWAP1 PUSH2 0xE9F JUMP JUMPDEST PUSH1 0x40 MLOAD DUP1 SWAP2 SUB SWAP1 RETURN JUMPDEST PUSH2 0xAF PUSH1 0x4 DUP1 CALLDATASIZE SUB DUP2 ADD SWAP1 PUSH2 0xAA SWAP2 SWAP1 PUSH2 0xF2A JUMP JUMPDEST PUSH2 0x196 JUMP JUMPDEST STOP JUMPDEST PUSH2 0xB9 PUSH2 0x284 JUMP JUMPDEST PUSH1 0x40 MLOAD PUSH2 0xCC SWAP8 SWAP7 SWAP6 SWAP5 SWAP4 SWAP3 SWAP2 SWAP1 PUSH2 0x10D5 JUMP JUMPDEST PUSH1 0x40 MLOAD DUP1 SWAP2 SUB SWAP1 RETURN JUMPDEST PUSH2 0xEF PUSH1 0x4 DUP1 CALLDATASIZE SUB DUP2 ADD SWAP1 PUSH2 0xEA SWAP2 SWAP1 PUSH2 0x1181 JUMP JUMPDEST PUSH2 0x329 JUMP JUMPDEST PUSH1 0x40 MLOAD PUSH2 0xFC SWAP2 SWAP1 PUSH2 0x1230 JUMP JUMPDEST PUSH1 0x40 MLOAD DUP1 SWAP2 SUB SWAP1 RETURN JUMPDEST PUSH1 0x3 DUP1 SLOAD PUSH2 0x112 SWAP1 PUSH2 0x127D JUMP JUMPDEST DUP1 PUSH1 0x1F ADD PUSH1 0x20 DUP1 SWAP2 DIV MUL PUSH1 0x20 ADD PUSH1 0x40 MLOAD SWAP1 DUP2 ADD PUSH1 0x40 MSTORE DUP1 SWAP3 SWAP2 SWAP1 DUP2 DUP2 MSTORE PUSH1 0x20 ADD DUP3 DUP1 SLOAD PUSH2 0x13E SWAP1 PUSH2 0x127D JUMP JUMPDEST DUP1 ISZERO PUSH2 0x189 JUMPI DUP1 PUSH1 0x1F LT PUSH2 0x160 JUMPI PUSH2 0x100 DUP1 DUP4 SLOAD DIV MUL DUP4 MSTORE SWAP2 PUSH1 0x20 ADD SWAP2 PUSH2 0x189 JUMP JUMPDEST DUP3 ADD SWAP2 SWAP1 PUSH0 MSTORE PUSH1 0x20 PUSH0 KECCAK256 SWAP1 JUMPDEST DUP2 SLOAD DUP2 MSTORE SWAP1 PUSH1 0x1 ADD SWAP1 PUSH1 0x20 ADD DUP1 DUP4 GT PUSH2 0x16C JUMPI DUP3 SWAP1 SUB PUSH1 0x1F AND DUP3 ADD SWAP2 JUMPDEST POP POP POP POP POP DUP2 JUMP JUMPDEST PUSH1 0x12 DUP2 JUMP JUMPDEST PUSH0 PUSH2 0x1E3 DUP4 DUP4 DUP1 DUP1 PUSH1 0x1F ADD PUSH1 0x20 DUP1 SWAP2 DIV MUL PUSH1 0x20 ADD PUSH1 0x40 MLOAD SWAP1 DUP2 ADD PUSH1 0x40 MSTORE DUP1 SWAP4 SWAP3 SWAP2 SWAP1 DUP2 DUP2 MSTORE PUSH1 0x20 ADD DUP4 DUP4 DUP1 DUP3 DUP5 CALLDATACOPY PUSH0 DUP2 DUP5 ADD MSTORE PUSH1 0x1F NOT PUSH1 0x1F DUP3 ADD AND SWAP1 POP DUP1 DUP4 ADD SWAP3 POP POP POP POP POP POP POP PUSH2 0x494 JUMP JUMPDEST SWAP1 POP PUSH2 0x22C PUSH1 0x5 PUSH0 CALLER PUSH20 0xFFFFFFFFFFFFFFFFFFFFFFFFFFFFFFFFFFFFFFFF AND PUSH20 0xFFFFFFFFFFFFFFFFFFFFFFFFFFFFFFFFFFFFFFFF AND DUP2 MSTORE PUSH1 0x20 ADD SWAP1 DUP2 MSTORE PUSH1 0x20 ADD PUSH0 KECCAK256 SLOAD DUP3 PUSH2 0x4A7 JUMP JUMPDEST PUSH1 0x5 PUSH0 CALLER PUSH20 0xFFFFFFFFFFFFFFFFFFFFFFFFFFFFFFFFFFFFFFFF AND PUSH20 0xFFFFFFFFFFFFFFFFFFFFFFFFFFFFFFFFFFFFFFFF AND DUP2 MSTORE PUSH1 0x20 ADD SWAP1 DUP2 MSTORE PUSH1 0x20 ADD PUSH0 KECCAK256 DUP2 SWAP1 SSTORE POP PUSH2 0x279 PUSH1 0x2 SLOAD DUP3 PUSH2 0x4A7 JUMP JUMPDEST PUSH1 0x2 DUP2 SWAP1 SSTORE POP POP POP POP JUMP JUMPDEST PUSH0 PUSH1 0x60 DUP1 PUSH0 DUP1 PUSH0 PUSH1 0x60 PUSH2 0x295 PUSH2 0x4ED JUMP JUMPDEST PUSH2 0x29D PUSH2 0x527 JUMP JUMPDEST CHAINID ADDRESS PUSH0 DUP1 SHL PUSH0 PUSH8 0xFFFFFFFFFFFFFFFF DUP2 GT ISZERO PUSH2 0x2BC JUMPI PUSH2 0x2BB PUSH2 0x12AD JUMP JUMPDEST JUMPDEST PUSH1 0x40 MLOAD SWAP1 DUP1 DUP3 MSTORE DUP1 PUSH1 0x20 MUL PUSH1 0x20 ADD DUP3 ADD PUSH1 0x40 MSTORE DUP1 ISZERO PUSH2 0x2EA JUMPI DUP2 PUSH1 0x20 ADD PUSH1 0x20 DUP3 MUL DUP1 CALLDATASIZE DUP4 CALLDATACOPY DUP1 DUP3 ADD SWAP2 POP POP SWAP1 POP JUMPDEST POP PUSH32 0xF00000000000000000000000000000000000000000000000000000000000000 SWAP6 SWAP5 SWAP4 SWAP3 SWAP2 SWAP1 SWAP7 POP SWAP7 POP SWAP7 POP SWAP7 POP SWAP7 POP SWAP7 POP SWAP7 POP SWAP1 SWAP2 SWAP3 SWAP4 SWAP5 SWAP6 SWAP7 JUMP JUMPDEST PUSH1 0x60 DUP4 DUP4 DUP4 DUP1 DUP1 PUSH1 0x1F ADD PUSH1 0x20 DUP1 SWAP2 DIV MUL PUSH1 0x20 ADD PUSH1 0x40 MLOAD SWAP1 DUP2 ADD PUSH1 0x40 MSTORE DUP1 SWAP4 SWAP3 SWAP2 SWAP1 DUP2 DUP2 MSTORE PUSH1 0x20 ADD DUP4 DUP4 DUP1 DUP3 DUP5 CALLDATACOPY PUSH0 DUP2 DUP5 ADD MSTORE PUSH1 0x1F NOT PUSH1 0x1F DUP3 ADD AND SWAP1 POP DUP1 DUP4 ADD SWAP3 POP POP POP POP POP POP POP PUSH0 PUSH2 0x3C2 PUSH32 0x51D137AE0E1FAE6E3B6559FED4442B35A85A9A39789838AD5C9EA05E7DA2DCE DUP5 PUSH1 0x40 MLOAD PUSH1 0x20 ADD PUSH2 0x3A7 SWAP3 SWAP2 SWAP1 PUSH2 0x12DA JUMP JUMPDEST PUSH1 0x40 MLOAD PUSH1 0x20 DUP2 DUP4 SUB SUB DUP2 MSTORE SWAP1 PUSH1 0x40 MSTORE DUP1 MLOAD SWAP1 PUSH1 0x20 ADD KECCAK256 PUSH2 0x562 JUMP JUMPDEST SWAP1 POP PUSH0 PUSH2 0x3CF DUP3 DUP5 PUSH2 0x57B JUMP JUMPDEST SWAP1 POP CALLER PUSH20 0xFFFFFFFFFFFFFFFFFFFFFFFFFFFFFFFFFFFFFFFF AND DUP2 PUSH20 0xFFFFFFFFFFFFFFFFFFFFFFFFFFFFFFFFFFFFFFFF AND EQ PUSH2 0x43F JUMPI PUSH1 0x40 MLOAD PUSH32 0x8C379A000000000000000000000000000000000000000000000000000000000 DUP2 MSTORE PUSH1 0x4 ADD PUSH2 0x436 SWAP1 PUSH2 0x1371 JUMP JUMPDEST PUSH1 0x40 MLOAD DUP1 SWAP2 SUB SWAP1 REVERT JUMPDEST PUSH2 0x487 PUSH1 0x5 PUSH0 CALLER PUSH20 0xFFFFFFFFFFFFFFFFFFFFFFFFFFFFFFFFFFFFFFFF AND PUSH20 0xFFFFFFFFFFFFFFFFFFFFFFFFFFFFFFFFFFFFFFFF AND DUP2 MSTORE PUSH1 0x20 ADD SWAP1 DUP2 MSTORE PUSH1 0x20 ADD PUSH0 KECCAK256 SLOAD DUP10 PUSH0 PUSH2 0x5A5 JUMP JUMPDEST SWAP5 POP POP POP POP POP SWAP4 SWAP3 POP POP POP JUMP JUMPDEST PUSH0 PUSH2 0x4A0 DUP3 PUSH1 0x2 PUSH2 0x5E1 JUMP JUMPDEST SWAP1 POP SWAP2 SWAP1 POP JUMP JUMPDEST PUSH0 PUSH2 0x4B1 DUP4 PUSH2 0x68C JUMP JUMPDEST PUSH2 0x4C1 JUMPI PUSH2 0x4BE PUSH0 PUSH2 0x698 JUMP JUMPDEST SWAP3 POP JUMPDEST PUSH2 0x4CA DUP3 PUSH2 0x68C JUMP JUMPDEST PUSH2 0x4DA JUMPI PUSH2 0x4D7 PUSH0 PUSH2 0x698 JUMP JUMPDEST SWAP2 POP JUMPDEST PUSH2 0x4E5 DUP4 DUP4 PUSH0 PUSH2 0x6AB JUMP JUMPDEST SWAP1 POP SWAP3 SWAP2 POP POP JUMP JUMPDEST PUSH1 0x60 PUSH2 0x522 PUSH0 PUSH32 0x0 PUSH2 0x74D SWAP1 SWAP2 SWAP1 PUSH4 0xFFFFFFFF AND JUMP JUMPDEST SWAP1 POP SWAP1 JUMP JUMPDEST PUSH1 0x60 PUSH2 0x55D PUSH1 0x1 PUSH32 0x0 PUSH2 0x74D SWAP1 SWAP2 SWAP1 PUSH4 0xFFFFFFFF AND JUMP JUMPDEST SWAP1 POP SWAP1 JUMP JUMPDEST PUSH0 PUSH2 0x574 PUSH2 0x56E PUSH2 0x7FA JUMP JUMPDEST DUP4 PUSH2 0x8B0 JUMP JUMPDEST SWAP1 POP SWAP2 SWAP1 POP JUMP JUMPDEST PUSH0 DUP1 PUSH0 DUP1 PUSH2 0x589 DUP7 DUP7 PUSH2 0x8F0 JUMP JUMPDEST SWAP3 POP SWAP3 POP SWAP3 POP PUSH2 0x599 DUP3 DUP3 PUSH2 0x945 JUMP JUMPDEST DUP3 SWAP4 POP POP POP POP SWAP3 SWAP2 POP POP JUMP JUMPDEST PUSH1 0x60 PUSH0 DUP5 EQ PUSH2 0x5BF JUMPI PUSH2 0x5B8 DUP5 DUP5 PUSH2 0xAA7 JUMP JUMPDEST SWAP1 POP PUSH2 0x5DA JUMP JUMPDEST PUSH2 0x5D7 PUSH2 0x5D1 DUP4 PUSH4 0xFFFFFFFF AND PUSH2 0x698 JUMP JUMPDEST DUP5 PUSH2 0xAA7 JUMP JUMPDEST SWAP1 POP JUMPDEST SWAP4 SWAP3 POP POP POP JUMP JUMPDEST PUSH0 DUP1 DUP4 DUP4 PUSH1 0xF8 SHL PUSH1 0x40 MLOAD PUSH1 0x20 ADD PUSH2 0x5F9 SWAP3 SWAP2 SWAP1 PUSH2 0x13E9 JUMP JUMPDEST PUSH1 0x40 MLOAD PUSH1 0x20 DUP2 DUP4 SUB SUB DUP2 MSTORE SWAP1 PUSH1 0x40 MSTORE SWAP1 POP PUSH1 0x5D PUSH20 0xFFFFFFFFFFFFFFFFFFFFFFFFFFFFFFFFFFFFFFFF AND PUSH4 0x4B252EC8 DUP3 PUSH1 0x40 MLOAD DUP3 PUSH4 0xFFFFFFFF AND PUSH1 0xE0 SHL DUP2 MSTORE PUSH1 0x4 ADD PUSH2 0x644 SWAP2 SWAP1 PUSH2 0x1230 JUMP JUMPDEST PUSH1 0x20 PUSH1 0x40 MLOAD DUP1 DUP4 SUB DUP2 DUP7 GAS STATICCALL ISZERO DUP1 ISZERO PUSH2 0x65F JUMPI RETURNDATASIZE PUSH0 DUP1 RETURNDATACOPY RETURNDATASIZE PUSH0 REVERT JUMPDEST POP POP POP POP PUSH1 0x40 MLOAD RETURNDATASIZE PUSH1 0x1F NOT PUSH1 0x1F DUP3 ADD AND DUP3 ADD DUP1 PUSH1 0x40 MSTORE POP DUP2 ADD SWAP1 PUSH2 0x683 SWAP2 SWAP1 PUSH2 0x143A JUMP JUMPDEST SWAP2 POP POP SWAP3 SWAP2 POP POP JUMP JUMPDEST PUSH0 DUP1 DUP3 EQ ISZERO SWAP1 POP SWAP2 SWAP1 POP JUMP JUMPDEST PUSH0 PUSH2 0x6A4 DUP3 PUSH1 0x2 PUSH2 0xB31 JUMP JUMPDEST SWAP1 POP SWAP2 SWAP1 POP JUMP JUMPDEST PUSH0 DUP1 DUP3 ISZERO PUSH2 0x6BF JUMPI PUSH1 0x1 PUSH1 0xF8 SHL SWAP1 POP PUSH2 0x6C6 JUMP JUMPDEST PUSH0 PUSH1 0xF8 SHL SWAP1 POP JUMPDEST PUSH1 0x5D PUSH20 0xFFFFFFFFFFFFFFFFFFFFFFFFFFFFFFFFFFFFFFFF AND PUSH4 0xF953E427 DUP7 DUP7 DUP5 PUSH1 0x40 MLOAD DUP5 PUSH4 0xFFFFFFFF AND PUSH1 0xE0 SHL DUP2 MSTORE PUSH1 0x4 ADD PUSH2 0x704 SWAP4 SWAP3 SWAP2 SWAP1 PUSH2 0x1465 JUMP JUMPDEST PUSH1 0x20 PUSH1 0x40 MLOAD DUP1 DUP4 SUB DUP2 DUP7 GAS STATICCALL ISZERO DUP1 ISZERO PUSH2 0x71F JUMPI RETURNDATASIZE PUSH0 DUP1 RETURNDATACOPY RETURNDATASIZE PUSH0 REVERT JUMPDEST POP POP POP POP PUSH1 0x40 MLOAD RETURNDATASIZE PUSH1 0x1F NOT PUSH1 0x1F DUP3 ADD AND DUP3 ADD DUP1 PUSH1 0x40 MSTORE POP DUP2 ADD SWAP1 PUSH2 0x743 SWAP2 SWAP1 PUSH2 0x143A JUMP JUMPDEST SWAP2 POP POP SWAP4 SWAP3 POP POP POP JUMP JUMPDEST PUSH1 0x60 PUSH1 0xFF PUSH0 SHL DUP4 EQ PUSH2 0x769 JUMPI PUSH2 0x762 DUP4 PUSH2 0xBB8 JUMP JUMPDEST SWAP1 POP PUSH2 0x7F4 JUMP JUMPDEST DUP2 DUP1 SLOAD PUSH2 0x775 SWAP1 PUSH2 0x127D JUMP JUMPDEST DUP1 PUSH1 0x1F ADD PUSH1 0x20 DUP1 SWAP2 DIV MUL PUSH1 0x20 ADD PUSH1 0x40 MLOAD SWAP1 DUP2 ADD PUSH1 0x40 MSTORE DUP1 SWAP3 SWAP2 SWAP1 DUP2 DUP2 MSTORE PUSH1 0x20 ADD DUP3 DUP1 SLOAD PUSH2 0x7A1 SWAP1 PUSH2 0x127D JUMP JUMPDEST DUP1 ISZERO PUSH2 0x7EC JUMPI DUP1 PUSH1 0x1F LT PUSH2 0x7C3 JUMPI PUSH2 0x100 DUP1 DUP4 SLOAD DIV MUL DUP4 MSTORE SWAP2 PUSH1 0x20 ADD SWAP2 PUSH2 0x7EC JUMP JUMPDEST DUP3 ADD SWAP2 SWAP1 PUSH0 MSTORE PUSH1 0x20 PUSH0 KECCAK256 SWAP1 JUMPDEST DUP2 SLOAD DUP2 MSTORE SWAP1 PUSH1 0x1 ADD SWAP1 PUSH1 0x20 ADD DUP1 DUP4 GT PUSH2 0x7CF JUMPI DUP3 SWAP1 SUB PUSH1 0x1F AND DUP3 ADD SWAP2 JUMPDEST POP POP POP POP POP SWAP1 POP JUMPDEST SWAP3 SWAP2 POP POP JUMP JUMPDEST PUSH0 PUSH32 0x0 PUSH20 0xFFFFFFFFFFFFFFFFFFFFFFFFFFFFFFFFFFFFFFFF AND ADDRESS PUSH20 0xFFFFFFFFFFFFFFFFFFFFFFFFFFFFFFFFFFFFFFFF AND EQ DUP1 ISZERO PUSH2 0x875 JUMPI POP PUSH32 0x0 CHAINID EQ JUMPDEST ISZERO PUSH2 0x8A2 JUMPI PUSH32 0x0 SWAP1 POP PUSH2 0x8AD JUMP JUMPDEST PUSH2 0x8AA PUSH2 0xC2A JUMP JUMPDEST SWAP1 POP JUMPDEST SWAP1 JUMP JUMPDEST PUSH0 PUSH1 0x40 MLOAD PUSH32 0x1901000000000000000000000000000000000000000000000000000000000000 DUP2 MSTORE DUP4 PUSH1 0x2 DUP3 ADD MSTORE DUP3 PUSH1 0x22 DUP3 ADD MSTORE PUSH1 0x42 DUP2 KECCAK256 SWAP2 POP POP SWAP3 SWAP2 POP POP JUMP JUMPDEST PUSH0 DUP1 PUSH0 PUSH1 0x41 DUP5 MLOAD SUB PUSH2 0x930 JUMPI PUSH0 DUP1 PUSH0 PUSH1 0x20 DUP8 ADD MLOAD SWAP3 POP PUSH1 0x40 DUP8 ADD MLOAD SWAP2 POP PUSH1 0x60 DUP8 ADD MLOAD PUSH0 BYTE SWAP1 POP PUSH2 0x922 DUP9 DUP3 DUP6 DUP6 PUSH2 0xCBF JUMP JUMPDEST SWAP6 POP SWAP6 POP SWAP6 POP POP POP POP PUSH2 0x93E JUMP JUMPDEST PUSH0 PUSH1 0x2 DUP6 MLOAD PUSH0 SHL SWAP3 POP SWAP3 POP SWAP3 POP JUMPDEST SWAP3 POP SWAP3 POP SWAP3 JUMP JUMPDEST PUSH0 PUSH1 0x3 DUP2 GT ISZERO PUSH2 0x958 JUMPI PUSH2 0x957 PUSH2 0x149A JUMP JUMPDEST JUMPDEST DUP3 PUSH1 0x3 DUP2 GT ISZERO PUSH2 0x96B JUMPI PUSH2 0x96A PUSH2 0x149A JUMP JUMPDEST JUMPDEST SUB ISZERO PUSH2 0xAA3 JUMPI PUSH1 0x1 PUSH1 0x3 DUP2 GT ISZERO PUSH2 0x985 JUMPI PUSH2 0x984 PUSH2 0x149A JUMP JUMPDEST JUMPDEST DUP3 PUSH1 0x3 DUP2 GT ISZERO PUSH2 0x998 JUMPI PUSH2 0x997 PUSH2 0x149A JUMP JUMPDEST JUMPDEST SUB PUSH2 0x9CF JUMPI PUSH1 0x40 MLOAD PUSH32 0xF645EEDF00000000000000000000000000000000000000000000000000000000 DUP2 MSTORE PUSH1 0x4 ADD PUSH1 0x40 MLOAD DUP1 SWAP2 SUB SWAP1 REVERT JUMPDEST PUSH1 0x2 PUSH1 0x3 DUP2 GT ISZERO PUSH2 0x9E3 JUMPI PUSH2 0x9E2 PUSH2 0x149A JUMP JUMPDEST JUMPDEST DUP3 PUSH1 0x3 DUP2 GT ISZERO PUSH2 0x9F6 JUMPI PUSH2 0x9F5 PUSH2 0x149A JUMP JUMPDEST JUMPDEST SUB PUSH2 0xA3A JUMPI DUP1 PUSH0 SHR PUSH1 0x40 MLOAD PUSH32 0xFCE698F700000000000000000000000000000000000000000000000000000000 DUP2 MSTORE PUSH1 0x4 ADD PUSH2 0xA31 SWAP2 SWAP1 PUSH2 0x14C7 JUMP JUMPDEST PUSH1 0x40 MLOAD DUP1 SWAP2 SUB SWAP1 REVERT JUMPDEST PUSH1 0x3 DUP1 DUP2 GT ISZERO PUSH2 0xA4D JUMPI PUSH2 0xA4C PUSH2 0x149A JUMP JUMPDEST JUMPDEST DUP3 PUSH1 0x3 DUP2 GT ISZERO PUSH2 0xA60 JUMPI PUSH2 0xA5F PUSH2 0x149A JUMP JUMPDEST JUMPDEST SUB PUSH2 0xAA2 JUMPI DUP1 PUSH1 0x40 MLOAD PUSH32 0xD78BCE0C00000000000000000000000000000000000000000000000000000000 DUP2 MSTORE PUSH1 0x4 ADD PUSH2 0xA99 SWAP2 SWAP1 PUSH2 0x14E0 JUMP JUMPDEST PUSH1 0x40 MLOAD DUP1 SWAP2 SUB SWAP1 REVERT JUMPDEST JUMPDEST POP POP JUMP JUMPDEST PUSH1 0x60 PUSH1 0x5D PUSH20 0xFFFFFFFFFFFFFFFFFFFFFFFFFFFFFFFFFFFFFFFF AND PUSH4 0xD6AD57CD DUP5 DUP5 PUSH0 SHR PUSH1 0x40 MLOAD DUP4 PUSH4 0xFFFFFFFF AND PUSH1 0xE0 SHL DUP2 MSTORE PUSH1 0x4 ADD PUSH2 0xAE7 SWAP3 SWAP2 SWAP1 PUSH2 0x14F9 JUMP JUMPDEST PUSH0 PUSH1 0x40 MLOAD DUP1 DUP4 SUB DUP2 DUP7 GAS STATICCALL ISZERO DUP1 ISZERO PUSH2 0xB01 JUMPI RETURNDATASIZE PUSH0 DUP1 RETURNDATACOPY RETURNDATASIZE PUSH0 REVERT JUMPDEST POP POP POP POP PUSH1 0x40 MLOAD RETURNDATASIZE PUSH0 DUP3 RETURNDATACOPY RETURNDATASIZE PUSH1 0x1F NOT PUSH1 0x1F DUP3 ADD AND DUP3 ADD DUP1 PUSH1 0x40 MSTORE POP DUP2 ADD SWAP1 PUSH2 0xB29 SWAP2 SWAP1 PUSH2 0x160D JUMP JUMPDEST SWAP1 POP SWAP3 SWAP2 POP POP JUMP JUMPDEST PUSH0 PUSH1 0x5D PUSH20 0xFFFFFFFFFFFFFFFFFFFFFFFFFFFFFFFFFFFFFFFF AND PUSH4 0xE71746B8 DUP5 DUP5 PUSH1 0xF8 SHL PUSH1 0x40 MLOAD DUP4 PUSH4 0xFFFFFFFF AND PUSH1 0xE0 SHL DUP2 MSTORE PUSH1 0x4 ADD PUSH2 0xB71 SWAP3 SWAP2 SWAP1 PUSH2 0x1654 JUMP JUMPDEST PUSH1 0x20 PUSH1 0x40 MLOAD DUP1 DUP4 SUB DUP2 DUP7 GAS STATICCALL ISZERO DUP1 ISZERO PUSH2 0xB8C JUMPI RETURNDATASIZE PUSH0 DUP1 RETURNDATACOPY RETURNDATASIZE PUSH0 REVERT JUMPDEST POP POP POP POP PUSH1 0x40 MLOAD RETURNDATASIZE PUSH1 0x1F NOT PUSH1 0x1F DUP3 ADD AND DUP3 ADD DUP1 PUSH1 0x40 MSTORE POP DUP2 ADD SWAP1 PUSH2 0xBB0 SWAP2 SWAP1 PUSH2 0x143A JUMP JUMPDEST SWAP1 POP SWAP3 SWAP2 POP POP JUMP JUMPDEST PUSH1 0x60 PUSH0 PUSH2 0xBC4 DUP4 PUSH2 0xDA6 JUMP JUMPDEST SWAP1 POP PUSH0 PUSH1 0x20 PUSH8 0xFFFFFFFFFFFFFFFF DUP2 GT ISZERO PUSH2 0xBE2 JUMPI PUSH2 0xBE1 PUSH2 0x12AD JUMP JUMPDEST JUMPDEST PUSH1 0x40 MLOAD SWAP1 DUP1 DUP3 MSTORE DUP1 PUSH1 0x1F ADD PUSH1 0x1F NOT AND PUSH1 0x20 ADD DUP3 ADD PUSH1 0x40 MSTORE DUP1 ISZERO PUSH2 0xC14 JUMPI DUP2 PUSH1 0x20 ADD PUSH1 0x1 DUP3 MUL DUP1 CALLDATASIZE DUP4 CALLDATACOPY DUP1 DUP3 ADD SWAP2 POP POP SWAP1 POP JUMPDEST POP SWAP1 POP DUP2 DUP2 MSTORE DUP4 PUSH1 0x20 DUP3 ADD MSTORE DUP1 SWAP3 POP POP POP SWAP2 SWAP1 POP JUMP JUMPDEST PUSH0 PUSH32 0x8B73C3C69BB8FE3D512ECC4CF759CC79239F7B179B0FFACAA9A75D522B39400F PUSH32 0x0 PUSH32 0x0 CHAINID ADDRESS PUSH1 0x40 MLOAD PUSH1 0x20 ADD PUSH2 0xCA4 SWAP6 SWAP5 SWAP4 SWAP3 SWAP2 SWAP1 PUSH2 0x167B JUMP JUMPDEST PUSH1 0x40 MLOAD PUSH1 0x20 DUP2 DUP4 SUB SUB DUP2 MSTORE SWAP1 PUSH1 0x40 MSTORE DUP1 MLOAD SWAP1 PUSH1 0x20 ADD KECCAK256 SWAP1 POP SWAP1 JUMP JUMPDEST PUSH0 DUP1 PUSH0 PUSH32 0x7FFFFFFFFFFFFFFFFFFFFFFFFFFFFFFF5D576E7357A4501DDFE92F46681B20A0 DUP5 PUSH0 SHR GT ISZERO PUSH2 0xCFB JUMPI PUSH0 PUSH1 0x3 DUP6 SWAP3 POP SWAP3 POP SWAP3 POP PUSH2 0xD9C JUMP JUMPDEST PUSH0 PUSH1 0x1 DUP9 DUP9 DUP9 DUP9 PUSH1 0x40 MLOAD PUSH0 DUP2 MSTORE PUSH1 0x20 ADD PUSH1 0x40 MSTORE PUSH1 0x40 MLOAD PUSH2 0xD1E SWAP5 SWAP4 SWAP3 SWAP2 SWAP1 PUSH2 0x16CC JUMP JUMPDEST PUSH1 0x20 PUSH1 0x40 MLOAD PUSH1 0x20 DUP2 SUB SWAP1 DUP1 DUP5 SUB SWAP1 DUP6 GAS STATICCALL ISZERO DUP1 ISZERO PUSH2 0xD3E JUMPI RETURNDATASIZE PUSH0 DUP1 RETURNDATACOPY RETURNDATASIZE PUSH0 REVERT JUMPDEST POP POP POP PUSH1 0x20 PUSH1 0x40 MLOAD SUB MLOAD SWAP1 POP PUSH0 PUSH20 0xFFFFFFFFFFFFFFFFFFFFFFFFFFFFFFFFFFFFFFFF AND DUP2 PUSH20 0xFFFFFFFFFFFFFFFFFFFFFFFFFFFFFFFFFFFFFFFF AND SUB PUSH2 0xD8F JUMPI PUSH0 PUSH1 0x1 PUSH0 DUP1 SHL SWAP4 POP SWAP4 POP SWAP4 POP POP PUSH2 0xD9C JUMP JUMPDEST DUP1 PUSH0 DUP1 PUSH0 SHL SWAP4 POP SWAP4 POP SWAP4 POP POP JUMPDEST SWAP5 POP SWAP5 POP SWAP5 SWAP2 POP POP JUMP JUMPDEST PUSH0 DUP1 PUSH1 0xFF DUP4 PUSH0 SHR AND SWAP1 POP PUSH1 0x1F DUP2 GT ISZERO PUSH2 0xDEB JUMPI PUSH1 0x40 MLOAD PUSH32 0xB3512B0C00000000000000000000000000000000000000000000000000000000 DUP2 MSTORE PUSH1 0x4 ADD PUSH1 0x40 MLOAD DUP1 SWAP2 SUB SWAP1 REVERT JUMPDEST DUP1 SWAP2 POP POP SWAP2 SWAP1 POP JUMP JUMPDEST PUSH0 DUP2 MLOAD SWAP1 POP SWAP2 SWAP1 POP JUMP JUMPDEST PUSH0 DUP3 DUP3 MSTORE PUSH1 0x20 DUP3 ADD SWAP1 POP SWAP3 SWAP2 POP POP JUMP JUMPDEST DUP3 DUP2 DUP4 MCOPY PUSH0 DUP4 DUP4 ADD MSTORE POP POP POP JUMP JUMPDEST PUSH0 PUSH1 0x1F NOT PUSH1 0x1F DUP4 ADD AND SWAP1 POP SWAP2 SWAP1 POP JUMP JUMPDEST PUSH0 PUSH2 0xE36 DUP3 PUSH2 0xDF4 JUMP JUMPDEST PUSH2 0xE40 DUP2 DUP6 PUSH2 0xDFE JUMP JUMPDEST SWAP4 POP PUSH2 0xE50 DUP2 DUP6 PUSH1 0x20 DUP7 ADD PUSH2 0xE0E JUMP JUMPDEST PUSH2 0xE59 DUP2 PUSH2 0xE1C JUMP JUMPDEST DUP5 ADD SWAP2 POP POP SWAP3 SWAP2 POP POP JUMP JUMPDEST PUSH0 PUSH1 0x20 DUP3 ADD SWAP1 POP DUP2 DUP2 SUB PUSH0 DUP4 ADD MSTORE PUSH2 0xE7C DUP2 DUP5 PUSH2 0xE2C JUMP JUMPDEST SWAP1 POP SWAP3 SWAP2 POP POP JUMP JUMPDEST PUSH0 PUSH1 0xFF DUP3 AND SWAP1 POP SWAP2 SWAP1 POP JUMP JUMPDEST PUSH2 0xE99 DUP2 PUSH2 0xE84 JUMP JUMPDEST DUP3 MSTORE POP POP JUMP JUMPDEST PUSH0 PUSH1 0x20 DUP3 ADD SWAP1 POP PUSH2 0xEB2 PUSH0 DUP4 ADD DUP5 PUSH2 0xE90 JUMP JUMPDEST SWAP3 SWAP2 POP POP JUMP JUMPDEST PUSH0 PUSH1 0x40 MLOAD SWAP1 POP SWAP1 JUMP JUMPDEST PUSH0 DUP1 REVERT JUMPDEST PUSH0 DUP1 REVERT JUMPDEST PUSH0 DUP1 REVERT JUMPDEST PUSH0 DUP1 REVERT JUMPDEST PUSH0 DUP1 REVERT JUMPDEST PUSH0 DUP1 DUP4 PUSH1 0x1F DUP5 ADD SLT PUSH2 0xEEA JUMPI PUSH2 0xEE9 PUSH2 0xEC9 JUMP JUMPDEST JUMPDEST DUP3 CALLDATALOAD SWAP1 POP PUSH8 0xFFFFFFFFFFFFFFFF DUP2 GT ISZERO PUSH2 0xF07 JUMPI PUSH2 0xF06 PUSH2 0xECD JUMP JUMPDEST JUMPDEST PUSH1 0x20 DUP4 ADD SWAP2 POP DUP4 PUSH1 0x1 DUP3 MUL DUP4 ADD GT ISZERO PUSH2 0xF23 JUMPI PUSH2 0xF22 PUSH2 0xED1 JUMP JUMPDEST JUMPDEST SWAP3 POP SWAP3 SWAP1 POP JUMP JUMPDEST PUSH0 DUP1 PUSH1 0x20 DUP4 DUP6 SUB SLT ISZERO PUSH2 0xF40 JUMPI PUSH2 0xF3F PUSH2 0xEC1 JUMP JUMPDEST JUMPDEST PUSH0 DUP4 ADD CALLDATALOAD PUSH8 0xFFFFFFFFFFFFFFFF DUP2 GT ISZERO PUSH2 0xF5D JUMPI PUSH2 0xF5C PUSH2 0xEC5 JUMP JUMPDEST JUMPDEST PUSH2 0xF69 DUP6 DUP3 DUP7 ADD PUSH2 0xED5 JUMP JUMPDEST SWAP3 POP SWAP3 POP POP SWAP3 POP SWAP3 SWAP1 POP JUMP JUMPDEST PUSH0 PUSH32 0xFF00000000000000000000000000000000000000000000000000000000000000 DUP3 AND SWAP1 POP SWAP2 SWAP1 POP JUMP JUMPDEST PUSH2 0xFA9 DUP2 PUSH2 0xF75 JUMP JUMPDEST DUP3 MSTORE POP POP JUMP JUMPDEST PUSH0 DUP2 SWAP1 POP SWAP2 SWAP1 POP JUMP JUMPDEST PUSH2 0xFC1 DUP2 PUSH2 0xFAF JUMP JUMPDEST DUP3 MSTORE POP POP JUMP JUMPDEST PUSH0 PUSH20 0xFFFFFFFFFFFFFFFFFFFFFFFFFFFFFFFFFFFFFFFF DUP3 AND SWAP1 POP SWAP2 SWAP1 POP JUMP JUMPDEST PUSH0 PUSH2 0xFF0 DUP3 PUSH2 0xFC7 JUMP JUMPDEST SWAP1 POP SWAP2 SWAP1 POP JUMP JUMPDEST PUSH2 0x1000 DUP2 PUSH2 0xFE6 JUMP JUMPDEST DUP3 MSTORE POP POP JUMP JUMPDEST PUSH0 DUP2 SWAP1 POP SWAP2 SWAP1 POP JUMP JUMPDEST PUSH2 0x1018 DUP2 PUSH2 0x1006 JUMP JUMPDEST DUP3 MSTORE POP POP JUMP JUMPDEST PUSH0 DUP2 MLOAD SWAP1 POP SWAP2 SWAP1 POP JUMP JUMPDEST PUSH0 DUP3 DUP3 MSTORE PUSH1 0x20 DUP3 ADD SWAP1 POP SWAP3 SWAP2 POP POP JUMP JUMPDEST PUSH0 DUP2 SWAP1 POP PUSH1 0x20 DUP3 ADD SWAP1 POP SWAP2 SWAP1 POP JUMP JUMPDEST PUSH2 0x1050 DUP2 PUSH2 0xFAF JUMP JUMPDEST DUP3 MSTORE POP POP JUMP JUMPDEST PUSH0 PUSH2 0x1061 DUP4 DUP4 PUSH2 0x1047 JUMP JUMPDEST PUSH1 0x20 DUP4 ADD SWAP1 POP SWAP3 SWAP2 POP POP JUMP JUMPDEST PUSH0 PUSH1 0x20 DUP3 ADD SWAP1 POP SWAP2 SWAP1 POP JUMP JUMPDEST PUSH0 PUSH2 0x1083 DUP3 PUSH2 0x101E JUMP JUMPDEST PUSH2 0x108D DUP2 DUP6 PUSH2 0x1028 JUMP JUMPDEST SWAP4 POP PUSH2 0x1098 DUP4 PUSH2 0x1038 JUMP JUMPDEST DUP1 PUSH0 JUMPDEST DUP4 DUP2 LT ISZERO PUSH2 0x10C8 JUMPI DUP2 MLOAD PUSH2 0x10AF DUP9 DUP3 PUSH2 0x1056 JUMP JUMPDEST SWAP8 POP PUSH2 0x10BA DUP4 PUSH2 0x106D JUMP JUMPDEST SWAP3 POP POP PUSH1 0x1 DUP2 ADD SWAP1 POP PUSH2 0x109B JUMP JUMPDEST POP DUP6 SWAP4 POP POP POP POP SWAP3 SWAP2 POP POP JUMP JUMPDEST PUSH0 PUSH1 0xE0 DUP3 ADD SWAP1 POP PUSH2 0x10E8 PUSH0 DUP4 ADD DUP11 PUSH2 0xFA0 JUMP JUMPDEST DUP2 DUP2 SUB PUSH1 0x20 DUP4 ADD MSTORE PUSH2 0x10FA DUP2 DUP10 PUSH2 0xE2C JUMP JUMPDEST SWAP1 POP DUP2 DUP2 SUB PUSH1 0x40 DUP4 ADD MSTORE PUSH2 0x110E DUP2 DUP9 PUSH2 0xE2C JUMP JUMPDEST SWAP1 POP PUSH2 0x111D PUSH1 0x60 DUP4 ADD DUP8 PUSH2 0xFB8 JUMP JUMPDEST PUSH2 0x112A PUSH1 0x80 DUP4 ADD DUP7 PUSH2 0xFF7 JUMP JUMPDEST PUSH2 0x1137 PUSH1 0xA0 DUP4 ADD DUP6 PUSH2 0x100F JUMP JUMPDEST DUP2 DUP2 SUB PUSH1 0xC0 DUP4 ADD MSTORE PUSH2 0x1149 DUP2 DUP5 PUSH2 0x1079 JUMP JUMPDEST SWAP1 POP SWAP9 SWAP8 POP POP POP POP POP POP POP POP JUMP JUMPDEST PUSH2 0x1160 DUP2 PUSH2 0x1006 JUMP JUMPDEST DUP2 EQ PUSH2 0x116A JUMPI PUSH0 DUP1 REVERT JUMPDEST POP JUMP JUMPDEST PUSH0 DUP2 CALLDATALOAD SWAP1 POP PUSH2 0x117B DUP2 PUSH2 0x1157 JUMP JUMPDEST SWAP3 SWAP2 POP POP JUMP JUMPDEST PUSH0 DUP1 PUSH0 PUSH1 0x40 DUP5 DUP7 SUB SLT ISZERO PUSH2 0x1198 JUMPI PUSH2 0x1197 PUSH2 0xEC1 JUMP JUMPDEST JUMPDEST PUSH0 PUSH2 0x11A5 DUP7 DUP3 DUP8 ADD PUSH2 0x116D JUMP JUMPDEST SWAP4 POP POP PUSH1 0x20 DUP5 ADD CALLDATALOAD PUSH8 0xFFFFFFFFFFFFFFFF DUP2 GT ISZERO PUSH2 0x11C6 JUMPI PUSH2 0x11C5 PUSH2 0xEC5 JUMP JUMPDEST JUMPDEST PUSH2 0x11D2 DUP7 DUP3 DUP8 ADD PUSH2 0xED5 JUMP JUMPDEST SWAP3 POP SWAP3 POP POP SWAP3 POP SWAP3 POP SWAP3 JUMP JUMPDEST PUSH0 DUP2 MLOAD SWAP1 POP SWAP2 SWAP1 POP JUMP JUMPDEST PUSH0 DUP3 DUP3 MSTORE PUSH1 0x20 DUP3 ADD SWAP1 POP SWAP3 SWAP2 POP POP JUMP JUMPDEST PUSH0 PUSH2 0x1202 DUP3 PUSH2 0x11DE JUMP JUMPDEST PUSH2 0x120C DUP2 DUP6 PUSH2 0x11E8 JUMP JUMPDEST SWAP4 POP PUSH2 0x121C DUP2 DUP6 PUSH1 0x20 DUP7 ADD PUSH2 0xE0E JUMP JUMPDEST PUSH2 0x1225 DUP2 PUSH2 0xE1C JUMP JUMPDEST DUP5 ADD SWAP2 POP POP SWAP3 SWAP2 POP POP JUMP JUMPDEST PUSH0 PUSH1 0x20 DUP3 ADD SWAP1 POP DUP2 DUP2 SUB PUSH0 DUP4 ADD MSTORE PUSH2 0x1248 DUP2 DUP5 PUSH2 0x11F8 JUMP JUMPDEST SWAP1 POP SWAP3 SWAP2 POP POP JUMP JUMPDEST PUSH32 0x4E487B7100000000000000000000000000000000000000000000000000000000 PUSH0 MSTORE PUSH1 0x22 PUSH1 0x4 MSTORE PUSH1 0x24 PUSH0 REVERT JUMPDEST PUSH0 PUSH1 0x2 DUP3 DIV SWAP1 POP PUSH1 0x1 DUP3 AND DUP1 PUSH2 0x1294 JUMPI PUSH1 0x7F DUP3 AND SWAP2 POP JUMPDEST PUSH1 0x20 DUP3 LT DUP2 SUB PUSH2 0x12A7 JUMPI PUSH2 0x12A6 PUSH2 0x1250 JUMP JUMPDEST JUMPDEST POP SWAP2 SWAP1 POP JUMP JUMPDEST PUSH32 0x4E487B7100000000000000000000000000000000000000000000000000000000 PUSH0 MSTORE PUSH1 0x41 PUSH1 0x4 MSTORE PUSH1 0x24 PUSH0 REVERT JUMPDEST PUSH0 PUSH1 0x40 DUP3 ADD SWAP1 POP PUSH2 0x12ED PUSH0 DUP4 ADD DUP6 PUSH2 0x100F JUMP JUMPDEST PUSH2 0x12FA PUSH1 0x20 DUP4 ADD DUP5 PUSH2 0x100F JUMP JUMPDEST SWAP4 SWAP3 POP POP POP JUMP JUMPDEST PUSH32 0x454950373132207369676E657220616E64207472616E73616374696F6E207369 PUSH0 DUP3 ADD MSTORE PUSH32 0x676E657220646F206E6F74206D61746368000000000000000000000000000000 PUSH1 0x20 DUP3 ADD MSTORE POP JUMP JUMPDEST PUSH0 PUSH2 0x135B PUSH1 0x31 DUP4 PUSH2 0xDFE JUMP JUMPDEST SWAP2 POP PUSH2 0x1366 DUP3 PUSH2 0x1301 JUMP JUMPDEST PUSH1 0x40 DUP3 ADD SWAP1 POP SWAP2 SWAP1 POP JUMP JUMPDEST PUSH0 PUSH1 0x20 DUP3 ADD SWAP1 POP DUP2 DUP2 SUB PUSH0 DUP4 ADD MSTORE PUSH2 0x1388 DUP2 PUSH2 0x134F JUMP JUMPDEST SWAP1 POP SWAP2 SWAP1 POP JUMP JUMPDEST PUSH0 DUP2 SWAP1 POP SWAP3 SWAP2 POP POP JUMP JUMPDEST PUSH0 PUSH2 0x13A3 DUP3 PUSH2 0x11DE JUMP JUMPDEST PUSH2 0x13AD DUP2 DUP6 PUSH2 0x138F JUMP JUMPDEST SWAP4 POP PUSH2 0x13BD DUP2 DUP6 PUSH1 0x20 DUP7 ADD PUSH2 0xE0E JUMP JUMPDEST DUP1 DUP5 ADD SWAP2 POP POP SWAP3 SWAP2 POP POP JUMP JUMPDEST PUSH0 DUP2 SWAP1 POP SWAP2 SWAP1 POP JUMP JUMPDEST PUSH2 0x13E3 PUSH2 0x13DE DUP3 PUSH2 0xF75 JUMP JUMPDEST PUSH2 0x13C9 JUMP JUMPDEST DUP3 MSTORE POP POP JUMP JUMPDEST PUSH0 PUSH2 0x13F4 DUP3 DUP6 PUSH2 0x1399 JUMP JUMPDEST SWAP2 POP PUSH2 0x1400 DUP3 DUP5 PUSH2 0x13D2 JUMP JUMPDEST PUSH1 0x1 DUP3 ADD SWAP2 POP DUP2 SWAP1 POP SWAP4 SWAP3 POP POP POP JUMP JUMPDEST PUSH2 0x1419 DUP2 PUSH2 0xFAF JUMP JUMPDEST DUP2 EQ PUSH2 0x1423 JUMPI PUSH0 DUP1 REVERT JUMPDEST POP JUMP JUMPDEST PUSH0 DUP2 MLOAD SWAP1 POP PUSH2 0x1434 DUP2 PUSH2 0x1410 JUMP JUMPDEST SWAP3 SWAP2 POP POP JUMP JUMPDEST PUSH0 PUSH1 0x20 DUP3 DUP5 SUB SLT ISZERO PUSH2 0x144F JUMPI PUSH2 0x144E PUSH2 0xEC1 JUMP JUMPDEST JUMPDEST PUSH0 PUSH2 0x145C DUP5 DUP3 DUP6 ADD PUSH2 0x1426 JUMP JUMPDEST SWAP2 POP POP SWAP3 SWAP2 POP POP JUMP JUMPDEST PUSH0 PUSH1 0x60 DUP3 ADD SWAP1 POP PUSH2 0x1478 PUSH0 DUP4 ADD DUP7 PUSH2 0xFB8 JUMP JUMPDEST PUSH2 0x1485 PUSH1 0x20 DUP4 ADD DUP6 PUSH2 0xFB8 JUMP JUMPDEST PUSH2 0x1492 PUSH1 0x40 DUP4 ADD DUP5 PUSH2 0xFA0 JUMP JUMPDEST SWAP5 SWAP4 POP POP POP POP JUMP JUMPDEST PUSH32 0x4E487B7100000000000000000000000000000000000000000000000000000000 PUSH0 MSTORE PUSH1 0x21 PUSH1 0x4 MSTORE PUSH1 0x24 PUSH0 REVERT JUMPDEST PUSH0 PUSH1 0x20 DUP3 ADD SWAP1 POP PUSH2 0x14DA PUSH0 DUP4 ADD DUP5 PUSH2 0xFB8 JUMP JUMPDEST SWAP3 SWAP2 POP POP JUMP JUMPDEST PUSH0 PUSH1 0x20 DUP3 ADD SWAP1 POP PUSH2 0x14F3 PUSH0 DUP4 ADD DUP5 PUSH2 0x100F JUMP JUMPDEST SWAP3 SWAP2 POP POP JUMP JUMPDEST PUSH0 PUSH1 0x40 DUP3 ADD SWAP1 POP PUSH2 0x150C PUSH0 DUP4 ADD DUP6 PUSH2 0xFB8 JUMP JUMPDEST PUSH2 0x1519 PUSH1 0x20 DUP4 ADD DUP5 PUSH2 0xFB8 JUMP JUMPDEST SWAP4 SWAP3 POP POP POP JUMP JUMPDEST PUSH0 DUP1 REVERT JUMPDEST PUSH2 0x152D DUP3 PUSH2 0xE1C JUMP JUMPDEST DUP2 ADD DUP2 DUP2 LT PUSH8 0xFFFFFFFFFFFFFFFF DUP3 GT OR ISZERO PUSH2 0x154C JUMPI PUSH2 0x154B PUSH2 0x12AD JUMP JUMPDEST JUMPDEST DUP1 PUSH1 0x40 MSTORE POP POP POP JUMP JUMPDEST PUSH0 PUSH2 0x155E PUSH2 0xEB8 JUMP JUMPDEST SWAP1 POP PUSH2 0x156A DUP3 DUP3 PUSH2 0x1524 JUMP JUMPDEST SWAP2 SWAP1 POP JUMP JUMPDEST PUSH0 PUSH8 0xFFFFFFFFFFFFFFFF DUP3 GT ISZERO PUSH2 0x1589 JUMPI PUSH2 0x1588 PUSH2 0x12AD JUMP JUMPDEST JUMPDEST PUSH2 0x1592 DUP3 PUSH2 0xE1C JUMP JUMPDEST SWAP1 POP PUSH1 0x20 DUP2 ADD SWAP1 POP SWAP2 SWAP1 POP JUMP JUMPDEST PUSH0 PUSH2 0x15B1 PUSH2 0x15AC DUP5 PUSH2 0x156F JUMP JUMPDEST PUSH2 0x1555 JUMP JUMPDEST SWAP1 POP DUP3 DUP2 MSTORE PUSH1 0x20 DUP2 ADD DUP5 DUP5 DUP5 ADD GT ISZERO PUSH2 0x15CD JUMPI PUSH2 0x15CC PUSH2 0x1520 JUMP JUMPDEST JUMPDEST PUSH2 0x15D8 DUP5 DUP3 DUP6 PUSH2 0xE0E JUMP JUMPDEST POP SWAP4 SWAP3 POP POP POP JUMP JUMPDEST PUSH0 DUP3 PUSH1 0x1F DUP4 ADD SLT PUSH2 0x15F4 JUMPI PUSH2 0x15F3 PUSH2 0xEC9 JUMP JUMPDEST JUMPDEST DUP2 MLOAD PUSH2 0x1604 DUP5 DUP3 PUSH1 0x20 DUP7 ADD PUSH2 0x159F JUMP JUMPDEST SWAP2 POP POP SWAP3 SWAP2 POP POP JUMP JUMPDEST PUSH0 PUSH1 0x20 DUP3 DUP5 SUB SLT ISZERO PUSH2 0x1622 JUMPI PUSH2 0x1621 PUSH2 0xEC1 JUMP JUMPDEST JUMPDEST PUSH0 DUP3 ADD MLOAD PUSH8 0xFFFFFFFFFFFFFFFF DUP2 GT ISZERO PUSH2 0x163F JUMPI PUSH2 0x163E PUSH2 0xEC5 JUMP JUMPDEST JUMPDEST PUSH2 0x164B DUP5 DUP3 DUP6 ADD PUSH2 0x15E0 JUMP JUMPDEST SWAP2 POP POP SWAP3 SWAP2 POP POP JUMP JUMPDEST PUSH0 PUSH1 0x40 DUP3 ADD SWAP1 POP PUSH2 0x1667 PUSH0 DUP4 ADD DUP6 PUSH2 0xFB8 JUMP JUMPDEST PUSH2 0x1674 PUSH1 0x20 DUP4 ADD DUP5 PUSH2 0xFA0 JUMP JUMPDEST SWAP4 SWAP3 POP POP POP JUMP JUMPDEST PUSH0 PUSH1 0xA0 DUP3 ADD SWAP1 POP PUSH2 0x168E PUSH0 DUP4 ADD DUP9 PUSH2 0x100F JUMP JUMPDEST PUSH2 0x169B PUSH1 0x20 DUP4 ADD DUP8 PUSH2 0x100F JUMP JUMPDEST PUSH2 0x16A8 PUSH1 0x40 DUP4 ADD DUP7 PUSH2 0x100F JUMP JUMPDEST PUSH2 0x16B5 PUSH1 0x60 DUP4 ADD DUP6 PUSH2 0xFB8 JUMP JUMPDEST PUSH2 0x16C2 PUSH1 0x80 DUP4 ADD DUP5 PUSH2 0xFF7 JUMP JUMPDEST SWAP7 SWAP6 POP POP POP POP POP POP JUMP JUMPDEST PUSH0 PUSH1 0x80 DUP3 ADD SWAP1 POP PUSH2 0x16DF PUSH0 DUP4 ADD DUP8 PUSH2 0x100F JUMP JUMPDEST PUSH2 0x16EC PUSH1 0x20 DUP4 ADD DUP7 PUSH2 0xE90 JUMP JUMPDEST PUSH2 0x16F9 PUSH1 0x40 DUP4 ADD DUP6 PUSH2 0x100F JUMP JUMPDEST PUSH2 0x1706 PUSH1 0x60 DUP4 ADD DUP5 PUSH2 0x100F JUMP JUMPDEST SWAP6 SWAP5 POP POP POP POP POP JUMP INVALID LOG2 PUSH5 0x6970667358 0x22 SLT KECCAK256 0xA9 0xD3 0xC3 PUSH31 0x5EDC601A8259B974E3D558D83F980396449F9DE544B9132E4B08A30364736F PUSH13 0x634300081A0033A26469706673 PC 0x22 SLT KECCAK256 0x25 0xFB ISZERO 0x1E PUSH21 0xC6AD3552E55754FFA9E003B5DCAB12A9ECA32F835 0xE1 RETURNDATASIZE EXTCODESIZE 0xDF PUSH30 0xA964736F6C634300081A0033000000000000000000000000000000000000 "
		},
		"gasEstimates": {
			"creation": {
				"codeDepositCost": "4753000",
				"executionCost": "infinite",
				"totalCost": "infinite"
			},
			"external": {
				"addEmploy(string,address,bytes32)": "infinite",
				"addSchedule((uint256,uint256,uint256,uint256,uint256,uint256,uint256),bytes32)": "infinite",
				"adminKey(address)": "2919",
				"claim(bytes,bytes32)": "infinite",
				"company(bytes32)": "infinite",
				"companya(bytes32)": "infinite",
				"create(string,bytes32)": "infinite",
				"createCompanykey(string,uint256)": "infinite",
				"eip712Domain()": "infinite",
				"employDetails(bytes32,address)": "infinite",
				"employeea(address,bytes32)": "infinite",
				"getEmployeeList(bytes32,uint256)": "5267",
				"isEmpoloyee(bytes32,address)": "3093",
				"keys(address)": "2913",
				"request(bytes32)": "infinite",
				"schedule(bytes32)": "infinite",
				"stakeHolders(bytes32,uint256)": "5226",
				"vestingAddr()": "2531"
			},
			"internal": {
				"valueBeforeCliff(struct IVesting.VestingSchedule memory,euint32,euint32,struct IEncryptedCapTable.EmployeeDetails memory)": "infinite"
			}
		},
		"methodIdentifiers": {
			"addEmploy(string,address,bytes32)": "f057a5d1",
			"addSchedule((uint256,uint256,uint256,uint256,uint256,uint256,uint256),bytes32)": "283f03f0",
			"adminKey(address)": "22e1f50e",
			"claim(bytes,bytes32)": "0280ffb6",
			"company(bytes32)": "e93a5b98",
			"companya(bytes32)": "937f0860",
			"create(string,bytes32)": "3dee0c50",
			"createCompanykey(string,uint256)": "978dc9fd",
			"eip712Domain()": "84b0196e",
			"employDetails(bytes32,address)": "1c08248f",
			"employeea(address,bytes32)": "0164d6c4",
			"getEmployeeList(bytes32,uint256)": "c705ab18",
			"isEmpoloyee(bytes32,address)": "a27e53df",
			"keys(address)": "670d14b2",
			"request(bytes32)": "59c87d70",
			"schedule(bytes32)": "548eac04",
			"stakeHolders(bytes32,uint256)": "c036596a",
			"vestingAddr()": "7e51bf4b"
		}
	},
	"abi": [
		{
			"inputs": [
				{
					"internalType": "address",
					"name": "_vestingContract",
					"type": "address"
				}
			],
			"stateMutability": "nonpayable",
			"type": "constructor"
		},
		{
			"inputs": [],
			"name": "InvalidShortString",
			"type": "error"
		},
		{
			"inputs": [
				{
					"internalType": "string",
					"name": "str",
					"type": "string"
				}
			],
			"name": "StringTooLong",
			"type": "error"
		},
		{
			"anonymous": false,
			"inputs": [],
			"name": "EIP712DomainChanged",
			"type": "event"
		},
		{
			"inputs": [
				{
					"internalType": "string",
					"name": "_name",
					"type": "string"
				},
				{
					"internalType": "address",
					"name": "_address",
					"type": "address"
				},
				{
					"internalType": "bytes32",
					"name": "_key",
					"type": "bytes32"
				}
			],
			"name": "addEmploy",
			"outputs": [],
			"stateMutability": "nonpayable",
			"type": "function"
		},
		{
			"inputs": [
				{
					"components": [
						{
							"internalType": "euint32",
							"name": "start",
							"type": "uint256"
						},
						{
							"internalType": "euint32",
							"name": "cliffDuration",
							"type": "uint256"
						},
						{
							"internalType": "euint32",
							"name": "totalDuration",
							"type": "uint256"
						},
						{
							"internalType": "euint32",
							"name": "amountTotal",
							"type": "uint256"
						},
						{
							"internalType": "euint32",
							"name": "releaseAtStartPercentage",
							"type": "uint256"
						},
						{
							"internalType": "euint32",
							"name": "releaseAtCliffPercentage",
							"type": "uint256"
						},
						{
							"internalType": "euint32",
							"name": "linearReleasePercentage",
							"type": "uint256"
						}
					],
					"internalType": "struct IVesting.VestingSchedule",
					"name": "vesting",
					"type": "tuple"
				},
				{
					"internalType": "bytes32",
					"name": "_key",
					"type": "bytes32"
				}
			],
			"name": "addSchedule",
			"outputs": [],
			"stateMutability": "nonpayable",
			"type": "function"
		},
		{
			"inputs": [
				{
					"internalType": "address",
					"name": "_address",
					"type": "address"
				}
			],
			"name": "adminKey",
			"outputs": [
				{
					"internalType": "bytes32",
					"name": "",
					"type": "bytes32"
				}
			],
			"stateMutability": "view",
			"type": "function"
		},
		{
			"inputs": [
				{
					"internalType": "bytes",
					"name": "_amount",
					"type": "bytes"
				},
				{
					"internalType": "bytes32",
					"name": "_key",
					"type": "bytes32"
				}
			],
			"name": "claim",
			"outputs": [],
			"stateMutability": "nonpayable",
			"type": "function"
		},
		{
			"inputs": [
				{
					"internalType": "bytes32",
					"name": "",
					"type": "bytes32"
				}
			],
			"name": "company",
			"outputs": [
				{
					"internalType": "euint32",
					"name": "employs",
					"type": "uint256"
				},
				{
					"internalType": "address",
					"name": "admin",
					"type": "address"
				},
				{
					"internalType": "euint32",
					"name": "totalFund",
					"type": "uint256"
				},
				{
					"internalType": "euint32",
					"name": "totalClaimedFund",
					"type": "uint256"
				},
				{
					"internalType": "euint32",
					"name": "totalLocked",
					"type": "uint256"
				},
				{
					"internalType": "address",
					"name": "ercAddres",
					"type": "address"
				}
			],
			"stateMutability": "view",
			"type": "function"
		},
		{
			"inputs": [
				{
					"internalType": "bytes32",
					"name": "key",
					"type": "bytes32"
				}
			],
			"name": "companya",
			"outputs": [
				{
					"components": [
						{
							"internalType": "euint32",
							"name": "employs",
							"type": "uint256"
						},
						{
							"internalType": "address",
							"name": "admin",
							"type": "address"
						},
						{
							"internalType": "euint32",
							"name": "totalFund",
							"type": "uint256"
						},
						{
							"internalType": "euint32",
							"name": "totalClaimedFund",
							"type": "uint256"
						},
						{
							"internalType": "euint32",
							"name": "totalLocked",
							"type": "uint256"
						},
						{
							"internalType": "address",
							"name": "ercAddres",
							"type": "address"
						}
					],
					"internalType": "struct IEncryptedCapTable.CompanyDetails",
					"name": "",
					"type": "tuple"
				}
			],
			"stateMutability": "view",
			"type": "function"
		},
		{
			"inputs": [
				{
					"internalType": "string",
					"name": "tokenName",
					"type": "string"
				},
				{
					"internalType": "bytes32",
					"name": "key",
					"type": "bytes32"
				}
			],
			"name": "create",
			"outputs": [
				{
					"internalType": "bool",
					"name": "",
					"type": "bool"
				}
			],
			"stateMutability": "nonpayable",
			"type": "function"
		},
		{
			"inputs": [
				{
					"internalType": "string",
					"name": "_string",
					"type": "string"
				},
				{
					"internalType": "uint256",
					"name": "_registeryear",
					"type": "uint256"
				}
			],
			"name": "createCompanykey",
			"outputs": [
				{
					"internalType": "bytes32",
					"name": "",
					"type": "bytes32"
				}
			],
			"stateMutability": "nonpayable",
			"type": "function"
		},
		{
			"inputs": [],
			"name": "eip712Domain",
			"outputs": [
				{
					"internalType": "bytes1",
					"name": "fields",
					"type": "bytes1"
				},
				{
					"internalType": "string",
					"name": "name",
					"type": "string"
				},
				{
					"internalType": "string",
					"name": "version",
					"type": "string"
				},
				{
					"internalType": "uint256",
					"name": "chainId",
					"type": "uint256"
				},
				{
					"internalType": "address",
					"name": "verifyingContract",
					"type": "address"
				},
				{
					"internalType": "bytes32",
					"name": "salt",
					"type": "bytes32"
				},
				{
					"internalType": "uint256[]",
					"name": "extensions",
					"type": "uint256[]"
				}
			],
			"stateMutability": "view",
			"type": "function"
		},
		{
			"inputs": [
				{
					"internalType": "bytes32",
					"name": "",
					"type": "bytes32"
				},
				{
					"internalType": "address",
					"name": "",
					"type": "address"
				}
			],
			"name": "employDetails",
			"outputs": [
				{
					"internalType": "string",
					"name": "name",
					"type": "string"
				},
				{
					"internalType": "address",
					"name": "stakeholder",
					"type": "address"
				},
				{
					"internalType": "euint32",
					"name": "totalAllocation",
					"type": "uint256"
				},
				{
					"internalType": "euint32",
					"name": "unlocked",
					"type": "uint256"
				},
				{
					"internalType": "euint32",
					"name": "claimed",
					"type": "uint256"
				},
				{
					"internalType": "ebool",
					"name": "isClaimAvailable",
					"type": "uint256"
				},
				{
					"internalType": "uint32",
					"name": "allocationTime",
					"type": "uint32"
				},
				{
					"internalType": "euint32",
					"name": "lastClaimed",
					"type": "uint256"
				}
			],
			"stateMutability": "view",
			"type": "function"
		},
		{
			"inputs": [
				{
					"internalType": "address",
					"name": "employee",
					"type": "address"
				},
				{
					"internalType": "bytes32",
					"name": "key",
					"type": "bytes32"
				}
			],
			"name": "employeea",
			"outputs": [
				{
					"components": [
						{
							"internalType": "string",
							"name": "name",
							"type": "string"
						},
						{
							"internalType": "address",
							"name": "stakeholder",
							"type": "address"
						},
						{
							"internalType": "euint32",
							"name": "totalAllocation",
							"type": "uint256"
						},
						{
							"internalType": "euint32",
							"name": "unlocked",
							"type": "uint256"
						},
						{
							"internalType": "euint32",
							"name": "claimed",
							"type": "uint256"
						},
						{
							"internalType": "ebool",
							"name": "isClaimAvailable",
							"type": "uint256"
						},
						{
							"internalType": "uint32",
							"name": "allocationTime",
							"type": "uint32"
						},
						{
							"internalType": "euint32",
							"name": "lastClaimed",
							"type": "uint256"
						}
					],
					"internalType": "struct IEncryptedCapTable.EmployeeDetails",
					"name": "",
					"type": "tuple"
				}
			],
			"stateMutability": "view",
			"type": "function"
		},
		{
			"inputs": [
				{
					"internalType": "bytes32",
					"name": "_key",
					"type": "bytes32"
				},
				{
					"internalType": "uint256",
					"name": "_index",
					"type": "uint256"
				}
			],
			"name": "getEmployeeList",
			"outputs": [
				{
					"internalType": "address",
					"name": "",
					"type": "address"
				}
			],
			"stateMutability": "view",
			"type": "function"
		},
		{
			"inputs": [
				{
					"internalType": "bytes32",
					"name": "",
					"type": "bytes32"
				},
				{
					"internalType": "address",
					"name": "",
					"type": "address"
				}
			],
			"name": "isEmpoloyee",
			"outputs": [
				{
					"internalType": "bool",
					"name": "",
					"type": "bool"
				}
			],
			"stateMutability": "view",
			"type": "function"
		},
		{
			"inputs": [
				{
					"internalType": "address",
					"name": "",
					"type": "address"
				}
			],
			"name": "keys",
			"outputs": [
				{
					"internalType": "bytes32",
					"name": "",
					"type": "bytes32"
				}
			],
			"stateMutability": "view",
			"type": "function"
		},
		{
			"inputs": [
				{
					"internalType": "bytes32",
					"name": "key",
					"type": "bytes32"
				}
			],
			"name": "request",
			"outputs": [],
			"stateMutability": "nonpayable",
			"type": "function"
		},
		{
			"inputs": [
				{
					"internalType": "bytes32",
					"name": "",
					"type": "bytes32"
				}
			],
			"name": "schedule",
			"outputs": [
				{
					"internalType": "euint32",
					"name": "start",
					"type": "uint256"
				},
				{
					"internalType": "euint32",
					"name": "cliffDuration",
					"type": "uint256"
				},
				{
					"internalType": "euint32",
					"name": "totalDuration",
					"type": "uint256"
				},
				{
					"internalType": "euint32",
					"name": "amountTotal",
					"type": "uint256"
				},
				{
					"internalType": "euint32",
					"name": "releaseAtStartPercentage",
					"type": "uint256"
				},
				{
					"internalType": "euint32",
					"name": "releaseAtCliffPercentage",
					"type": "uint256"
				},
				{
					"internalType": "euint32",
					"name": "linearReleasePercentage",
					"type": "uint256"
				}
			],
			"stateMutability": "view",
			"type": "function"
		},
		{
			"inputs": [
				{
					"internalType": "bytes32",
					"name": "",
					"type": "bytes32"
				},
				{
					"internalType": "uint256",
					"name": "",
					"type": "uint256"
				}
			],
			"name": "stakeHolders",
			"outputs": [
				{
					"internalType": "address",
					"name": "",
					"type": "address"
				}
			],
			"stateMutability": "view",
			"type": "function"
		},
		{
			"inputs": [],
			"name": "vestingAddr",
			"outputs": [
				{
					"internalType": "address",
					"name": "",
					"type": "address"
				}
			],
			"stateMutability": "view",
			"type": "function"
		}
	]
}